:100000000C945F000C9487000C9487000C9487007C
:100010000C9487000C9487000C9487000C94870044
:100020000C9487000C9487000C9487000C94870034
:100030000C9487000C9487000C9487000C94870024
:100040000C94440E0C9487000C94E90A0C94250B34
:100050000C9487000C9487000C9487000C94870004
:100060000C9487000C948700000000070002010038
:100070000003040600000000000000000102040864
:100080001020408001020408102001020408102002
:10009000040404040404040402020202020203032E
:1000A0000303030300000000250028002B000000CC
:1000B0000000240027002A00E207E00B1D0811249D
:1000C0001FBECFEFD4E0DEBFCDBF11E0A0E0B1E0B6
:1000D000E0E4F4E202C005900D92A23EB107D9F728
:1000E00013E0A2EEB1E001C01D92A636B107E1F720
:1000F00010E0CCEBD0E004C02297FE010E94140F68
:10010000C83BD107C9F70E947A0C0C9413120C94C7
:1001100000008EEE91E00E94870C8BEF91E00E9430
:10012000870C88E092E00E94870C85E192E00E94B3
:10013000870C82E292E00E94870C8FE292E00E949C
:10014000870C8CE392E00E94870C89E492E00E9485
:10015000870C86E592E00E94870C83E692E00E947D
:10016000870C8CE992E00E94870C84E892E00E9460
:10017000870C8CE692E00C94870CFC0184859585B5
:10018000681779070CF405C0828593858617970751
:100190001CF4918B808B0895718B608B089560E1C6
:1001A00071E006960C94F80CDF92EF92FF920F9399
:1001B0001F93CF93DF93E12CF12C88E1D82EDE9CA6
:1001C000E001DF9CD00D1124C659DD4F89858823BD
:1001D000B1F10E851F85888999890817190741F1A2
:1001E0002C893D894A895B8924173507ECF01D8AE3
:1001F0001C8A0817190754F42E893F898A859B8524
:10020000020F131F801791079CF40CC080179107F1
:100210007CF42E893F898C859D85021B130B081762
:10022000190734F48C0104C02F5F3F4F3D8B2C8B9A
:10023000B80188810E941F081F870E8705C060E0F3
:1002400070E088810E941F088FEFE81AF80A83E0A7
:10025000E816F10409F0B3CFDF91CF911F910F9110
:10026000FF90EF90DF900895FB0120813181DC0148
:1002700011963C932E932281338113963C932E93B7
:1002800012972481358115963C932E9314976A5FBB
:100290007F4F06960C942C0D06960C94870CFF92BB
:1002A0000F931F93CF93DF9303E712E0C0E0D0E0FA
:1002B00098E1F92E6AE071E082EB92E00E94510928
:1002C0004AE050E0BE0182EB92E00E942B0A61E11D
:1002D00071E082EB92E00E945109FC9EF001FD9ECC
:1002E000F00D1124E659FD4F668577854AE050E010
:1002F00082EB92E00E942B0A6BE171E082EB92E0CC
:100300000E945109F80160814AE050E070E082EB00
:1003100092E00E94330A2196085E1F4FC330D10538
:1003200049F6DF91CF911F910F91FF9008956F9241
:100330007F928F929F92AF92BF92CF92DF92EF9275
:10034000FF920F931F93CF93DF93CDB7DEB729971B
:100350000FB6F894DEBF0FBECDBF7C013B01ADB63A
:10036000BEB6C12CD12C812C912C00E010E014C021
:100370000F5F1F4FB601C7010E94D30D803249F4B1
:100380008FEF881A980A861497041CF0F701C4802E
:10039000D580FFEFCF1ADF0AF70184819581C81657
:1003A000D90630F39801680113C0B601C701288748
:1003B00039870E94D30D28853985803221F4F701D1
:1003C000C480D58002C00F5F1F4FFFEFCF1ADF0A36
:1003D000F70184809580C814D90438F38DB79EB78F
:1003E000881999090FB6F8949EBF0FBE8DBFCDB680
:1003F000DEB6EFEFCE1ADE0AA801B701CE010196F4
:100400000E94FF0D20E030E0A401B601CE0101966C
:100410000E94D50DCE0101960E94870CC6010FB631
:10042000F894BEBE0FBEADBE29960FB6F894DEBFDF
:100430000FBECDBFDF91CF911F910F91FF90EF9035
:10044000DF90CF90BF90AF909F908F907F906F90F4
:100450000895CF92DF92EF92FF920F931F93CF9365
:10046000DF93CDB7DEB727970FB6F894DEBF0FBE88
:10047000CDBF7C01BC01CE0101960E942C0D62E033
:1004800070E0CE0101960E9497010E9481118C01BB
:10049000CE0101960E94870CB701CE0101960E9401
:1004A0002C0D61E070E0CE0101960E9497010E9440
:1004B00081116C01CE0101960E94870CB701CE011B
:1004C00001960E942C0D63E070E0CE0101960E941F
:1004D00097010E9481117C01CE0101960E94870C38
:1004E00088E18C9DF0018D9DF00D1124E659FD4FA2
:1004F0001E141F041CF481E0818701C011868285CF
:100500009385801791070CF405C08485958508179D
:1005100019071CF49787868702C017870687868588
:100520009785918B808B65E271E082EB92E00E946F
:1005300051094AE050E0B60182EB92E00E942B0A9A
:1005400063E371E082EB92E00E9451094AE050E0DF
:10055000B80182EB92E00E942B0A60E471E082EB2A
:1005600092E00E9451094AE050E0B70182EB92E02C
:100570000E94330A27960FB6F894DEBF0FBECDBF98
:10058000DF91CF911F910F91FF90EF90DF90CF906F
:100590000895109277021092760210928F021092B4
:1005A0008E021092A7021092A60208957F928F9257
:1005B0009F92AF92BF92CF92DF92EF92FF920F93F2
:1005C0001F93CF93DF93CDB7DEB727970FB6F8947D
:1005D000DEBF0FBECDBF6C011092ED010E94C902BB
:1005E000E12CF12C28E1822E992493948E9C800199
:1005F0008F9C100D112406591D4F6EE471E0CE0141
:1006000001960E94F80C580182E0A80EB11CBE01B0
:100610006F5F7F4FC5010E94B30D782ECE0101960A
:100620000E94870C772031F0F60160817181C8014A
:100630000E94BD0062E571E0CE0101960E94F80CB7
:10064000BE016F5F7F4FC5010E94B30D782ECE01B2
:1006500001960E94870C772031F0F6016281738148
:10066000C8010E94BD006CE871E0CE0101960E94B5
:10067000F80CBE016F5F7F4FC5010E94B30DB82E0D
:10068000CE0101960E94870CBB2031F0F6016481F7
:100690007581C8010E94BD00F8019186FFEFEF1A35
:1006A000FF0A83E0E816F10409F0A0CF27960FB601
:1006B000F894DEBF0FBECDBFDF91CF911F910F9198
:1006C000FF90EF90DF90CF90BF90AF909F908F9072
:1006D0007F9008957F928F929F92AF92BF92CF9218
:1006E000DF92EF92FF920F931F93CF93DF93CDB7DB
:1006F000DEB764970FB6F894DEBF0FBECDBF0FEF25
:1007000010E010935E0200935D021093600200936C
:100710005F0280E390E09093620280936102109305
:100720005102009350021092530210925202109202
:1007300055021092540210924402109243021093F8
:10074000460200934502109248021092470210920E
:10075000370210923602109239021092380210932A
:100760003B0200933A0210922A021092290286EA72
:1007700090E090932C0280932B0210932E02009312
:100780002D0210931D0200931C0210931F02009370
:100790001E02109221021092200210931002009368
:1007A0000F02109212021092110210931402009381
:1007B000130210920302109202021092050210928C
:1007C0000402109207021092060280E190E09093DA
:1007D000F6018093F5011092F8011092F701109242
:1007E000FA011092F9016EE471E0CE010E960E94BA
:1007F000F80C3AE6E32E32E0F32E77247394F701F7
:10080000718683E090E0918380831093750200935A
:100810007402109277021092760210927B0210926C
:100820007A02BE01625F7F4F8CE692E00E94150D56
:100830004EE1A42EB12CB0927D02A0927C021092C7
:100840007F0210927E02CC24C394D12CD0928102DC
:10085000C0928002CE010E960E94870C62E571E084
:10086000CE010E960E94F80CF70171A262E8862E66
:1008700062E0962E85E090E0F401918380831093EE
:100880008D0200938C0210928F0210928E021092B1
:10089000930210929202BE01625F7F4F84E892E061
:1008A0000E94150DB0929502A092940210929702A8
:1008B00010929602D0929902C0929802CE010E96A2
:1008C0000E94870C6CE871E0CE010E960E94F80C35
:1008D000F70171AE86E090E090939B0280939A02BC
:1008E0001093A5020093A4021092A7021092A602F0
:1008F0001092AB021092AA02BE01625F7F4F8CE998
:1009000092E00E94150DB092AD02A092AC0210923E
:10091000AF021092AE02D092B102C092B002CE01EC
:100920000E960E94870C40E855E260E070E082EB92
:1009300092E00E94600B1092ED017092EC01909297
:10094000EB018092EA0184E690E09093E9018093C4
:10095000E8011092E7011092E60184EF91E0909394
:10096000E5018093E4011092E3011092E20168E551
:1009700071E082EB92E00E94700966E372E0CE01C2
:1009800001960E943401CE0101960E94D602CE014A
:1009900001960E944C0164960FB6F894DEBF0FBE1C
:1009A000CDBFDF91CF911F910F91FF90EF90DF901E
:1009B000CF90BF90AF909F908F907F900895CF93EE
:1009C000C82F61E771E082EB92E00E94700991E02C
:1009D000C11101C090E09093730290938B029093A9
:1009E000A302C11105C01092ED01CF910C94C90270
:1009F000CF91089581E08093ED010E94DF040C9473
:100A0000C90280E890E090937702809376029093F9
:100A10008F0280938E0280E690E09093A7028093ED
:100A2000A60281E08093ED0108951F93CF93DF9399
:100A3000CDB7DEB764970FB6F894DEBF0FBECDBF5B
:100A40006CEA71E0CE010E960E94F80CBE01625F66
:100A50007F4F8EEE91E00E94B30D182FCE010E96BF
:100A60000E94870C112371F066E372E0CE010196BB
:100A70000E943401CE0101960E94D602CE01019659
:100A80000E944C0164EB71E0CE010E960E94F80CBE
:100A9000BE01625F7F4F8EEE91E00E94B30D182F72
:100AA000CE010E960E94870C112371F062E072E075
:100AB000CE0101960E943401CE0101960E94D60219
:100AC000CE0101960E944C0163E871E0CE010E96C2
:100AD0000E94F80CBE01625F7F4F8EEE91E00E9493
:100AE000B30D182FCE010E960E94870C112371F0C2
:100AF0006EEE71E0CE010E960E942C0DCE010E9688
:100B00000E942902CE010E960E94870C6DEB71E0C7
:100B1000CE010E960E94F80CBE01625F7F4F8EEEF2
:100B200091E00E94B30D182FCE010E960E94870C03
:100B3000112371F06DE572E0CE0101960E9434013F
:100B4000CE0101960E94D602CE0101960E944C0170
:100B50006EE471E0CE010E960E94F80CBE01625F59
:100B60007F4F8EEE91E00E94B30D182FCE010E96AE
:100B70000E94870C112371F060E572E0CE010196AE
:100B80000E943401CE0101960E94D602CE01019648
:100B90000E944C0162E571E0CE010E960E94F80CB5
:100BA000BE01625F7F4F8EEE91E00E94B30D182F61
:100BB000CE010E960E94870C112371F063E472E05F
:100BC000CE0101960E943401CE0101960E94D60208
:100BD000CE0101960E944C016CE871E0CE010E96A8
:100BE0000E94F80CBE01625F7F4F8EEE91E00E9482
:100BF000B30D182FCE010E960E94870C112371F0B1
:100C000066E372E0CE0101960E943401CE010196A6
:100C10000E94D602CE0101960E944C0167E871E065
:100C2000CE010E960E94F80CBE01625F7F4F8EEEE1
:100C300091E00E94B30D182FCE010E960E94870CF2
:100C4000112371F069E272E0CE0101960E94340135
:100C5000CE0101960E94D602CE0101960E944C015F
:100C600061E971E0CE010E960E94F80CBE01625F50
:100C70007F4F8EEE91E00E94B30D182FCE010E969D
:100C80000E94870C112371F06CE172E0CE01019695
:100C90000E943401CE0101960E94D602CE01019637
:100CA0000E944C0168E971E0CE010E960E94F80C9A
:100CB000BE01625F7F4F8EEE91E00E94B30D182F50
:100CC000CE010E960E94870C112371F06FE072E046
:100CD000CE0101960E943401CE0101960E94D602F7
:100CE000CE0101960E944C016FE971E0CE010E9693
:100CF0000E94F80CBE01625F7F4F8EEE91E00E9471
:100D0000B30D182FCE010E960E94870C112371F09F
:100D100065EF71E0CE0101960E943401CE0101968B
:100D20000E94D602CE0101960E944C0167EA71E052
:100D3000CE010E960E94F80CBE01625F7F4F8EEED0
:100D400091E00E94B30D182FCE010E960E94870CE1
:100D500011110E94FA046FEA71E0CE010E960E9412
:100D6000F80CBE01625F7F4F8EEE91E00E94B30DE2
:100D7000182FCE010E960E94870C11111092ED01D2
:100D800068EB71E0CE010E960E94F80CBE01625F26
:100D90007F4F8EEE91E00E94B30D182FCE010E967C
:100DA0000E94870C11110E94010563EC71E0CE01D5
:100DB0000E960E94F80CBE01625F7F4F8EEE91E0AE
:100DC0000E94B30D182FCE010E960E94870C1111B0
:100DD0000E94C9020E944F0164960FB6F894DEBFCC
:100DE0000FBECDBFDF91CF911F9108951F93CF9379
:100DF000DF93CDB7DEB727970FB6F894DEBF0FBEEF
:100E0000CDBF82EB92E00E944D0A1816190664F5D8
:100E100082EB92E00E947C0A182F682F8EEE91E000
:100E20000E947C0D612F82EB92E00E9453091D30DD
:100E300011F01B33C9F46AE082EB92E00E9453097F
:100E40006EEE71E0CE0101960E942C0DCE0101964E
:100E50000E941505CE0101960E94870C60E171E0A9
:100E60008EEE91E00E94360D27960FB6F894DEBF05
:100E70000FBECDBFDF91CF911F91089520917802D1
:100E8000309179024091900250919102240F351FC8
:100E90004091A8025091A902240F351F4091E4010E
:100EA0005091E501421753070CF081E00895CF926D
:100EB000DF92EF92FF928091ED01882309F477C0D1
:100EC0008091E2019091E3018F3F910569F164F116
:100ED0001092E3011092E20123E030E040E050E0A4
:100EE00060E070E0CB010E945C0C6B017C0122E0B1
:100EF00030E040E050E060E070E0CB010E945C0C2C
:100F000028E12C9DC0012D9D900D112486599D4FE7
:100F10009093EB018093EA0181E0611101C080E0D0
:100F20000E943E078093EC018091E6019091E701D9
:100F30002091E8013091E9018217930734F401967A
:100F40009093E7018093E60132C08091E201909195
:100F5000E30101969093E3018093E2011092E7018F
:100F60001092E6018091EC01882319F021E030E035
:100F700002C02FEF3FEFE091EA01F091EB0186858F
:100F80009785820F931F22853385281739070CF424
:100F900005C024853585821793071CF4378726877B
:100FA00002C09787868786859785918B808BFF9077
:100FB000EF90DF90CF9008950E94D4000E94F60633
:100FC0000C945707CF93DF93CAE6D2E060E171E05B
:100FD000CE0102960E94F80C689682E0C23BD807C8
:100FE000A9F78DE592E00E94CF0080E592E00E9493
:100FF000CF0083E492E00E94CF0086E392E00E945B
:10100000CF0089E292E00E94CF008CE192E00E9442
:10101000CF008FE092E00E94CF0082E092E00E9439
:10102000CF0085EF91E00E94CF0060E171E08EEE8D
:1010300091E0DF91CF910C94F80C0C9489001F93F0
:10104000CF93DF93182FEB0161E00E94AA0820974D
:1010500011F460E004C0CF3FD10539F461E0812F85
:10106000DF91CF911F910C94E208E12FF0E0E85955
:10107000FF4FE491E330B9F028F4E13051F0E23071
:10108000B1F50CC0E63019F1E73049F1E43079F5FB
:1010900014C084B5806884BDC7BD2EC084B580628D
:1010A00084BDC8BD29C08091800080688093800085
:1010B000D0938900C09388001FC080918000806217
:1010C00080938000D0938B00C0938A0015C08091DC
:1010D000B00080688093B000C093B3000DC08091D1
:1010E000B00080628093B000C093B40005C0C038E7
:1010F000D1050CF0B3CFADCFDF91CF911F91089503
:10110000833069F028F48130A1F0823011F514C0E9
:101110008630B1F08730C1F08430D9F404C08091BA
:1011200080008F7703C0809180008F7D8093800046
:10113000089584B58F7702C084B58F7D84BD0895EE
:101140008091B0008F7703C08091B0008F7D809335
:10115000B0000895CF93DF9390E0FC01E458FF4F77
:101160004491FC01E057FF4F8491882341F190E0C6
:10117000880F991FFC01E255FF4F25913491D90149
:101180008C559F4FFC0185919491C82FD92F9FB703
:10119000F8948C91611106C0409584238C938881CA
:1011A000842308C0623041F4242F209582238C933D
:1011B0008881842B888302C0842B8C939FBFDF910E
:1011C000CF9108950F931F93CF93DF931F92CDB7C5
:1011D000DEB7282F30E0F901E859FF4F8491F9017B
:1011E000E458FF4F1491F901E057FF4F0491002399
:1011F000D1F0882321F069830E9480086981E02F63
:10120000F0E0EE0FFF1FEC55FF4F85919491DC014C
:101210009FB7F8948C91611103C01095812301C090
:10122000812B8C939FBF0F90DF91CF911F910F91D6
:101230000895CF92DF92EF92FF920F931F93CF9377
:10124000DF936C01EB017A01E60EF71E00E010E07F
:101250000BC06991D601ED91FC910190F081E02DD8
:10126000C6010995080F191FCE15DF0591F7C801B2
:10127000DF91CF911F910F91FF90EF90DF90CF9072
:101280000895DB010D900020E9F7AD0141505109AF
:10129000461B570BDC01ED91FC910280F381E02DA0
:1012A00009940C944109DC01ED91FC910190F081CD
:1012B000E02D09940F931F93CF93DF93EC016DE022
:1012C0000E9453098C016AE0CE010E9453099C01DF
:1012D000200F311FC901DF91CF911F910F91089508
:1012E0000F931F93CF93DF93EC010E9441098C0170
:1012F000CE010E945A099801280F391FC901DF91B8
:10130000CF911F910F9108954F925F926F927F92AC
:101310009F92AF92BF92CF92DF92EF92FF920F9384
:101320001F93CF93DF93CDB7DEB7A1970FB6F89495
:10133000DEBF0FBECDBF5C016A017B01922E19A2F8
:1013400081E0821710F08AE0982E8E010F5D1F4F0A
:10135000492C512C612C712CC701B601A3019201BB
:101360000E94C90E8C2D929E8019112401501109E2
:101370008A3014F4805D01C0895CF80180836901C2
:101380007A01C114D104E104F10431F7B801C501B7
:101390000E944109A1960FB6F894DEBF0FBECDBFE3
:1013A000DF91CF911F910F91FF90EF90DF90CF9041
:1013B000BF90AF909F907F906F905F904F900895F7
:1013C000CF92DF92EF92FF920F931F93CF93DF9311
:1013D000EC016A017B012115310579F4E881F9817D
:1013E0000190F081E02D642FDF91CF911F910F913B
:1013F000FF90EF90DF90CF9009942A30310519F4D7
:1014000077FD0EC02AE0B701A601CE01DF91CF9192
:101410001F910F91FF90EF90DF90CF900C94840973
:101420006DE20E9453098C0144275527BA014C19DB
:101430005D096E097F092AE0CE010E948409080F28
:10144000191FC801DF91CF911F910F91FF90EF906D
:10145000DF90CF9008959A01AB01662757FD609504
:10146000762F0C94E0090F931F93CF93DF93EC0139
:101470009A01AB01662757FD6095762F0E94E0091F
:101480008C01CE010E945A099801280F391FC90109
:10149000DF91CF911F910F910895FC01848595856F
:1014A000FC01E05CFF4F20813181FC01EE5BFF4FCE
:1014B00080819181281B390B2F733327C90108952F
:1014C000FC0184859585FC01E05CFF4F40815181E2
:1014D000FC01EE5BFF4F208131814217530741F041
:1014E0000190F081E02DE80FF91F208130E002C06B
:1014F0002FEF3FEFC9010895FC0184859585FC011C
:10150000E05CFF4F40815181FC01EE5BFF4F208189
:1015100031814217530781F0A081B181A80FB91F13
:101520008C91208131812F5F3F4F2F73332731837F
:101530002083282F30E002C02FEF3FEFC90108952C
:10154000FC0186859785FC01E05CFF4FDC01AE5B0A
:10155000BF4F408151812D913C9111974217530704
:10156000C1F70895CF93DF93FC0186859785DC0151
:10157000A05CBF4F2D913C9111972F5F3F4F2F7370
:101580003327EC01CE5BDF4F4881598124173507A3
:10159000D9F30D90BC91A02DA80FB91F6C93A6850F
:1015A000B785A05CBF4F11963C932E93A689B7894F
:1015B0002C9181E090E0058C02C0880F991F0A945D
:1015C000E2F7282B2C9381E090E0DF91CF910895F2
:1015D00008951F920F920FB60F9211242F933F93ED
:1015E0004F938F939F93EF93FF934091C600809109
:1015F00055039091560301968F73992720915703B5
:10160000309158038217930759F0E0915503F091F8
:101610005603EB5EFC4F4083909356038093550333
:10162000FF91EF919F918F914F913F912F910F904B
:101630000FBE0F901F90189582EB92E00E944D0A0A
:10164000892B11F00C94E80A08951F920F920FB69F
:101650000F9211242F933F938F939F93EF93FF93B8
:101660002091110330911203809113039091140380
:101670002817390731F48091C1008F7D8093C10014
:1016800014C0E0911303F0911403EF52FD4F208139
:10169000809113039091140301968F73992790936F
:1016A0001403809313032093C600FF91EF919F9141
:1016B0008F913F912F910F900FBE0F901F90189513
:1016C000CF92DF92EF92FF92CF93DF93EC016A010A
:1016D0007B01411581EE580761057105F9F0EC8930
:1016E000FD8981E090E00E8C02C0880F991F0A945A
:1016F000E2F7808360E079E08DE390E0A701960156
:101700000E94C90E2150310941095109569547954A
:1017100037952795211580E1380798F0EC89FD89E8
:10172000108260E874E88EE190E0A70196010E94C3
:10173000C90E2150310941095109569547953795F0
:101740002795E889F9893083EA89FB892083EE8926
:10175000FF89408181E090E09C010A8C02C0220F49
:10176000331F0A94E2F7422B4083EE89FF894081C0
:101770009C010B8C02C0220F331F0A94E2F7422B0C
:101780004083EE89FF8940819C010C8C02C0220FAE
:10179000331F0A94E2F7422B4083EE89FF892081B0
:1017A0000D8C02C0880F991F0A94E2F7809582235E
:1017B0008083DF91CF91FF90EF90DF90CF900895DD
:1017C0001092B5021092B40288EE93E0A0E0B0E06F
:1017D0008093B6029093B702A093B802B093B90277
:1017E00086ED91E09093B3028093B20285E193E09D
:1017F0009093BF028093BE0281ED92E09093C1026C
:101800008093C00285EC90E09093C3028093C20263
:1018100084EC90E09093C5028093C40280EC90E049
:101820009093C7028093C60281EC90E09093C90226
:101830008093C80286EC90E09093CB028093CA021A
:1018400084E08093CC0283E08093CD0287E0809394
:10185000CE0285E08093CF0281E08093D00208958C
:101860000F931F93CF93DF9300D000D0CDB7DEB797
:101870009B01AC01611571058105910579F06983C2
:101880003A834B835C830E94AB1029813A814B8160
:101890005C810E94EB0E8B019C0103C000E010E014
:1018A0009801B801C9010F900F900F900F90DF9130
:1018B000CF911F910F910895CF92DF92EF92FF92F7
:1018C0006B017C01621773078407950764F4CA01F2
:1018D000B9016C197D098E099F090E94300CC60E52
:1018E000D71EE81EF91EB601C701FF90EF90DF90EA
:1018F000CF9008950E948E0E0E946A03CCE1DBE037
:101900000E94DC072097E1F30E941C0BF9CFFC0139
:10191000808191810C94BF0FCF93DF93EC0188817C
:101920009981009711F00E94BF0F198218821D82C1
:101930001C821B821A82DF91CF9108950F931F930F
:10194000CF93DF93EC018B016F5F7F4F888199818B
:101950000E94B910009731F0998388831B830A8312
:1019600081E001C080E0DF91CF911F910F91089538
:10197000CF93DF93EC0188819981892B31F08A81A3
:101980009B818617970708F00CC0CE010E949E0C21
:10199000882349F08C819D81892B19F4E881F98194
:1019A000108281E001C080E0DF91CF910895EF9235
:1019B000FF920F931F93CF93DF93EC017B018A017A
:1019C000BA010E94B80C811104C0CE010E948C0C97
:1019D00007C01D830C83B701888199810E94A811DB
:1019E000CE01DF91CF911F910F91FF90EF9008955D
:1019F000DC0111961C921E9213961C921E92129755
:101A000015961C921E92149716961C9261157105DC
:101A100059F0DB010D900020E9F7AD01415051096B
:101A2000461B570B0C94D70C0895CF93DF93EC0112
:101A3000FB018617970761F060817181611571055F
:101A400029F0448155810E94D70C02C00E948C0C61
:101A5000CE01DF91CF910895FC0111821082138293
:101A600012821582148216820C94150DCF93DF9387
:101A7000D82FC92F6115710561F0DB010D90002091
:101A8000E9F7AD0141505109461B570B0E94D70C95
:101A900002C00E948C0C8D2F9C2FDF91CF91089556
:101AA000EF92FF920F931F93CF93DF93EC017B0193
:101AB0000C811D816115710511F480E016C041157E
:101AC000510591F0040F151FB8010E94B80C88232E
:101AD000A1F3288139818C819D81B701820F931FE9
:101AE0000E94A8111D830C8381E0DF91CF911F918B
:101AF0000F91FF90EF900895CF93DF9300D0CDB773
:101B0000DEB769831A8241E050E0BE016F5F7F4F0C
:101B10000E94500D0F900F90DF91CF910895FA0120
:101B2000DB0114964D915C911597DC0114962D9173
:101B30003C911597241B350B2E173F0790F08D9184
:101B40009C91009771F0DB016D917C91611571059D
:101B500041F08E0F9F1F0E94AF119C0181E0232B4B
:101B600009F080E00895FC0144815581FB01248146
:101B700035814217530720F040E050E00C948F0D60
:101B800080E00895FC01248135816217730748F4D1
:101B900080819181009729F0FC01E60FF71F808179
:101BA000089580E008950C94C20D0F931F93CF9376
:101BB000DF93EB0141155105E9F02097D9F0FC01C5
:101BC000048115812017310708F013C041505109D5
:101BD000021B130B4017510708F48A01FC016081B6
:101BE0007181620F731FA801CE010E94BD11C00F49
:101BF000D11F1882DF91CF911F910F910895BF924D
:101C0000CF92DF92EF92FF920F931F93CF93DF93C8
:101C10006C017B01EA0189012417350720F48D2F1F
:101C2000E901042F182F60E171E0C6010E94F80C51
:101C3000D70114968D919C9115978C179D07C8F02C
:101C40008017910708F48C01D701ED91FC91119751
:101C5000E00FF11FB08010826D917C916C0F7D1FA1
:101C6000C6010E94360DD701ED91FC91E00FF11FE6
:101C7000B082C601DF91CF911F910F91FF90EF903D
:101C8000DF90CF90BF9008951F920F920FB60F92E2
:101C900011242F933F938F939F93AF93BF93809182
:101CA000590390915A03A0915B03B0915C0330916A
:101CB0006103232F2D5F2D3720F40196A11DB11D47
:101CC00005C0232F2A570296A11DB11D2093610341
:101CD0008093590390935A03A0935B03B0935C03E2
:101CE00080915D0390915E03A0915F03B0916003CA
:101CF0000196A11DB11D80935D0390935E03A09397
:101D00005F03B0936003BF91AF919F918F913F911B
:101D10002F910F900FBE0F901F901895789484B557
:101D2000826084BD84B5816084BD85B5826085BDD7
:101D300085B5816085BDEEE6F0E0808181608083BD
:101D4000E1E8F0E0108280818260808380818160A0
:101D50008083E0E8F0E0808181608083E1EBF0E067
:101D6000808184608083E0EBF0E08081816080830B
:101D7000EAE7F0E0808184608083808182608083F4
:101D80008081816080838081806880831092C1001F
:101D90000895A1E21A2EAA1BBB1BFD010DC0AA1FAC
:101DA000BB1FEE1FFF1FA217B307E407F50720F0C4
:101DB000A21BB30BE40BF50B661F771F881F991F3F
:101DC0001A9469F760957095809590959B01AC0188
:101DD000BD01CF010895052E97FB16F4009407D09E
:101DE00057FD0DD00E94C90E07FC09D07EF49095D6
:101DF0008095709561957F4F8F4F9F4F08955095B7
:101E00004095309521953F4F4F4F5F4F08950E9469
:101E1000180FA59F900DB49F900DA49F800D911D4C
:101E200011240895EE0FFF1F0590F491E02D099401
:101E3000A29FB001B39FC001A39F01D0B29F700DBC
:101E4000811D1124911D08950F931F93CF93DF934C
:101E50008230910510F482E090E0E0916403F0910B
:101E6000650320E030E0C0E0D0E023C04081518134
:101E700048175907A8F04817590761F482819381E0
:101E8000209719F09B838A832EC0909365038093DB
:101E9000640329C02115310529F04217530710F0BA
:101EA000A90102C0BE01DF0102811381EF019A0185
:101EB000F8013097D9F62115310509F1281B390BA6
:101EC0002430310590F412968D919C9113976115F1
:101ED000710521F0FB019383828304C09093650315
:101EE00080936403FD01329644C0FD01E20FF31FAD
:101EF00081939193225031092D933C933AC02091C4
:101F0000620330916303232B41F42091020130914D
:101F10000301309363032093620320910001309109
:101F200001012115310541F42DB73EB7409104015F
:101F300050910501241B350BE0916203F09163037E
:101F4000E217F307A0F42E1B3F0B2817390778F090
:101F5000AC014E5F5F4F2417350748F04E0F5F1FEF
:101F600050936303409362038193919302C0E0E036
:101F7000F0E0CF01DF91CF911F910F910895EF9283
:101F8000FF920F931F93CF93DF93009709F48EC0B6
:101F9000DC01129713961C921E921297E090640334
:101FA000F0906503E114F10489F42D913C911197AF
:101FB000280F391F80916203909163038217930762
:101FC00089F5B0936303A093620370C0E70120E03A
:101FD00030E001C0EA01CA17DB0738F44A815B81AF
:101FE0009E0141155105B1F722C0AC014250510983
:101FF000FA01D383C28300811181BC01600F711F7C
:102000006C177D0761F468817981600F711F6E5FC5
:102010007F4F718360836A817B8173836283211523
:10202000310529F4B0936503A09364033FC0F9011F
:10203000B383A283E90149915991C40FD51FAC170D
:10204000BD0771F4DC019E918E91840F951F02965D
:102050009183808312968D919C91139793838283B1
:10206000A0E0B0E002C0D7017C01F701828193813A
:102070000097C9F7C701029620813181820F931F13
:1020800020916203309163032817390779F4109780
:1020900029F4109265031092640304C013961C92F5
:1020A0001E921297F0926303E0926203CDB7DEB7FF
:1020B000E6E00C9404128F929F92AF92BF92CF925F
:1020C000DF92EF92FF92CF93DF93EC0168817981E9
:1020D0008A819B81611571058105910521F464E276
:1020E00079ED8BE597E02DE133EF41E050E00E9480
:1020F000EB0E49015A019B01AC01A7EAB1E40E9431
:10210000070F6B017C01ACEEB4EFA50194010E94B6
:10211000D711C60ED71EE81EF91EF7FE06C081E0D5
:10212000C81AD108E10880E8F80AC882D982EA8290
:10213000FB82E894F7F8B601C701DF91CF91FF90D9
:10214000EF90DF90CF90BF90AF909F908F900895C9
:102150000E945B10089586E091E00E945B10089554
:102160006093060170930701809308019093090121
:102170000895A0E0B0E0EFEBF0E10C94E211EC0187
:10218000009729F4CB010E94240FEC01B4C0DC01BC
:10219000A60FB71FFC013297AE17BF0718F4C0E0B7
:1021A000D0E0A9C00081118106171707B0F00530F3
:1021B000110508F4A0C0C80104978617970708F412
:1021C0009AC002501109061B170B0D931D937183C2
:1021D0006083CD010E94BF0F8EC06B01C01AD10A6F
:1021E0007C01E00EF11EE0916403F091650320E0B4
:1021F00030E080E090E048C0EE15FF05D1F580802A
:102200009180540142E0A40EB11CAC14BD0488F1CD
:102210007401EC18FD08670122E0C20ED11C9E017A
:102220002250310945E0C416D10478F0428153812F
:1022300013965C934E9312971196FC92EE92F901CD
:10224000718360833A2F2B2F09C00E5F1F4F080D3B
:10225000191DD9010D931C9332812381009721F020
:10226000FC013283238347C03093640320936503CA
:1022700042C0808191812817390708F49C0152815E
:102280004381CF01E52FF42F309709F0B5CF80912E
:102290006203909163038E159F05F1F426173707AB
:1022A000D8F48091000190910101009741F48DB71D
:1022B0009EB72091040130910501821B930BA81752
:1022C000B90708F06CCFB0936303A0936203FE01DB
:1022D0003297718360830FC0CB010E94240F7C0171
:1022E000009709F45CCFA801BE010E949F11CE01A6
:1022F0000E94BF0FE701CE01CDB7DEB7ECE00C9432
:10230000FE11FC0188279927E89421912032E9F3F6
:10231000293010F02E30C8F32B3241F02D3239F431
:10232000689404C00E94CC11820F911D219120530A
:102330002A30C0F31EF4909581959F4F0895FB01BC
:10234000DC0102C001900D9241505040D8F7089531
:10235000FB01DC0101900D920020E1F70895FB01E3
:10236000DC014150504030F08D910190801919F4FA
:102370000020B9F7881B990B0895FB01DC0141503F
:10238000504048F001900D920020C9F701C01D9205
:1023900041505040E0F708957AE0979F902D879F35
:1023A000802D910D11240895B7FF0C94070F0E9402
:1023B000070F821B930B08952F923F924F925F92CB
:1023C0006F927F928F929F92AF92BF92CF92DF9245
:1023D000EF92FF920F931F93CF93DF93CDB7DEB7AA
:1023E000CA1BDB0B0FB6F894DEBF0FBECDBF09943E
:1023F0002A88398848885F846E847D848C849B8495
:10240000AA84B984C884DF80EE80FD800C811B81A2
:10241000AA81B981CE0FD11D0FB6F894DEBF0FBED1
:10242000CDBFED01089510E0CCEBD0E004C0FE017B
:102430000E94140F2296CE3BD107C9F7F894FFCF24
:10244000000066032000010000004C4544202320CA
:10245000002C2076616C75653A20002C2073746125
:1024600074653A20004368616E676564204C45449A
:102470002023002C2077697468206D6F646520002C
:102480002C20616E64207374617475732000524552
:102490004400475245454E00496C6C756D696E614C
:1024A000747269782067726565747320796F752E10
:1024B000004C4544207374617465206368616E67E5
:1024C000656400534554004C49474854424C5545B7
:1024D0000059454C4C4F5700505552504C450053F5
:1024E00054414E444259004359434C454F4E0043DA
:1024F00059434C454F4646004359434C455748497C
:102500005445005245534554434F4C4F524D494E4C
:10251000530000000000B20A19094D0A7C0A600A43
:02252000A00A0F
:00000001FF
