:100000000C945F000C9487000C9487000C9487007C
:100010000C9487000C9487000C9487000C94870044
:100020000C9487000C9487000C9487000C94870034
:100030000C9487000C9487000C9487000C94870024
:100040000C94780D0C9487000C941D0A0C94590A9A
:100050000C9487000C9487000C9487000C94870004
:100060000C9487000C948700000000070002010038
:100070000003040600000000000000000102040864
:100080001020408001020408102001020408102002
:10009000040404040404040402020202020203032E
:1000A0000303030300000000250028002B000000CC
:1000B0000000240027002A001E07140B51071124FA
:1000C0001FBECFEFD4E0DEBFCDBF11E0A0E0B1E0B6
:1000D000E8EAF2E202C005900D92AE3DB107D9F711
:1000E00013E0AEEDB1E001C01D92A033B107E1F71E
:1000F00010E0CCEBD0E004C02297FE010E94480E35
:10010000C83BD107C9F70E94AE0B0C9447110C9461
:1001100000008AEE91E00E94BB0B87EF91E00E9405
:10012000BB0B84E092E00E94BB0B81E192E00E9455
:10013000BB0B8EE192E00E94BB0B8BE292E00E942F
:10014000BB0B88E392E00E94BB0B85E492E00E9427
:10015000BB0B8EE692E00E94BB0B8EE592E00E9404
:10016000BB0B8EE492E00C94BB0BFC018285938563
:10017000861797070CF405C084859585681779075D
:100180001CF497878687089577876687089568E3C4
:1001900071E006960C942C0CBF92CF92DF92EF92F6
:1001A000FF920F931F93CF93DF93CDB7DEB72797BF
:1001B0000FB6F894DEBF0FBECDBF0FEF10E0109367
:1001C000400200933F02109342020093410280E3F9
:1001D00090E0909344028093430210933302009383
:1001E00032021092350210923402109237021092AD
:1001F00036021092260210922502109328020093D4
:10020000270210922A0210922902109219021092CB
:10021000180210921B0210921A0210931D020093F2
:100220001C0210930C0200930B0210930E02009319
:100230000D021092100210920F021093FF01009312
:10024000FE0110920102109200021093030200932B
:10025000020280E190E09093F2018093F10110920C
:10026000F4011092F3011092F6011092F5016AE088
:1002700071E0CE0101960E942C0C8CE4E82E82E005
:10028000F82EBB24B394F701B18683E090E091830C
:1002900080831093570200935602109259021092D5
:1002A000580210925B0210925A02BE016F5F7F4F9C
:1002B0008EE492E00E94490CCE0101960E94BB0B95
:1002C0006EE071E0CE0101960E942C0CF701B18E18
:1002D0009CE5C92E92E0D92E85E090E0F60191834D
:1002E0008083109367020093660210926902109255
:1002F000680210926B0210926A02BE016F5F7F4F1C
:100300008EE592E00E94490CCE0101960E94BB0B43
:1003100064E171E0CE0101960E942C0CF701B1A6B8
:1003200086E090E090936D0280936C0210937702C8
:1003300000937602109279021092780284EB90E09A
:1003400090937B0280937A02BE016F5F7F4F8EE6AF
:1003500092E00E94490CCE0101960E94BB0B40E83E
:1003600055E260E070E08CE792E00E94940A1092FF
:10037000E901B092E801D092E701C092E60184E67B
:1003800090E09093E5018093E4011092E3011092D4
:10039000E20184EF91E09093E1018093E0011092FB
:1003A000DF011092DE0169E171E08CE792E00E94CA
:1003B000A40827960FB6F894DEBF0FBECDBFDF911D
:1003C000CF911F910F91FF90EF90DF90CF90BF9052
:1003D00008950F931F93CF93DF9305E512E0C0E0DC
:1003E000D0E062E371E08CE792E00E9485084AE089
:1003F00050E0BE018CE792E00E945F0969E371E082
:100400008CE792E00E948508FE0124E0EE0FFF1FBA
:100410002A95E1F7E45BFD4F668577854AE050E079
:100420008CE792E00E945F0963E471E08CE792E060
:100430000E948508F80160814AE050E070E08CE796
:1004400092E00E9467092196005F1F4FC330D105DB
:1004500041F6DF91CF911F910F910895FC018185A5
:10046000882319F06685778502C06485758580814B
:100470000C945307EF92FF920F931F93CF93DF9348
:10048000CDB7DEB760970FB6F894DEBF0FBECDBF15
:10049000E12CF12C870134E0000F111F3A95E1F7B0
:1004A000045B1D4FF80181919191BF019A8389836B
:1004B000CE0103960E94600CF80181858A878285AF
:1004C00093859C878B87848595859E878D87868578
:1004D0009785988B8F87CE0101960E942E02CE01C0
:1004E00003960E94BB0BFFEFEF1AFF0A83E0E816AA
:1004F000F10481F660960FB6F894DEBF0FBECDBF53
:10050000DF91CF911F910F91FF90EF9008956F921F
:100510007F928F929F92AF92BF92CF92DF92EF9293
:10052000FF920F931F93CF93DF93CDB7DEB7299739
:100530000FB6F894DEBF0FBECDBF7C013B01ADB658
:10054000BEB6C12CD12C812C912C00E010E014C03F
:100550000F5F1F4FB601C7010E94070D803249F49B
:100560008FEF881A980A861497041CF0F701C4804C
:10057000D580FFEFCF1ADF0AF70184819581C81675
:10058000D90630F39801680113C0B601C701288766
:1005900039870E94070D28853985803221F4F701BB
:1005A000C480D58002C00F5F1F4FFFEFCF1ADF0A54
:1005B000F70184809580C814D90438F38DB79EB7AD
:1005C000881999090FB6F8949EBF0FBE8DBFCDB69E
:1005D000DEB6EFEFCE1ADE0AA801B701CE01019612
:1005E0000E94330D20E030E0A401B601CE01019657
:1005F0000E94090DCE0101960E94BB0BC6010FB6E9
:10060000F894BEBE0FBEADBE29960FB6F894DEBFFD
:100610000FBECDBFDF91CF911F910F91FF90EF9053
:10062000DF90CF90BF90AF909F908F907F906F9012
:100630000895CF92DF92EF92FF920F931F93CF9383
:10064000DF93CDB7DEB727970FB6F894DEBF0FBEA6
:10065000CDBF8C01BC01CE0101960E94600C62E00E
:1006600070E0CE0101960E9487020E94B5107C01C5
:10067000CE0101960E94BB0BB801CE0101960E94EB
:10068000600C61E070E0CE0101960E9487020E943A
:10069000B5106C01CE0101960E94BB0BB801CE01D2
:1006A00001960E94600C63E070E0CE0101960E940A
:1006B00087020E94B5108C01CE0101960E94BB0BEF
:1006C000F60144E0EE0FFF1F4A95E1F7E45BFD4FB2
:1006D000101611061CF481E0818701C01186B70154
:1006E000CF010E94B5006DE471E08CE792E00E94BA
:1006F00085084AE050E0B6018CE792E00E945F096D
:100700006BE571E08CE792E00E9485084AE050E0DA
:10071000B7018CE792E00E945F0968E671E08CE720
:1007200092E00E9485084AE050E0B8018CE792E030
:100730000E94670927960FB6F894DEBF0FBECDBFA3
:10074000DF91CF911F910F91FF90EF90DF90CF90AD
:100750000895FB0120813181DC0111963C932E9399
:100760002281338113963C932E93129724813581F5
:1007700015963C932E9314976A5F7F4F06960C94C0
:10078000600C06960C94BB0B109259021092580202
:100790001092690210926802109279021092780207
:1007A00008958F929F92AF92BF92CF92DF92EF9275
:1007B000FF920F931F93CF93DF93CDB7DEB72797A9
:1007C0000FB6F894DEBF0FBECDBF6C011092E901E9
:1007D0000E94C403E12CF12C99249394870154E0E6
:1007E000000F111F5A95E1F7045B1D4F6AE071E09D
:1007F000CE0101960E942C0C580182E0A80EB11C7B
:10080000BE016F5F7F4FC5010E94E70C882ECE01AD
:1008100001960E94BB0B882031F0F6016081718146
:10082000C8010E94B5006EE071E0CE0101960E9401
:100830002C0CBE016F5F7F4FC5010E94E70C882E14
:10084000CE0101960E94BB0B882031F0F601628137
:100850007381C8010E94B50064E171E0CE01019688
:100860000E942C0CBE016F5F7F4FC5010E94E70CF8
:10087000B82ECE0101960E94BB0BBB2031F0F601D1
:1008800064817581C8010E94B500F8019186FFEF6F
:10089000EF1AFF0A83E0E816F10409F09FCF2796CC
:1008A0000FB6F894DEBF0FBECDBFDF91CF911F9181
:1008B0000F91FF90EF90DF90CF90BF90AF909F90FF
:1008C0008F900895CF93C82F66E771E08CE792E090
:1008D0000E94A40891E0C11101C090E090935502DC
:1008E0009093650290937502C11105C01092E901C1
:1008F000CF910C94C403CF91089581E08093E901D6
:100900000C94620480E890E090935902809358021E
:10091000909369028093680280E690E09093790258
:100920008093780281E08093E90108951F93CF932B
:10093000DF93CDB7DEB764970FB6F894DEBF0FBE76
:10094000CDBF67EA71E0CE010E960E942C0CBE016D
:10095000625F7F4F8AEE91E00E94E70C182FCE0174
:100960000E960E94BB0B112319F081E00E946204D5
:100970006FEA71E0CE010E960E942C0CBE01625F00
:100980007F4F8AEE91E00E94E70C182FCE010E9661
:100990000E94BB0B112319F080E00E94620468E8FA
:1009A00071E0CE010E960E942C0CBE01625F7F4F5B
:1009B0008AEE91E00E94E70C182FCE010E960E945D
:1009C000BB0B112371F06AEE71E0CE010E960E940E
:1009D000600CCE010E960E941903CE010E960E9465
:1009E000BB0B68EB71E0CE010E960E942C0CBE0191
:1009F000625F7F4F8AEE91E00E94E70C182FCE01D4
:100A00000E960E94BB0B112371F06FE372E0CE01D2
:100A100001960E94A903CE0101960E94D103CE0146
:100A200001960E94C1036AE071E0CE010E960E9419
:100A30002C0CBE01625F7F4F8AEE91E00E94E70CB2
:100A4000182FCE010E960E94BB0B112371F062E3AA
:100A500072E0CE0101960E94A903CE0101960E9488
:100A6000D103CE0101960E94C1036EE071E0CE0178
:100A70000E960E942C0CBE01625F7F4F8AEE91E0C1
:100A80000E94E70C182FCE010E960E94BB0B11237B
:100A900071F065E272E0CE0101960E94A903CE01D9
:100AA00001960E94D103CE0101960E94C10364E128
:100AB00071E0CE010E960E942C0CBE01625F7F4F4A
:100AC0008AEE91E00E94E70C182FCE010E960E944C
:100AD000BB0B112371F068E172E0CE0101960E9418
:100AE000A903CE0101960E94D103CE0101960E9476
:100AF000C1036CE871E0CE010E960E942C0CBE0181
:100B0000625F7F4F8AEE91E00E94E70C182FCE01C2
:100B10000E960E94BB0B112371F06BE072E0CE01C8
:100B200001960E94A903CE0101960E94D103CE0135
:100B300001960E94C10363E971E0CE010E960E9406
:100B40002C0CBE01625F7F4F8AEE91E00E94E70CA1
:100B5000182FCE010E960E94BB0B112371F06EEF81
:100B600071E0CE0101960E94A903CE0101960E9478
:100B7000D103CE0101960E94C1036AE971E0CE0162
:100B80000E960E942C0CBE01625F7F4F8AEE91E0B0
:100B90000E94E70C182FCE010E960E94BB0B11236A
:100BA00071F061EF71E0CE0101960E94A903CE01C0
:100BB00001960E94D103CE0101960E94C10362EA10
:100BC00071E0CE010E960E942C0CBE01625F7F4F39
:100BD0008AEE91E00E94E70C182FCE010E960E943B
:100BE000BB0B11110E947D046AEA71E0CE010E96E2
:100BF0000E942C0CBE01625F7F4F8AEE91E00E9442
:100C0000E70C182FCE010E960E94BB0B111110920B
:100C1000E90163EB71E0CE010E960E942C0CBE013F
:100C2000625F7F4F8AEE91E00E94E70C182FCE01A1
:100C30000E960E94BB0B11110E9482046EEB71E0B4
:100C4000CE010E960E942C0CBE01625F7F4F8AEE91
:100C500091E00E94E70C182FCE010E960E94BB0B6C
:100C600011110E94C4030E94E90164960FB6F89422
:100C7000DEBF0FBECDBFDF91CF911F9108951F93AF
:100C8000CF93DF93CDB7DEB727970FB6F894DEBFCB
:100C90000FBECDBF8CE792E00E948109181619069D
:100CA00064F58CE792E00E94B009182F682F8AEE55
:100CB00091E00E94B00C612F8CE792E00E948708BF
:100CC0001D3011F01B33C9F46AE08CE792E00E94FA
:100CD00087086AEE71E0CE0101960E94600CCE0199
:100CE00001960E949604CE0101960E94BB0B68E318
:100CF00071E08AEE91E00E946A0C27960FB6F89494
:100D0000DEBF0FBECDBFDF91CF911F91089520911F
:100D10005A0230915B0240916A0250916B02240F9B
:100D2000351F40917A0250917B02240F351F40916C
:100D3000E0015091E101421753070CF081E0089562
:100D4000CF92DF92EF92FF928091E901882309F41C
:100D50006AC08091DE019091DF018F3F910569F1BA
:100D600064F11092DF011092DE0123E030E040E0F8
:100D700050E060E070E0CB010E94900B6B017C01C1
:100D800022E030E040E050E060E070E0CB010E9403
:100D9000900BC60174E0880F991F7A95E1F7845B88
:100DA0009D4F9093E7018093E60181E0611101C0BE
:100DB00080E00E9487068093E8018091E201909193
:100DC000E3012091E4013091E5018217930734F4A7
:100DD00001969093E3018093E20125C08091DE01AA
:100DE0009091DF0101969093DF018093DE011092D4
:100DF000E3011092E2018091E801882319F021E0DB
:100E000030E002C02FEF3FEF8091E6019091E701C3
:100E1000FC0166857785620F731FFF90EF90DF906E
:100E2000CF900C94B500FF90EF90DF90CF90089595
:100E30000E943A020E943F060C94A006CF93DF93D3
:100E4000CCE4D2E068E371E0CE0102960E942C0C63
:100E5000609682E0CC37D807A9F78FE392E00E9432
:100E6000C70082E392E00E94C70085E292E00E9400
:100E7000C70088E192E00E94C7008BE092E00E94E8
:100E8000C7008EEF91E00E94C70081EF91E00E94C1
:100E9000C70068E371E08AEE91E0DF91CF910C9496
:100EA0002C0C0C9489001F93CF93DF93182FEB0128
:100EB00061E00E94DE07209711F460E004C0CF3F9C
:100EC000D10539F461E0812FDF91CF911F910C940E
:100ED0001608E12FF0E0E859FF4FE491E330B9F054
:100EE00028F4E13051F0E230B1F50CC0E63019F1F0
:100EF000E73049F1E43079F514C084B5806884BDE9
:100F0000C7BD2EC084B5806284BDC8BD29C0809194
:100F10008000806880938000D0938900C09388000F
:100F20001FC080918000806280938000D0938B00EE
:100F3000C0938A0015C08091B00080688093B00093
:100F4000C093B3000DC08091B00080628093B00068
:100F5000C093B40005C0C038D1050CF0B3CFADCFFD
:100F6000DF91CF911F910895833069F028F481308B
:100F7000A1F0823011F514C08630B1F08730C1F095
:100F80008430D9F404C0809180008F7703C08091B1
:100F900080008F7D80938000089584B58F7702C094
:100FA00084B58F7D84BD08958091B0008F7703C094
:100FB0008091B0008F7D8093B0000895CF93DF9330
:100FC00090E0FC01E458FF4F4491FC01E057FF4FD3
:100FD0008491882341F190E0880F991FFC01E2552C
:100FE000FF4F25913491D9018C559F4FFC0185917C
:100FF0009491C82FD92F9FB7F8948C91611106C096
:10100000409584238C938881842308C0623041F406
:10101000242F209582238C938881842B888302C07F
:10102000842B8C939FBFDF91CF9108950F931F93D3
:10103000CF93DF931F92CDB7DEB7282F30E0F901B1
:10104000E859FF4F8491F901E458FF4F1491F901D9
:10105000E057FF4F04910023D1F0882321F06983EA
:101060000E94B4076981E02FF0E0EE0FFF1FEC55FE
:10107000FF4F85919491DC019FB7F8948C91611199
:1010800003C01095812301C0812B8C939FBF0F90CB
:10109000DF91CF911F910F910895CF92DF92EF9240
:1010A000FF920F931F93CF93DF936C01EB017A01B3
:1010B000E60EF71E00E010E00BC06991D601ED913D
:1010C000FC910190F081E02DC6010995080F191FD0
:1010D000CE15DF0591F7C801DF91CF911F910F91D8
:1010E000FF90EF90DF90CF900895DB010D900020EE
:1010F000E9F7AD0141505109461B570BDC01ED9159
:10110000FC910280F381E02D09940C947508DC01B8
:10111000ED91FC910190F081E02D09940F931F93C4
:10112000CF93DF93EC016DE00E9487088C016AE0A9
:10113000CE010E9487089C01200F311FC901DF9159
:10114000CF911F910F9108950F931F93CF93DF932A
:10115000EC010E9475088C01CE010E948E08980156
:10116000280F391FC901DF91CF911F910F91089569
:101170004F925F926F927F929F92AF92BF92CF9267
:10118000DF92EF92FF920F931F93CF93DF93CDB730
:10119000DEB7A1970FB6F894DEBF0FBECDBF5C01DE
:1011A0006A017B01922E19A281E0821710F08AE079
:1011B000982E8E010F5D1F4F492C512C612C712CE4
:1011C000C701B601A30192010E94FD0D8C2D929ED4
:1011D00080191124015011098A3014F4805D01C076
:1011E000895CF801808369017A01C114D104E104AA
:1011F000F10431F7B801C5010E947508A1960FB638
:10120000F894DEBF0FBECDBFDF91CF911F910F913C
:10121000FF90EF90DF90CF90BF90AF909F907F9026
:101220006F905F904F900895CF92DF92EF92FF9270
:101230000F931F93CF93DF93EC016A017B0121157C
:10124000310579F4E881F9810190F081E02D642F76
:10125000DF91CF911F910F91FF90EF90DF90CF9092
:1012600009942A30310519F477FD0EC02AE0B70140
:10127000A601CE01DF91CF911F910F91FF90EF90CA
:10128000DF90CF900C94B8086DE20E9487088C0123
:1012900044275527BA014C195D096E097F092AE0D8
:1012A000CE010E94B808080F191FC801DF91CF9125
:1012B0001F910F91FF90EF90DF90CF9008959A01CA
:1012C000AB01662757FD6095762F0C9414090F9398
:1012D0001F93CF93DF93EC019A01AB01662757FD73
:1012E0006095762F0E9414098C01CE010E948E0811
:1012F0009801280F391FC901DF91CF911F910F91DC
:101300000895FC0184859585FC01E05CFF4F2081F8
:101310003181FC01EE5BFF4F80819181281B390BED
:101320002F733327C9010895FC0184859585FC013D
:10133000E05CFF4F40815181FC01EE5BFF4F20815B
:1013400031814217530741F00190F081E02DE80F01
:10135000F91F208130E002C02FEF3FEFC90108954F
:10136000FC0184859585FC01E05CFF4F4081518143
:10137000FC01EE5BFF4F208131814217530781F062
:10138000A081B181A80FB91F8C91208131812F5F7D
:101390003F4F2F73332731832083282F30E002C043
:1013A0002FEF3FEFC9010895FC0186859785FC0169
:1013B000E05CFF4FDC01AE5BBF4F408151812D915E
:1013C0003C91119742175307C1F70895CF93DF93CC
:1013D000FC0186859785DC01A05CBF4F2D913C9177
:1013E00011972F5F3F4F2F733327EC01CE5BDF4FF9
:1013F0004881598124173507D9F30D90BC91A02D50
:10140000A80FB91F6C93A685B785A05CBF4F119636
:101410003C932E93A689B7892C9181E090E0058CAE
:1014200002C0880F991F0A94E2F7282B2C9381E0C1
:1014300090E0DF91CF91089508951F920F920FB61B
:101440000F9211242F933F934F938F939F93EF937A
:10145000FF934091C60080911F0390912003019655
:101460008F739927209121033091220382179307CC
:1014700059F0E0911F03F0912003E152FD4F4083AA
:101480009093200380931F03FF91EF919F918F9181
:101490004F913F912F910F900FBE0F901F90189575
:1014A0008CE792E00E948109892B11F00C941C0AB0
:1014B00008951F920F920FB60F9211242F933F930E
:1014C0008F939F93EF93FF932091DB023091DC0287
:1014D0008091DD029091DE022817390731F4809166
:1014E000C1008F7D8093C10014C0E091DD02F091B6
:1014F000DE02E556FD4F20818091DD029091DE02F3
:1015000001968F7399279093DE028093DD022093DA
:10151000C600FF91EF919F918F913F912F910F9076
:101520000FBE0F901F901895CF92DF92EF92FF920F
:10153000CF93DF93EC016A017B01411581EE5807DF
:1015400061057105F9F0EC89FD8981E090E00E8C70
:1015500002C0880F991F0A94E2F7808360E079E067
:101560008DE390E0A70196010E94FD0D2150310905
:10157000410951095695479537952795211580E1E1
:10158000380798F0EC89FD89108260E874E88EE1F4
:1015900090E0A70196010E94FD0D215031094109FB
:1015A00051095695479537952795E889F9893083EC
:1015B000EA89FB892083EE89FF89408181E090E000
:1015C0009C010A8C02C0220F331F0A94E2F7422BBF
:1015D0004083EE89FF8940819C010B8C02C0220F61
:1015E000331F0A94E2F7422B4083EE89FF89408142
:1015F0009C010C8C02C0220F331F0A94E2F7422B8D
:101600004083EE89FF8920810D8C02C0880F991FCD
:101610000A94E2F7809582238083DF91CF91FF9037
:10162000EF90DF90CF90089510927F0210927E028B
:1016300088EE93E0A0E0B0E0809380029093810276
:10164000A0938202B093830281ED91E090937D029A
:1016500080937C028FED92E09093890280938802C0
:101660008BE992E090938B0280938A0285EC90E064
:1016700090938D0280938C0284EC90E090938F0283
:1016800080938E0280EC90E0909391028093900280
:1016900081EC90E0909393028093920286EC90E02C
:1016A000909395028093940284E08093960283E065
:1016B0008093970287E08093980285E08093990257
:1016C00081E080939A0208950F931F93CF93DF9345
:1016D00000D000D0CDB7DEB79B01AC01611571051C
:1016E0008105910579F069833A834B835C830E947D
:1016F000DF0F29813A814B815C810E941F0E8B0193
:101700009C0103C000E010E09801B801C9010F90EE
:101710000F900F900F90DF91CF911F910F9108952F
:10172000CF92DF92EF92FF926B017C0162177307F9
:101730008407950764F4CA01B9016C197D098E0903
:101740009F090E94640BC60ED71EE81EF91EB60143
:10175000C701FF90EF90DF90CF9008950E94C20DD7
:101760000E94CC00C0E5DAE00E9418072097E1F360
:101770000E94500AF9CFFC01808191810C94F30EF4
:10178000CF93DF93EC0188819981009711F00E943B
:10179000F30E198218821D821C821B821A82DF912D
:1017A000CF9108950F931F93CF93DF93EC018B019B
:1017B0006F5F7F4F888199810E94ED0F009731F014
:1017C000998388831B830A8381E001C080E0DF91D5
:1017D000CF911F910F910895CF93DF93EC018881F2
:1017E0009981892B31F08A819B818617970708F0B0
:1017F0000CC0CE010E94D20B882349F08C819D81C0
:10180000892B19F4E881F981108281E001C080E020
:10181000DF91CF910895EF92FF920F931F93CF9393
:10182000DF93EC017B018A01BA010E94EC0B81116C
:1018300004C0CE010E94C00B07C01D830C83B701FA
:10184000888199810E94DC10CE01DF91CF911F9198
:101850000F91FF90EF900895DC0111961C921E925B
:1018600013961C921E92129715961C921E92149714
:1018700016961C926115710559F0DB010D90002040
:10188000E9F7AD0141505109461B570B0C940B0C65
:101890000895CF93DF93EC01FB018617970761F062
:1018A000608171816115710529F0448155810E9423
:1018B0000B0C02C00E94C00BCE01DF91CF910895A6
:1018C000FC01118210821382128215821482168208
:1018D0000C94490CCF93DF93D82FC92F6115710554
:1018E00061F0DB010D900020E9F7AD014150510995
:1018F000461B570B0E940B0C02C00E94C00B8D2F81
:101900009C2FDF91CF910895EF92FF920F931F9339
:10191000CF93DF93EC017B010C811D816115710573
:1019200011F480E016C04115510591F0040F151F08
:10193000B8010E94EC0B8823A1F3288139818C81A6
:101940009D81B701820F931F0E94DC101D830C83C1
:1019500081E0DF91CF911F910F91FF90EF9008955B
:10196000CF93DF9300D0CDB7DEB769831A8241E011
:1019700050E0BE016F5F7F4F0E94840C0F900F906C
:10198000DF91CF910895FA01DB0114964D915C919E
:101990001597DC0114962D913C911597241B350B5E
:1019A0002E173F0790F08D919C91009771F0DB010D
:1019B0006D917C916115710541F08E0F9F1F0E9402
:1019C000E3109C0181E0232B09F080E00895FC01E5
:1019D00044815581FB01248135814217530720F052
:1019E00040E050E00C94C30C80E00895FC01248199
:1019F00035816217730748F480819181009729F03F
:101A0000FC01E60FF71F8081089580E008950C9493
:101A1000F60C0F931F93CF93DF93EB014115510504
:101A2000E9F02097D9F0FC010481158120173107D6
:101A300008F013C041505109021B130B4017510706
:101A400008F48A01FC0160817181620F731FA80193
:101A5000CE010E94F110C00FD11F1882DF91CF91EB
:101A60001F910F910895BF92CF92DF92EF92FF9254
:101A70000F931F93CF93DF936C017B01EA018901E0
:101A80002417350720F48D2FE901042F182F68E360
:101A900071E0C6010E942C0CD70114968D919C9187
:101AA00015978C179D07C8F08017910708F48C01D3
:101AB000D701ED91FC911197E00FF11FB0801082DA
:101AC0006D917C916C0F7D1FC6010E946A0CD7013D
:101AD000ED91FC91E00FF11FB082C601DF91CF9133
:101AE0001F910F91FF90EF90DF90CF90BF900895DE
:101AF0001F920F920FB60F9211242F933F938F9343
:101B00009F93AF93BF938091230390912403A0915F
:101B10002503B091260330912B03232F2D5F2D3702
:101B200020F40196A11DB11D05C0232F2A5702964E
:101B3000A11DB11D20932B038093230390932403B5
:101B4000A0932503B0932603809127039091280347
:101B5000A0912903B0912A030196A11DB11D809384
:101B6000270390932803A0932903B0932A03BF91DE
:101B7000AF919F918F913F912F910F900FBE0F903A
:101B80001F901895789484B5826084BD84B5816077
:101B900084BD85B5826085BD85B5816085BDEEE675
:101BA000F0E0808181608083E1E8F0E01082808154
:101BB00082608083808181608083E0E8F0E08081C2
:101BC00081608083E1EBF0E0808184608083E0EBE2
:101BD000F0E0808181608083EAE7F0E080818460CA
:101BE0008083808182608083808181608083808126
:101BF000806880831092C1000895A1E21A2EAA1B6A
:101C0000BB1BFD010DC0AA1FBB1FEE1FFF1FA217AC
:101C1000B307E407F50720F0A21BB30BE40BF50BA9
:101C2000661F771F881F991F1A9469F76095709532
:101C3000809590959B01AC01BD01CF010895052EC3
:101C400097FB16F4009407D057FD0DD00E94FD0DB0
:101C500007FC09D07EF490958095709561957F4F33
:101C60008F4F9F4F089550954095309521953F4F48
:101C70004F4F5F4F08950E944C0EA59F900DB49F4B
:101C8000900DA49F800D911D11240895EE0FFF1F4C
:101C90000590F491E02D0994A29FB001B39FC0017B
:101CA000A39F01D0B29F700D811D1124911D089535
:101CB0000F931F93CF93DF938230910510F482E04E
:101CC00090E0E0912E03F0912F0320E030E0C0E09F
:101CD000D0E023C04081518148175907A8F0481728
:101CE000590761F482819381209719F09B838A833D
:101CF0002EC090932F0380932E0329C02115310508
:101D000029F04217530710F0A90102C0BE01DF01FC
:101D100002811381EF019A01F8013097D9F621155C
:101D2000310509F1281B390B2430310590F4129646
:101D30008D919C9113976115710521F0FB0193839F
:101D4000828304C090932F0380932E03FD0132966B
:101D500044C0FD01E20FF31F81939193225031099A
:101D60002D933C933AC020912C0330912D03232BCB
:101D700041F4209102013091030130932D0320930F
:101D80002C0320910001309101012115310541F40E
:101D90002DB73EB74091040150910501241B350B2E
:101DA000E0912C03F0912D03E217F307A0F42E1B12
:101DB0003F0B2817390778F0AC014E5F5F4F2417AF
:101DC000350748F04E0F5F1F50932D0340932C03AF
:101DD0008193919302C0E0E0F0E0CF01DF91CF91D9
:101DE0001F910F910895EF92FF920F931F93CF933E
:101DF000DF93009709F48EC0DC01129713961C92B2
:101E00001E921297E0902E03F0902F03E114F1043C
:101E100089F42D913C911197280F391F80912C0343
:101E200090912D038217930789F5B0932D03A0930A
:101E30002C0370C0E70120E030E001C0EA01CA17BE
:101E4000DB0738F44A815B819E0141155105B1F7EA
:101E500022C0AC0142505109FA01D383C2830081F0
:101E60001181BC01600F711F6C177D0761F46881DF
:101E70007981600F711F6E5F7F4F718360836A810C
:101E80007B81738362832115310529F4B0932F037D
:101E9000A0932E033FC0F901B383A283E9014991C6
:101EA0005991C40FD51FAC17BD0771F4DC019E9189
:101EB0008E91840F951F02969183808312968D9147
:101EC0009C91139793838283A0E0B0E002C0D70176
:101ED0007C01F701828193810097C9F7C7010296BF
:101EE00020813181820F931F20912C0330912D038B
:101EF0002817390779F4109729F410922F031092BC
:101F00002E0304C013961C921E921297F0922D037A
:101F1000E0922C03CDB7DEB7E6E00C9438118F9237
:101F20009F92AF92BF92CF92DF92EF92FF92CF93A8
:101F3000DF93EC01688179818A819B81611571054C
:101F40008105910521F464E279ED8BE597E02DE1BF
:101F500033EF41E050E00E941F0E49015A019B01FE
:101F6000AC01A7EAB1E40E943B0E6B017C01ACEE30
:101F7000B4EFA50194010E940B11C60ED71EE81EF6
:101F8000F91EF7FE06C081E0C81AD108E10880E812
:101F9000F80AC882D982EA82FB82E894F7F8B6018F
:101FA000C701DF91CF91FF90EF90DF90CF90BF906E
:101FB000AF909F908F9008950E948F0F089586E0B4
:101FC00091E00E948F0F08956093060170930701BE
:101FD00080930801909309010895A0E0B0E0E3EF39
:101FE000FFE00C941611EC01009729F4CB010E943C
:101FF000580EEC01B4C0DC01A60FB71FFC013297EC
:10200000AE17BF0718F4C0E0D0E0A9C0008111816D
:1020100006171707B0F00530110508F4A0C0C80175
:1020200004978617970708F49AC002501109061BF7
:10203000170B0D931D9371836083CD010E94F30EE6
:102040008EC06B01C01AD10A7C01E00EF11EE09136
:102050002E03F0912F0320E030E080E090E048C0B4
:10206000EE15FF05D1F580809180540142E0A40E69
:10207000B11CAC14BD0488F17401EC18FD086701B3
:1020800022E0C20ED11C9E012250310945E0C41647
:10209000D10478F04281538113965C934E9312974A
:1020A0001196FC92EE92F901718360833A2F2B2FE7
:1020B00009C00E5F1F4F080D191DD9010D931C9308
:1020C00032812381009721F0FC013283238347C0B2
:1020D00030932E0320932F0342C0808191812817D3
:1020E000390708F49C0152814381CF01E52FF42F79
:1020F000309709F0B5CF80912C0390912D038E1568
:102100009F05F1F426173707D8F4809100019091CC
:102110000101009741F48DB79EB7209104013091E1
:102120000501821B930BA817B90708F06CCFB09379
:102130002D03A0932C03FE013297718360830FC09F
:10214000CB010E94580E7C01009709F45CCFA801D6
:10215000BE010E94D310CE010E94F30EE701CE0112
:10216000CDB7DEB7ECE00C943211FC01882799273B
:10217000E89421912032E9F3293010F02E30C8F391
:102180002B3241F02D3239F4689404C00E940011C2
:10219000820F911D219120532A30C0F31EF4909597
:1021A00081959F4F0895FB01DC0102C001900D92C3
:1021B00041505040D8F70895FB01DC0101900D9289
:1021C0000020E1F70895FB01DC014150504030F060
:1021D0008D910190801919F40020B9F7881B990B93
:1021E0000895FB01DC014150504048F001900D92F0
:1021F0000020C9F701C01D9241505040E0F70895FA
:102200007AE0979F902D879F802D910D112408953E
:10221000B7FF0C943B0E0E943B0E821B930B08955C
:102220002F923F924F925F926F927F928F929F92E6
:10223000AF92BF92CF92DF92EF92FF920F931F93D4
:10224000CF93DF93CDB7DEB7CA1BDB0B0FB6F89485
:10225000DEBF0FBECDBF09942A88398848885F84C5
:102260006E847D848C849B84AA84B984C884DF8036
:10227000EE80FD800C811B81AA81B981CE0FD11D1A
:102280000FB6F894DEBF0FBECDBFED01089510E08C
:10229000CCEBD0E004C0FE010E94480E2296CE3B5B
:0822A000D107C9F7F894FFCF44
:1022A800000030032000010000005245440047525E
:1022B80045454E00424C554500496C6C756D696E3C
:1022C80061747269782067726565747320796F75B7
:1022D8002E004C4544202320002C2076616C756527
:1022E8003A20002C2073746174653A2000436861B9
:1022F8006E676564204C45442023002C2077697460
:1023080068206D6F646520002C20616E64207374F2
:102318006174757320004C454420737461746520A2
:102328006368616E676564005345540059454C4CB9
:102338004F5700505552504C45005354414E44425B
:1023480059004359434C454F4E004359434C454F60
:102358004646004359434C45574849544500524561
:10236800534554434F4C4F524D494E5300000000C3
:0E23780000E6094D088109B0099409D4090056
:00000001FF
