:100000000C945F000C9487000C9487000C9487007C
:100010000C9487000C9487000C9487000C94870044
:100020000C9487000C9487000C9487000C94870034
:100030000C9487000C9487000C9487000C94870024
:100040000C94AB060C9487000C94E9090C94250AD7
:100050000C9487000C9487000C9487000C94870004
:100060000C9487000C948700000000070002010038
:100070000003040600000000000000000102040864
:100080001020408001020408102001020408102002
:10009000040404040404040402020202020203032E
:1000A0000303030300000000250028002B000000CC
:1000B0000000240027002A001506E00A4806112443
:1000C0001FBECFEFD4E0DEBFCDBF11E0A0E0B1E0B6
:1000D000E0E7FFE102C005900D92A63CB107D9F719
:1000E00013E0A6ECB1E001C01D92AD30B107E1F71D
:1000F00010E0CCEBD0E004C02297FE010E941E0D60
:10010000C83BD107C9F70E94300B0C94AB0F0C947D
:10011000000087EC91E00E943D0B84ED91E00E948D
:100120003D0B81EE91E00E943D0B8EEE91E00E942E
:100130003D0B8BEF91E00E943D0B88E092E00E9426
:100140003D0B85E192E00E943D0B82E292E00E942D
:100150003D0B8BE492E00E943D0B8BE392E00E940A
:100160003D0B8BE292E00C943D0BFC018285938564
:10017000861797070CF405C084859585681779075D
:100180001CF497878687089577876687089564E3C8
:1001900071E006960C94AE0BDF92EF92FF920F93F4
:1001A0001F93CF93DF93CDB7DEB727970FB6F894A1
:1001B000DEBF0FBECDBF0FEF10E010931D02009306
:1001C0001C0210931F0200931E0280E190E09093A6
:1001D0002102809320021093100200930F021092CC
:1001E0001202109211021092140210921302109235
:1001F000030210920202109305020093040210926F
:100200000702109206021092F6011092F501109268
:10021000F8011092F7011093FA010093F90110937D
:10022000E9010093E8011093EB010093EA011092B9
:10023000ED011092EC011093DC010093DB011092B0
:10024000DE011092DD011093E0010093DF01909335
:10025000CF018093CE011092D1011092D001109263
:10026000D3011092D20166E071E0CE0101960E94A6
:10027000AE0B89E2E82E82E0F82EDD24D394F7015C
:10028000D18683E090E091838083109334020093C1
:1002900033021092360210923502109238021092F8
:1002A0003702BE016F5F7F4F8BE292E00E94CB0B63
:1002B000CE0101960E943D0B6AE071E0CE010196ED
:1002C0000E94AE0BF701D18E85E090E090933A0248
:1002D0008093390210934402009343021092460225
:1002E000109245021092480210924702BE016F5FC1
:1002F0007F4F8BE392E00E94CB0BCE0101960E94D0
:100300003D0B60E171E0CE0101960E94AE0BF7015A
:10031000D1A686E090E090934A0280934902109320
:10032000540200935302109256021092550284EB2D
:1003300090E09093580280935702BE016F5F7F4F09
:100340008BE492E00E94CB0BCE0101960E943D0B04
:1003500040E855E260E070E082E692E00E94600AC8
:100360001092C60165E171E082E692E00E94700899
:1003700027960FB6F894DEBF0FBECDBFDF91CF91A9
:100380001F910F91FF90EF90DF9008950F931F93AF
:10039000CF93DF9302E312E0C0E0D0E06EE271E0C1
:1003A00082E692E00E9451084AE050E0BE0182E6F7
:1003B00092E00E942B0965E371E082E692E00E94E0
:1003C0005108FE0194E0EE0FFF1F9A95E1F7E75DFB
:1003D000FD4F668577854AE050E082E692E00E9414
:1003E0002B096FE371E082E692E00E945108F80168
:1003F00060814AE050E070E082E692E00E943309BA
:100400002196005F1F4FC330D10541F6DF91CF9198
:100410001F910F910895FC018185882319F066854D
:10042000778502C06485758580810C944A06EF92B9
:10043000FF920F931F93CF93DF93CDB7DEB76097F3
:100440000FB6F894DEBF0FBECDBFE12CF12C8701B3
:1004500024E0000F111F2A95E1F7075D1D4FF801F9
:1004600081919191BF019A838983CE0103960E9465
:10047000E20BF80181858A87828593859C878B872B
:10048000848595859E878D8786859785988B8F87B0
:10049000CE0101960E940B02CE0103960E943D0BF5
:1004A000FFEFEF1AFF0A83E0E816F10481F6609689
:1004B0000FB6F894DEBF0FBECDBFDF91CF911F9175
:1004C0000F91FF90EF900895CF93C82F69E471E0EA
:1004D00082E692E00E94700891E0C11101C090E0B4
:1004E000909332029093420290935202CF910895DA
:1004F0006F927F928F929F92AF92BF92CF92DF9234
:10050000EF92FF920F931F93CF93DF93CDB7DEB798
:1005100029970FB6F894DEBF0FBECDBF7C013B011B
:10052000ADB6BEB6C12CD12C812C912C00E010E0D0
:1005300014C00F5F1F4FB601C7010E94890C8032A3
:1005400049F48FEF881A980A861497041CF0F70173
:10055000C480D580FFEFCF1ADF0AF701848195812F
:10056000C816D90630F39801680113C0B601C70157
:10057000288739870E94890C28853985803221F4A3
:10058000F701C480D58002C00F5F1F4FFFEFCF1A65
:10059000DF0AF70184809580C814D90438F38DB739
:1005A0009EB7881999090FB6F8949EBF0FBE8DBFEC
:1005B000CDB6DEB6EFEFCE1ADE0AA801B701CE0146
:1005C00001960E94B50C20E030E0A401B601CE01F6
:1005D00001960E948B0CCE0101960E943D0BC60134
:1005E0000FB6F894BEBE0FBEADBE29960FB6F894F6
:1005F000DEBF0FBECDBFDF91CF911F910F91FF9056
:10060000EF90DF90CF90BF90AF909F908F907F90B2
:100610006F900895CF92DF92EF92FF920F931F9306
:10062000CF93DF93CDB7DEB727970FB6F894DEBF31
:100630000FBECDBF8C01BC01CE0101960E94E20B22
:1006400062E070E0CE0101960E9478020E94210FC4
:100650007C01CE0101960E943D0BB801CE010196AE
:100660000E94E20B61E070E0CE0101960E947802E8
:100670000E94210F6C01CE0101960E943D0BB80132
:10068000CE0101960E94E20B63E070E0CE0101967C
:100690000E9478020E94210F8C01CE0101960E94D7
:1006A0003D0BF60134E0EE0FFF1F3A95E1F7E75DF1
:1006B000FD4F101611061CF481E0818701C01186E0
:1006C000B701CF010E94B5006BE571E082E692E0D0
:1006D0000E9451084AE050E0B60182E692E00E9492
:1006E0002B0969E671E082E692E00E9451084AE037
:1006F00050E0B70182E692E00E942B0966E771E0C4
:1007000082E692E00E9451084AE050E0B80182E699
:1007100092E00E94330927960FB6F894DEBF0FBE11
:10072000CDBFDF91CF911F910F91FF90EF90DF90A0
:10073000CF9008958F929F92AF92BF92CF92DF9207
:10074000EF92FF920F931F93CF93DF93CDB7DEB756
:1007500027970FB6F894DEBF0FBECDBF6C01E12C1A
:10076000F12C99249394870144E0000F111F4A95BE
:10077000E1F7075D1D4F66E071E0CE0101960E9432
:10078000AE0B580182E0A80EB11CBE016F5F7F4F17
:10079000C5010E94690C882ECE0101960E943D0B76
:1007A000882031F0F60160817181C8010E94B50096
:1007B0006AE071E0CE0101960E94AE0BBE016F5F50
:1007C0007F4FC5010E94690C882ECE0101960E94C0
:1007D0003D0B882031F0F60162817381C8010E94CF
:1007E000B50060E171E0CE0101960E94AE0BBE0142
:1007F0006F5F7F4FC5010E94690CB82ECE01019634
:100800000E943D0BBB2031F0F60164817581C80167
:100810000E94B500F8019186FFEFEF1AFF0A83E00E
:10082000E816F10409F09FCF27960FB6F894DEBFC3
:100830000FBECDBFDF91CF911F910F91FF90EF9031
:10084000DF90CF90BF90AF909F908F900895FB0165
:1008500020813181DC0111963C932E9322813381DA
:1008600013963C932E9312972481358115963C93D1
:100870002E9314976A5F7F4F06960C94E20B0696B0
:100880000C943D0B1F93CF93DF93CDB7DEB76497E6
:100890000FB6F894DEBF0FBECDBF69EA71E0CE019E
:1008A0000E960E94AE0BBE01625F7F4F87EC91E017
:1008B0000E94690C182FCE010E960E943D0B112349
:1008C00019F081E00E94640261EB71E0CE010E96A6
:1008D0000E94AE0BBE01625F7F4F87EC91E00E94E9
:1008E000690C182FCE010E960E943D0B112319F0B2
:1008F00080E00E94640264E871E0CE010E960E94DE
:10090000AE0BBE01625F7F4F87EC91E00E94690CE5
:10091000182FCE010E960E943D0B112371F067EC4B
:1009200071E0CE010E960E94E20BCE010E960E945F
:100930000A03CE010E960E943D0B68E871E0CE01DD
:100940000E960E94AE0BBE01625F7F4F87EC91E076
:100950000E94690C182FCE010E960E943D0B1123A8
:1009600071F06CE172E0CE0101960E942704CE0185
:1009700001960E949A03CE0101960E943F0466E010
:1009800071E0CE010E960E94AE0BBE01625F7F4FFA
:1009900087EC91E00E94690C182FCE010E960E9400
:1009A0003D0B112371F06FE072E0CE0101960E94C1
:1009B0002704CE0101960E949A03CE0101960E945F
:1009C0003F046AE071E0CE010E960E94AE0BBE01BC
:1009D000625F7F4F87EC91E00E94690C182FCE0177
:1009E0000E960E943D0B112371F062E072E0CE0181
:1009F00001960E942704CE0101960E949A03CE011F
:100A000001960E943F0460E171E0CE010E960E94C3
:100A1000AE0BBE01625F7F4F87EC91E00E94690CD4
:100A2000182FCE010E960E943D0B112371F065EF39
:100A300071E0CE0101960E942704CE0101960E942A
:100A40009A03CE0101960E943F046EE871E0CE0148
:100A50000E960E94AE0BBE01625F7F4F87EC91E065
:100A60000E94690C182FCE010E960E943D0B112397
:100A700071F068EE71E0CE0101960E942704CE016C
:100A800001960E949A03CE0101960E943F0465E9F7
:100A900071E0CE010E960E94AE0BBE01625F7F4FE9
:100AA00087EC91E00E94690C182FCE010E960E94EF
:100AB0003D0B112371F06BED71E0CE0101960E94A8
:100AC0002704CE0101960E949A03CE0101960E944E
:100AD0003F046CE971E0CE010E960E94AE0BBE01A0
:100AE000625F7F4F87EC91E00E94690C182FCE0166
:100AF0000E960E943D0B112371F06EEC71E0CE0159
:100B000001960E942704CE0101960E949A03CE010D
:100B100001960E943F0464EA71E0CE010E960E94A5
:100B2000AE0BBE01625F7F4F87EC91E00E94690CC3
:100B3000182FCE010E960E943D0B112319F081E073
:100B40008093C6016CEA71E0CE010E960E94AE0B56
:100B5000BE01625F7F4F87EC91E00E94690C182F05
:100B6000CE010E960E943D0B11111092C6010E94FB
:100B7000C60164960FB6F894DEBF0FBECDBFDF91FD
:100B8000CF911F9108951F93CF93DF93CDB7DEB719
:100B900027970FB6F894DEBF0FBECDBF82E692E076
:100BA0000E944D091816190664F582E692E00E942B
:100BB0007C09182F682F87EC91E00E94320C612F7E
:100BC00082E692E00E9453081D3011F01B33C9F4F5
:100BD0006AE082E692E00E94530867EC71E0CE0181
:100BE00001960E94E20BCE0101960E944204CE01C2
:100BF00001960E943D0B64E371E087EC91E00E9456
:100C0000EC0B27960FB6F894DEBF0FBECDBFDF9179
:100C1000CF911F9108950E9417020E94C3056AE0B8
:100C200070E080E090E00C941F07CF93DF93C9E25F
:100C3000D2E064E371E0CE0102960E94AE0B6096B2
:100C400082E0C935D807A9F78CE192E00E94C7007D
:100C50008FE092E00E94C70082E092E00E94C7000D
:100C600085EF91E00E94C70088EE91E00E94C700E6
:100C70008BED91E00E94C7008EEC91E00E94C700CE
:100C800064E371E087EC91E0DF91CF910C94AE0BBF
:100C90000C9489001F93CF93DF93182FEB0161E031
:100CA0000E94AA07209711F460E004C0CF3FD1054D
:100CB00039F461E0812FDF91CF911F910C94E2070D
:100CC000E12FF0E0E859FF4FE491E330B9F028F468
:100CD000E13051F0E230B1F50CC0E63019F1E73007
:100CE00049F1E43079F514C084B5806884BDC7BD8E
:100CF0002EC084B5806284BDC8BD29C080918000AB
:100D0000806880938000D0938900C09388001FC0C2
:100D100080918000806280938000D0938B00C0938C
:100D20008A0015C08091B00080688093B000C093A5
:100D3000B3000DC08091B00080628093B000C0937A
:100D4000B40005C0C038D1050CF0B3CFADCFDF91F2
:100D5000CF911F9108951F920F920FB60F921124F9
:100D60002F933F938F939F93AF93BF93809159029B
:100D700090915A02A0915B02B0915C0230916102A5
:100D8000232F2D5F2D3720F40196A11DB11D05C025
:100D9000232F2A570296A11DB11D20936102809333
:100DA000590290935A02A0935B02B0935C02809127
:100DB0005D0290915E02A0915F02B0916002019687
:100DC000A11DB11D80935D0290935E02A0935F020E
:100DD000B0936002BF91AF919F918F913F912F91FE
:100DE0000F900FBE0F901F9018950F931F939FB7F2
:100DF000F89400915D0210915E0220915F023091A3
:100E0000600286B5A89B06C08F3F21F00F5F1F4F81
:100E10002F4F3F4F9FBF322F212F102F0027080F3A
:100E2000111D211D311D42E0000F111F221F331F14
:100E30004A95D1F7B801C9011F910F910895CF923A
:100E4000DF92EF92FF92CF93DF936B017C010E94C0
:100E5000F506EB010EC00E94F5066C1B7D0B683E8B
:100E6000734038F081E0C81AD108E108F108C85190
:100E7000DC4FC114D104E104F10469F7DF91CF9193
:100E8000FF90EF90DF90CF900895789484B58260C2
:100E900084BD84B5816084BD85B5826085BD85B51E
:100EA000816085BDEEE6F0E0808181608083E1E8CD
:100EB000F0E0108280818260808380818160808305
:100EC000E0E8F0E0808181608083E1EBF0E0808108
:100ED00084608083E0EBF0E0808181608083EAE7DA
:100EE000F0E0808184608083808182608083808163
:100EF000816080838081806880831092C100089522
:100F0000833069F028F48130A1F0823011F514C0EB
:100F10008630B1F08730C1F08430D9F404C08091BC
:100F200080008F7703C0809180008F7D8093800048
:100F3000089584B58F7702C084B58F7D84BD0895F0
:100F40008091B0008F7703C08091B0008F7D809337
:100F5000B0000895CF93DF9390E0FC01E458FF4F79
:100F60004491FC01E057FF4F8491882341F190E0C8
:100F7000880F991FFC01E255FF4F25913491D9014B
:100F80008C559F4FFC0185919491C82FD92F9FB705
:100F9000F8948C91611106C0409584238C938881CC
:100FA000842308C0623041F4242F209582238C933F
:100FB0008881842B888302C0842B8C939FBFDF9110
:100FC000CF9108950F931F93CF93DF931F92CDB7C7
:100FD000DEB7282F30E0F901E859FF4F8491F9017D
:100FE000E458FF4F1491F901E057FF4F049100239B
:100FF000D1F0882321F069830E9480076981E02F66
:10100000F0E0EE0FFF1FEC55FF4F85919491DC014E
:101010009FB7F8948C91611103C01095812301C092
:10102000812B8C939FBF0F90DF91CF911F910F91D8
:101030000895CF92DF92EF92FF920F931F93CF9379
:10104000DF936C01EB017A01E60EF71E00E010E081
:101050000BC06991D601ED91FC910190F081E02DDA
:10106000C6010995080F191FCE15DF0591F7C801B4
:10107000DF91CF911F910F91FF90EF90DF90CF9074
:101080000895DB010D900020E9F7AD0141505109B1
:10109000461B570BDC01ED91FC910280F381E02DA2
:1010A00009940C944108DC01ED91FC910190F081D0
:1010B000E02D09940F931F93CF93DF93EC016DE024
:1010C0000E9453088C016AE0CE010E9453089C01E3
:1010D000200F311FC901DF91CF911F910F9108950A
:1010E0000F931F93CF93DF93EC010E9441088C0173
:1010F000CE010E945A089801280F391FC901DF91BB
:10110000CF911F910F9108954F925F926F927F92AE
:101110009F92AF92BF92CF92DF92EF92FF920F9386
:101120001F93CF93DF93CDB7DEB7A1970FB6F89497
:10113000DEBF0FBECDBF5C016A017B01922E19A2FA
:1011400081E0821710F08AE0982E8E010F5D1F4F0C
:10115000492C512C612C712CC701B601A3019201BD
:101160000E94FA0C8C2D929E8019112401501109B5
:101170008A3014F4805D01C0895CF80180836901C4
:101180007A01C114D104E104F10431F7B801C501B9
:101190000E944108A1960FB6F894DEBF0FBECDBFE6
:1011A000DF91CF911F910F91FF90EF90DF90CF9043
:1011B000BF90AF909F907F906F905F904F900895F9
:1011C000CF92DF92EF92FF920F931F93CF93DF9313
:1011D000EC016A017B012115310579F4E881F9817F
:1011E0000190F081E02D642FDF91CF911F910F913D
:1011F000FF90EF90DF90CF9009942A30310519F4D9
:1012000077FD0EC02AE0B701A601CE01DF91CF9194
:101210001F910F91FF90EF90DF90CF900C94840876
:101220006DE20E9453088C0144275527BA014C19DE
:101230005D096E097F092AE0CE010E948408080F2B
:10124000191FC801DF91CF911F910F91FF90EF906F
:10125000DF90CF9008959A01AB01662757FD609506
:10126000762F0C94E0080F931F93CF93DF93EC013C
:101270009A01AB01662757FD6095762F0E94E00822
:101280008C01CE010E945A089801280F391FC9010C
:10129000DF91CF911F910F910895FC018485958571
:1012A000FC01E05CFF4F20813181FC01EE5BFF4FD0
:1012B00080819181281B390B2F733327C901089531
:1012C000FC0184859585FC01E05CFF4F40815181E4
:1012D000FC01EE5BFF4F208131814217530741F043
:1012E0000190F081E02DE80FF91F208130E002C06D
:1012F0002FEF3FEFC9010895FC0184859585FC011E
:10130000E05CFF4F40815181FC01EE5BFF4F20818B
:1013100031814217530781F0A081B181A80FB91F15
:101320008C91208131812F5F3F4F2F733327318381
:101330002083282F30E002C02FEF3FEFC90108952E
:10134000FC0186859785FC01E05CFF4FDC01AE5B0C
:10135000BF4F408151812D913C9111974217530706
:10136000C1F70895CF93DF93FC0186859785DC0153
:10137000A05CBF4F2D913C9111972F5F3F4F2F7372
:101380003327EC01CE5BDF4F4881598124173507A5
:10139000D9F30D90BC91A02DA80FB91F6C93A68511
:1013A000B785A05CBF4F11963C932E93A689B78951
:1013B0002C9181E090E0058C02C0880F991F0A945F
:1013C000E2F7282B2C9381E090E0DF91CF910895F4
:1013D00008951F920F920FB60F9211242F933F93EF
:1013E0004F938F939F93EF93FF934091C60080910B
:1013F00005039091060301968F73992720910703A7
:10140000309108038217930759F0E0910503F0919A
:101410000603EB53FD4F408390930603809305032F
:10142000FF91EF919F918F914F913F912F910F904D
:101430000FBE0F901F90189582E692E00E944D0912
:10144000892B11F00C94E80908951F920F920FB6A2
:101450000F9211242F933F938F939F93EF93FF93BA
:101460002091C1023091C2028091C3029091C402C6
:101470002817390731F48091C1008F7D8093C10016
:1014800014C0E091C302F091C402EF57FD4F2081D8
:101490008091C3029091C40201968F739927909313
:1014A000C4028093C3022093C600FF91EF919F91E5
:1014B0008F913F912F910F900FBE0F901F90189515
:1014C000CF92DF92EF92FF92CF93DF93EC016A010C
:1014D0007B01411581EE580761057105F9F0EC8932
:1014E000FD8981E090E00E8C02C0880F991F0A945C
:1014F000E2F7808360E079E08DE390E0A701960158
:101500000E94FA0C2150310941095109569547951D
:1015100037952795211580E1380798F0EC89FD89EA
:10152000108260E874E88EE190E0A70196010E94C5
:10153000FA0C2150310941095109569547953795C3
:101540002795E889F9893083EA89FB892083EE8928
:10155000FF89408181E090E09C010A8C02C0220F4B
:10156000331F0A94E2F7422B4083EE89FF894081C2
:101570009C010B8C02C0220F331F0A94E2F7422B0E
:101580004083EE89FF8940819C010C8C02C0220FB0
:10159000331F0A94E2F7422B4083EE89FF892081B2
:1015A0000D8C02C0880F991F0A94E2F78095822360
:1015B0008083DF91CF91FF90EF90DF90CF900895DF
:1015C000109265021092640288EE93E0A0E0B0E011
:1015D0008093660290936702A0936802B0936902B9
:1015E00089EB91E0909363028093620285EC92E034
:1015F00090936F0280936E0281E892E09093710263
:101600008093700285EC90E0909373028093720255
:1016100084EC90E0909375028093740280EC90E0EB
:10162000909377028093760281EC90E09093790218
:101630008093780286EC90E090937B0280937A020C
:1016400084E080937C0283E080937D0287E0809336
:101650007E0285E080937F0281E08093800208957E
:101660000E9445070E94CC00CCE1DAE00E940B0604
:101670002097E1F30E941C0AF9CFFC01808191813F
:101680000C94BD0DCF93DF93EC0188819981009775
:1016900011F00E94BD0D198218821D821C821B82CE
:1016A0001A82DF91CF9108950F931F93CF93DF9309
:1016B000EC018B016F5F7F4F888199810E94590EE9
:1016C000009731F0998388831B830A8381E001C0EE
:1016D00080E0DF91CF911F910F910895CF93DF9319
:1016E000EC0188819981892B31F08A819B81861751
:1016F000970708F00CC0CE010E94540B882349F0D4
:101700008C819D81892B19F4E881F981108281E017
:1017100001C080E0DF91CF910895EF92FF920F9387
:101720001F93CF93DF93EC017B018A01BA010E94E2
:101730006E0B811104C0CE010E94420B07C01D83B5
:101740000C83B701888199810E94480FCE01DF91F7
:10175000CF911F910F91FF90EF900895DC011196AA
:101760001C921E9213961C921E92129715961C9212
:101770001E92149716961C926115710559F0DB01A3
:101780000D900020E9F7AD0141505109461B570B60
:101790000C948D0B0895CF93DF93EC01FB0186171A
:1017A000970761F0608171816115710529F04481AD
:1017B00055810E948D0B02C00E94420BCE01DF9129
:1017C000CF910895FC01118210821382128215823A
:1017D000148216820C94CB0BCF93DF93D82FC92F92
:1017E0006115710561F0DB010D900020E9F7AD0195
:1017F00041505109461B570B0E948D0B02C00E949D
:10180000420B8D2F9C2FDF91CF910895EF92FF9285
:101810000F931F93CF93DF93EC017B010C811D810C
:101820006115710511F480E016C04115510591F064
:10183000040F151FB8010E946E0B8823A1F32881A5
:1018400039818C819D81B701820F931F0E94480FBF
:101850001D830C8381E0DF91CF911F910F91FF9049
:10186000EF900895CF93DF9300D0CDB7DEB76983B3
:101870001A8241E050E0BE016F5F7F4F0E94060C6C
:101880000F900F90DF91CF910895FA01DB0114962C
:101890004D915C911597DC0114962D913C91159713
:1018A000241B350B2E173F0790F08D919C910097CC
:1018B00071F0DB016D917C916115710541F08E0F26
:1018C0009F1F0E944F0F9C0181E0232B09F080E0B5
:1018D0000895FC0144815581FB0124813581421723
:1018E000530720F040E050E00C94450C80E0089550
:1018F000FC01248135816217730748F4808191814E
:10190000009729F0FC01E60FF71F8081089580E021
:1019100008950C94780C0F931F93CF93DF93EB01F2
:1019200041155105E9F02097D9F0FC01048115819A
:101930002017310708F013C041505109021B130B47
:101940004017510708F48A01FC0160817181620F20
:10195000731FA801CE010E945D0FC00FD11F188216
:10196000DF91CF911F910F910895BF92CF92DF9297
:10197000EF92FF920F931F93CF93DF936C017B0144
:10198000EA0189012417350720F48D2FE901042F7E
:10199000182F64E371E0C6010E94AE0BD7011496C4
:1019A0008D919C9115978C179D07C8F08017910712
:1019B00008F48C01D701ED91FC911197E00FF11F14
:1019C000B08010826D917C916C0F7D1FC6010E94CA
:1019D000EC0BD701ED91FC91E00FF11FB082C60135
:1019E000DF91CF911F910F91FF90EF90DF90CF90FB
:1019F000BF900895A1E21A2EAA1BBB1BFD010DC0CA
:101A0000AA1FBB1FEE1FFF1FA217B307E407F507AE
:101A100020F0A21BB30BE40BF50B661F771F881F8A
:101A2000991F1A9469F760957095809590959B0120
:101A3000AC01BD01CF010895EE0FFF1F0590F49199
:101A4000E02D09940F931F93CF93DF93823091057C
:101A500010F482E090E0E0910B03F0910C0320E0A1
:101A600030E0C0E0D0E023C04081518148175907E1
:101A7000A8F04817590761F482819381209719F0E3
:101A80009B838A832EC090930C0380930B0329C001
:101A90002115310529F04217530710F0A90102C0A2
:101AA000BE01DF0102811381EF019A01F801309735
:101AB000D9F62115310509F1281B390B24303105E0
:101AC00090F412968D919C9113976115710521F0F8
:101AD000FB019383828304C090930C0380930B03D8
:101AE000FD01329644C0FD01E20FF31F81939193F3
:101AF000225031092D933C933AC020910903309133
:101B00000A03232B41F42091020130910301309309
:101B10000A0320930903209100013091010121154E
:101B2000310541F42DB73EB74091040150910501B4
:101B3000241B350BE0910903F0910A03E217F30728
:101B4000A0F42E1B3F0B2817390778F0AC014E5F2D
:101B50005F4F2417350748F04E0F5F1F50930A035D
:101B6000409309038193919302C0E0E0F0E0CF013C
:101B7000DF91CF911F910F910895EF92FF920F93F4
:101B80001F93CF93DF93009709F48EC0DC01129767
:101B900013961C921E921297E0900B03F0900C0388
:101BA000E114F10489F42D913C911197280F391F0C
:101BB0008091090390910A038217930789F5B093E6
:101BC0000A03A093090370C0E70120E030E001C0E0
:101BD000EA01CA17DB0738F44A815B819E0141158F
:101BE0005105B1F722C0AC0142505109FA01D3832B
:101BF000C28300811181BC01600F711F6C177D07CA
:101C000061F468817981600F711F6E5F7F4F71830E
:101C100060836A817B81738362832115310529F496
:101C2000B0930C03A0930B033FC0F901B383A283CD
:101C3000E90149915991C40FD51FAC17BD0771F443
:101C4000DC019E918E91840F951F02969183808373
:101C500012968D919C91139793838283A0E0B0E0BC
:101C600002C0D7017C01F701828193810097C9F7F7
:101C7000C701029620813181820F931F20910903B1
:101C800030910A032817390779F4109729F4109234
:101C90000C0310920B0304C013961C921E92129711
:101CA000F0920A03E0920903CDB7DEB7E6E00C94A8
:101CB0009C0FA0E0B0E0EFE5FEE00C947A0FEC01A1
:101CC000009729F4CB010E94220DEC01B4C0DC0185
:101CD000A60FB71FFC013297AE17BF0718F4C0E07C
:101CE000D0E0A9C00081118106171707B0F00530B8
:101CF000110508F4A0C0C80104978617970708F4D7
:101D00009AC002501109061B170B0D931D93718386
:101D10006083CD010E94BD0D8EC06B01C01AD10A37
:101D20007C01E00EF11EE0910B03F0910C0320E02A
:101D300030E080E090E048C0EE15FF05D1F58080EE
:101D40009180540142E0A40EB11CAC14BD0488F192
:101D50007401EC18FD08670122E0C20ED11C9E013F
:101D60002250310945E0C416D10478F042815381F4
:101D700013965C934E9312971196FC92EE92F90192
:101D8000718360833A2F2B2F09C00E5F1F4F080D00
:101D9000191DD9010D931C9332812381009721F0E5
:101DA000FC013283238347C030930B0320930C0341
:101DB00042C0808191812817390708F49C01528123
:101DC0004381CF01E52FF42F309709F0B5CF8091F3
:101DD000090390910A038E159F05F1F42617370722
:101DE000D8F48091000190910101009741F48DB7E2
:101DF0009EB72091040130910501821B930BA81717
:101E0000B90708F06CCFB0930A03A0930903FE0151
:101E10003297718360830FC0CB010E94220D7C0139
:101E2000009709F45CCFA801BE010E943F0FCE01CC
:101E30000E94BD0DE701CE01CDB7DEB7ECE00C94FA
:101E4000960FFC0188279927E89421912032E9F325
:101E5000293010F02E30C8F32B3241F02D3239F4F6
:101E6000689404C00E946C0F820F911D2191205331
:101E70002A30C0F31EF4909581959F4F0895FB0181
:101E8000DC0102C001900D9241505040D8F70895F6
:101E9000FB01DC0101900D920020E1F70895FB01A8
:101EA000DC014150504030F08D910190801919F4BF
:101EB0000020B9F7881B990B0895FB01DC01415004
:101EC000504048F001900D920020C9F701C01D92CA
:101ED00041505040E0F708957AE0979F902D879FFA
:101EE000802D910D112408952F923F924F925F9271
:101EF0006F927F928F929F92AF92BF92CF92DF921A
:101F0000EF92FF920F931F93CF93DF93CDB7DEB77E
:101F1000CA1BDB0B0FB6F894DEBF0FBECDBF099412
:101F20002A88398848885F846E847D848C849B8469
:101F3000AA84B984C884DF80EE80FD800C811B8177
:101F4000AA81B981CE0FD11D0FB6F894DEBF0FBEA6
:101F5000CDBFED01089510E0CCEBD0E004C0FE0150
:101F60000E941E0D2296CE3BD107C9F7F894FFCFF1
:101F700000000D03200052454400475245454E00E5
:101F8000424C554500496C6C756D696E617472699F
:101F9000782067726565747320796F752E004C45E3
:101FA00044202320002C2076616C75653A20002C9B
:101FB0002073746174653A20004C45442073746149
:101FC0007465206368616E676564004368616E676D
:101FD0006564204C45442023002C207769746820D8
:101FE0006D6F646520002C20616E642073746174D1
:101FF00075732000534554005748495445005945CE
:102000004C4C4F5700505552504C45005354414E84
:10201000444259004359434C454F4E004359434CA9
:10202000454F46460000000000B20919084D097CE2
:06203000096009A009008F
:00000001FF
