:100000000C945F000C9487000C9487000C9487007C
:100010000C9487000C9487000C9487000C94870044
:100020000C9487000C9487000C9487000C94870034
:100030000C9487000C9487000C9487000C94870024
:100040000C9400040C9487000C943E070C947A07DF
:100050000C9487000C9487000C9487000C94870004
:100060000C9487000C948700000000070002010038
:100070000003040600000000000000000102040864
:100080001020408001020408102001020408102002
:10009000040404040404040402020202020203032E
:1000A0000303030300000000250028002B000000CC
:1000B0000000240027002A00950335089B03112423
:1000C0001FBECFEFD4E0DEBFCDBF11E0A0E0B1E0B6
:1000D000EAE1FAE102C005900D92AA39B107D9F719
:1000E00012E0AAE9B1E001C01D92A137B107E1F722
:1000F00010E0CCEBD0E004C02297FE010E94730A0E
:10010000C83BD107C9F70E9485080C94000D0C94D8
:100110000000E2EAF1E041E0428383E090E0918375
:1001200080838FEF90E09093A6018093A50120E15A
:1001300030E03093A8012093A70120E630E030930F
:10014000AA012093A901438725E030E03093AC0158
:100150002093AB019093AF018093AE011092B10157
:100160001092B00128EC30E03093B3012093B2013B
:10017000448B26E030E03093B5012093B401909396
:10018000B8018093B7011092BA011092B90184EBC3
:1001900090E09093BC018093BB0140E855E260E0A1
:1001A00070E086EC91E00E94B50710929A0166E03B
:1001B00071E086EC91E00C94C505FF920F931F93BC
:1001C000CF93DF9304EA11E0C0E0D0E089E0F82E9D
:1001D0006FE171E086EC91E00E94A6054AE050E0F4
:1001E000BE0186EC91E00E94800666E271E086EC3A
:1001F00091E00E94A605FC9EF001FD9EF00D1124E9
:10020000EE55FE4F678170854AE050E086EC91E044
:100210000E94800660E371E086EC91E00E94A605F2
:10022000F80160814AE050E070E086EC91E00E94C5
:1002300088062196075F1F4FC330D10549F6DF912D
:10024000CF911F910F91FF9008950F931F93CF931C
:10025000DF93CDB7DEB729970FB6F894DEBF0FBE98
:10026000CDBF5E836F8378878987802F222319F023
:100270006885798502C06E817F8129960FB6F894D2
:10028000DEBF0FBECDBFDF91CF911F910F910C94B8
:100290009F03FF920F931F93CF93DF93C0E0D0E0B3
:1002A00099E0F92EFC9EF001FD9EF00D1124EE5513
:1002B000FE4F008111812281338144815581668105
:1002C000778180850E9425012196C330D10551F7A1
:1002D000DF91CF911F910F91FF900895CF93C82F79
:1002E0006AE371E086EC91E00E94C50591E0C111DE
:1002F00001C090E09093A4019093AD019093B6015A
:10030000CF9108956F927F928F929F92AF92BF92FA
:10031000CF92DF92EF92FF920F931F93CF93DF93D1
:10032000CDB7DEB729970FB6F894DEBF0FBECDBFAD
:100330007C013B01ADB6BEB6C12CD12C812C912CD9
:1003400000E010E014C00F5F1F4FB601C7010E940C
:10035000DE09803249F48FEF881A980A86149704D0
:100360001CF0F701C480D580FFEFCF1ADF0AF70138
:1003700084819581C816D90630F39801680113C0AD
:10038000B601C701288739870E94DE09288539858B
:10039000803221F4F701C480D58002C00F5F1F4F67
:1003A000FFEFCF1ADF0AF70184809580C814D904C3
:1003B00038F38DB79EB7881999090FB6F8949EBF88
:1003C0000FBE8DBFCDB6DEB6EFEFCE1ADE0AA801A6
:1003D000B701CE0101960E940A0A20E030E0A40194
:1003E000B601CE0101960E94E009CE0101960E945D
:1003F0009208C6010FB6F894BEBE0FBEADBE2996D8
:100400000FB6F894DEBF0FBECDBFDF91CF911F9125
:100410000F91FF90EF90DF90CF90BF90AF909F90A3
:100420008F907F906F900895CF92DF92EF92FF921E
:100430000F931F93CF93DF93CDB7DEB727970FB6F8
:10044000F894DEBF0FBECDBF7C01BC01CE0101968A
:100450000E94370962E070E0CE0101960E9482019D
:100460000E94760C8C01CE0101960E949208B70181
:10047000CE0101960E94370961E070E0CE0101963D
:100480000E9482010E94760C6C01CE0101960E94AE
:100490009208B701CE0101960E94370963E070E02F
:1004A000CE0101960E9482010E94760C7C01CE0151
:1004B00001960E94920889E08C9DF0018D9DF00DBF
:1004C0001124EE55FE4F1E141F041CF481E082839C
:1004D00001C0128283819481801791070CF405C0BA
:1004E00085819681081719071CF49087878302C0BD
:1004F000108707836CE471E086EC91E00E94A6050A
:100500004AE050E0B60186EC91E00E9480066AE580
:1005100071E086EC91E00E94A6054AE050E0B80147
:1005200086EC91E00E94800667E671E086EC91E03F
:100530000E94A6054AE050E0B70186EC91E00E94D7
:10054000880627960FB6F894DEBF0FBECDBFDF91A9
:10055000CF911F910F91FF90EF90DF90CF90089572
:100560001F93CF93DF93CDB7DEB727970FB6F894DD
:10057000DEBF0FBECDBF6EE771E0CE0101960E94D7
:100580000309BE016F5F7F4F8BE991E00E94BE09B6
:10059000182FCE0101960E949208112319F081E0D4
:1005A0000E946E0166E871E0CE0101960E94030987
:1005B000BE016F5F7F4F8BE991E00E94BE09182F4B
:1005C000CE0101960E949208112319F080E00E944A
:1005D0006E0165E771E0CE0101960E940309BE013C
:1005E0006F5F7F4F8BE991E00E94BE09182FCE010B
:1005F00001960E949208112371F06BE971E0CE011F
:1006000001960E943709CE0101960E941402CE0184
:1006100001960E94920869E771E0CE0101960E945E
:100620000309BE016F5F7F4F8BE991E00E94BE0915
:10063000182FCE0101960E949208112319F081E033
:1006400080939A0161E871E0CE0101960E9403094E
:10065000BE016F5F7F4F8BE991E00E94BE09182FAA
:10066000CE0101960E949208111110929A010E94E7
:10067000DD0027960FB6F894DEBF0FBECDBFDF9129
:10068000CF911F9108951F93CF93DF93CDB7DEB71E
:1006900027970FB6F894DEBF0FBECDBF86EC91E072
:1006A0000E94A2061816190664F586EC91E00E94D5
:1006B000D106182F682F8BE991E00E948709612FDE
:1006C00086EC91E00E94A8051D3011F01B33C9F49F
:1006D0006AE086EC91E00E94A8056BE971E0CE012A
:1006E00001960E943709CE0101960E94B002CE0108
:1006F00001960E94920865E271E08BE991E00E9408
:10070000410927960FB6F894DEBF0FBECDBFDF912B
:10071000CF911F9108950E9449010E9443036AE00E
:1007200070E080E090E00C94740465E271E08BE985
:1007300091E00C9403098BE991E00C9492081F93CB
:10074000CF93DF93182FEB0161E00E94FF04209705
:1007500011F460E004C0CF3FD10539F461E0812F8E
:10076000DF91CF911F910C943705E12FF0E0E8590C
:10077000FF4FE491E330B9F028F4E13051F0E2307A
:10078000B1F50CC0E63019F1E73049F1E43079F504
:1007900014C084B5806884BDC7BD2EC084B5806296
:1007A00084BDC8BD29C0809180008068809380008E
:1007B000D0938900C09388001FC080918000806220
:1007C00080938000D0938B00C0938A0015C08091E5
:1007D000B00080688093B000C093B3000DC08091DA
:1007E000B00080628093B000C093B40005C0C038F0
:1007F000D1050CF0B3CFADCFDF91CF911F9108950C
:100800001F920F920FB60F9211242F933F938F9345
:100810009F93AF93BF938091BD019091BE01A09132
:10082000BF01B091C0013091C501232F2D5F2D373D
:1008300020F40196A11DB11D05C0232F2A57029651
:10084000A11DB11D2093C5018093BD019093BE01F0
:10085000A093BF01B093C0018091C1019091C201EA
:10086000A091C301B091C4010196A11DB11D809357
:10087000C1019093C201A093C301B093C401BF9181
:10088000AF919F918F913F912F910F900FBE0F903D
:100890001F9018950F931F939FB7F8940091C10173
:1008A0001091C2012091C3013091C40186B5A89B6B
:1008B00006C08F3F21F00F5F1F4F2F4F3F4F9FBF4D
:1008C000322F212F102F0027080F111D211D311D40
:1008D00042E0000F111F221F331F4A95D1F7B801C4
:1008E000C9011F910F910895CF92DF92EF92FF926D
:1008F000CF93DF936B017C010E944A04EB010EC091
:100900000E944A046C1B7D0B683E734038F081E006
:10091000C81AD108E108F108C851DC4FC114D1044C
:10092000E104F10469F7DF91CF91FF90EF90DF9040
:10093000CF900895789484B5826084BD84B5816039
:1009400084BD85B5826085BD85B5816085BDEEE6D7
:10095000F0E0808181608083E1E8F0E010828081B6
:1009600082608083808181608083E0E8F0E0808124
:1009700081608083E1EBF0E0808184608083E0EB44
:10098000F0E0808181608083EAE7F0E0808184602C
:100990008083808182608083808181608083808188
:1009A000806880831092C1000895833069F028F434
:1009B0008130A1F0823011F514C08630B1F087305B
:1009C000C1F08430D9F404C0809180008F7703C0D7
:1009D000809180008F7D80938000089584B58F770B
:1009E00002C084B58F7D84BD08958091B0008F775B
:1009F00003C08091B0008F7D8093B0000895CF93A5
:100A0000DF9390E0FC01E458FF4F4491FC01E05774
:100A1000FF4F8491882341F190E0880F991FFC01DA
:100A2000E255FF4F25913491D9018C559F4FFC0120
:100A300085919491C82FD92F9FB7F8948C9161110B
:100A400006C0409584238C938881842308C062303B
:100A500041F4242F209582238C938881842B8883D2
:100A600002C0842B8C939FBFDF91CF9108950F9389
:100A70001F93CF93DF931F92CDB7DEB7282F30E0BF
:100A8000F901E859FF4F8491F901E458FF4F14919F
:100A9000F901E057FF4F04910023D1F0882321F0A2
:100AA00069830E94D5046981E02FF0E0EE0FFF1FFB
:100AB000EC55FF4F85919491DC019FB7F8948C9190
:100AC000611103C01095812301C0812B8C939FBFBE
:100AD0000F90DF91CF911F910F910895CF92DF92E8
:100AE000EF92FF920F931F93CF93DF936C01EB0173
:100AF0007A01E60EF71E00E010E00BC06991D60106
:100B0000ED91FC910190F081E02DC6010995080F4F
:100B1000191FCE15DF0591F7C801DF91CF911F9105
:100B20000F91FF90EF90DF90CF900895DB010D9033
:100B30000020E9F7AD0141505109461B570BDC017C
:100B4000ED91FC910280F381E02D09940C949605BF
:100B5000DC01ED91FC910190F081E02D09940F935F
:100B60001F93CF93DF93EC016DE00E94A8058C01E9
:100B70006AE0CE010E94A8059C01200F311FC90127
:100B8000DF91CF911F910F9108950F931F93CF93F2
:100B9000DF93EC010E9496058C01CE010E94AF0507
:100BA0009801280F391FC901DF91CF911F910F9133
:100BB00008954F925F926F927F929F92AF92BF92F1
:100BC000CF92DF92EF92FF920F931F93CF93DF9319
:100BD000CDB7DEB7A1970FB6F894DEBF0FBECDBF7D
:100BE0005C016A017B01922E19A281E0821710F04C
:100BF0008AE0982E8E010F5D1F4F492C512C612CDD
:100C0000712CC701B601A30192010E944F0A8C2DDD
:100C1000929E80191124015011098A3014F4805DCC
:100C200001C0895CF801808369017A01C114D10493
:100C3000E104F10431F7B801C5010E949605A196BF
:100C40000FB6F894DEBF0FBECDBFDF91CF911F91DD
:100C50000F91FF90EF90DF90CF90BF90AF909F905B
:100C60007F906F905F904F900895CF92DF92EF92B8
:100C7000FF920F931F93CF93DF93EC016A017B01E7
:100C80002115310579F4E881F9810190F081E02D99
:100C9000642FDF91CF911F910F91FF90EF90DF9024
:100CA000CF9009942A30310519F477FD0EC02AE05F
:100CB000B701A601CE01DF91CF911F910F91FF9057
:100CC000EF90DF90CF900C94D9056DE20E94A805BB
:100CD0008C0144275527BA014C195D096E097F091B
:100CE0002AE0CE010E94D905080F191FC801DF9123
:100CF000CF911F910F91FF90EF90DF90CF900895CB
:100D00009A01AB01662757FD6095762F0C94350646
:100D10000F931F93CF93DF93EC019A01AB016627EA
:100D200057FD6095762F0E9435068C01CE010E94FA
:100D3000AF059801280F391FC901DF91CF911F918D
:100D40000F910895FC0184859585FC01E05CFF4FBF
:100D500020813181FC01EE5BFF4F80819181281B56
:100D6000390B2F733327C9010895FC0184859585BC
:100D7000FC01E05CFF4F40815181FC01EE5BFF4FC5
:100D8000208131814217530741F00190F081E02D1D
:100D9000E80FF91F208130E002C02FEF3FEFC901BB
:100DA0000895FC0184859585FC01E05CFF4F40813E
:100DB0005181FC01EE5BFF4F2081318142175307C7
:100DC00081F0A081B181A80FB91F8C912081318160
:100DD0002F5F3F4F2F73332731832083282F30E03D
:100DE00002C02FEF3FEFC9010895FC01868597856A
:100DF000FC01E05CFF4FDC01AE5BBF4F40815181E5
:100E00002D913C91119742175307C1F70895CF9345
:100E1000DF93FC0186859785DC01A05CBF4F2D9197
:100E20003C9111972F5F3F4F2F733327EC01CE5B1F
:100E3000DF4F4881598124173507D9F30D90BC91B4
:100E4000A02DA80FB91F6C93A685B785A05CBF4FD6
:100E500011963C932E93A689B7892C9181E090E05E
:100E6000058C02C0880F991F0A94E2F7282B2C9357
:100E700081E090E0DF91CF91089508951F920F9245
:100E80000FB60F9211242F933F934F938F939F93FD
:100E9000EF93FF934091C6008091690290916A029E
:100EA00001968F73992720916B0230916C02821703
:100EB000930759F0E0916902F0916A02E75DFD4FF6
:100EC000408390936A0280936902FF91EF919F9112
:100ED0008F914F913F912F910F900FBE0F901F90C8
:100EE000189586EC91E00E94A206892B11F00C94D3
:100EF0003D0708951F920F920FB60F9211242F9362
:100F00003F938F939F93EF93FF932091250230910E
:100F1000260280912702909128022817390731F480
:100F20008091C1008F7D8093C10014C0E0912702A1
:100F3000F0912802EB51FE4F208180912702909181
:100F4000280201968F739927909328028093270295
:100F50002093C600FF91EF919F918F913F912F9128
:100F60000F900FBE0F901F901895CF92DF92EF92C7
:100F7000FF92CF93DF93EC016A017B01411581EE73
:100F8000580761057105F9F0EC89FD8981E090E071
:100F90000E8C02C0880F991F0A94E2F7808360E0EC
:100FA00079E08DE390E0A70196010E944F0A21505D
:100FB00031094109510956954795379527952115CE
:100FC00080E1380798F0EC89FD89108260E874E8C8
:100FD0008EE190E0A70196010E944F0A215031094D
:100FE000410951095695479537952795E889F9891B
:100FF0003083EA89FB892083EE89FF89408181E083
:1010000090E09C010A8C02C0220F331F0A94E2F781
:10101000422B4083EE89FF8940819C010B8C02C0EA
:10102000220F331F0A94E2F7422B4083EE89FF8997
:1010300040819C010C8C02C0220F331F0A94E2F7FE
:10104000422B4083EE89FF8920810D8C02C0880FDE
:10105000991F0A94E2F7809582238083DF91CF91D4
:10106000FF90EF90DF90CF9008951092C9011092F9
:10107000C80188EE93E0A0E0B0E08093CA019093AD
:10108000CB01A093CC01B093CD018EE891E0909379
:10109000C7018093C60189E292E09093D3018093C7
:1010A000D20185EE91E09093D5018093D40185EC37
:1010B00090E09093D7018093D60184EC90E09093D8
:1010C000D9018093D80180EC90E09093DB0180936C
:1010D000DA0181EC90E09093DD018093DC0186ECF5
:1010E00090E09093DF018093DE0184E08093E00143
:1010F00083E08093E10187E08093E20185E08093C3
:10110000E30181E08093E40108950E949A040E9423
:101110008900C1E7D7E00E948B032097E1F30E948A
:101120007107F9CFFC01808191810C94120BCF9350
:10113000DF93EC0188819981009711F00E94120BD6
:10114000198218821D821C821B821A82DF91CF9124
:1011500008950F931F93CF93DF93EC018B016F5F83
:101160007F4F888199810E94AE0B009731F099835F
:1011700088831B830A8381E001C080E0DF91CF91E7
:101180001F910F910895CF93DF93EC01888199818E
:10119000892B31F08A819B818617970708F00CC054
:1011A000CE010E94A908882349F08C819D81892B5A
:1011B00019F4E881F981108281E001C080E0DF91BB
:1011C000CF910895EF92FF920F931F93CF93DF93E8
:1011D000EC017B018A01BA010E94C308811104C09D
:1011E000CE010E94970807C01D830C83B701888138
:1011F00099810E949D0CCE01DF91CF911F910F919B
:10120000FF90EF900895DC0111961C921E921396A8
:101210001C921E92129715961C921E921497169667
:101220001C926115710559F0DB010D900020E9F762
:10123000AD0141505109461B570B0C94E20808952B
:10124000CF93DF93EC01FB018617970761F0608174
:1012500071816115710529F0448155810E94E20870
:1012600002C00E949708CE01DF91CF910895FC0142
:1012700011821082138212821582148216820C94BB
:101280002009CF93DF93D82FC92F6115710561F025
:10129000DB010D900020E9F7AD0141505109461BDB
:1012A000570B0E94E20802C00E9497088D2F9C2FC6
:1012B000DF91CF910895EF92FF920F931F93CF93F9
:1012C000DF93EC017B010C811D816115710511F427
:1012D00080E016C04115510591F0040F151FB801AB
:1012E0000E94C3088823A1F3288139818C819D81C4
:1012F000B701820F931F0E949D0C1D830C8381E018
:10130000DF91CF911F910F91FF90EF900895CF93B0
:10131000DF9300D0CDB7DEB769831A8241E050E099
:10132000BE016F5F7F4F0E945B090F900F90DF91AE
:10133000CF910895FA01DB0114964D915C911597B8
:10134000DC0114962D913C911597241B350B2E171B
:101350003F0790F08D919C91009771F0DB016D91AA
:101360007C916115710541F08E0F9F1F0E94A40CA6
:101370009C0181E0232B09F080E00895FC01448169
:101380005581FB01248135814217530720F040E04D
:1013900050E00C949A0980E00895FC012481358185
:1013A0006217730748F480819181009729F0FC014E
:1013B000E60FF71F8081089580E008950C94CD0911
:1013C0000F931F93CF93DF93EB0141155105E9F084
:1013D0002097D9F0FC01048115812017310708F00E
:1013E00013C041505109021B130B4017510708F459
:1013F0008A01FC0160817181620F731FA801CE0117
:101400000E94B20CC00FD11F1882DF91CF911F91A3
:101410000F910895BF92CF92DF92EF92FF920F93B8
:101420001F93CF93DF936C017B01EA01890124179D
:10143000350720F48D2FE901042F182F65E271E0A4
:10144000C6010E940309D70114968D919C911597AE
:101450008C179D07C8F08017910708F48C01D701FD
:10146000ED91FC911197E00FF11FB08010826D910A
:101470007C916C0F7D1FC6010E944109D701ED913F
:10148000FC91E00FF11FB082C601DF91CF911F9157
:101490000F91FF90EF90DF90CF90BF900895A1E261
:1014A0001A2EAA1BBB1BFD010DC0AA1FBB1FEE1FDE
:1014B000FF1FA217B307E407F50720F0A21BB30B29
:1014C000E40BF50B661F771F881F991F1A9469F7A5
:1014D00060957095809590959B01AC01BD01CF0101
:1014E0000895EE0FFF1F0590F491E02D09940F93DE
:1014F0001F93CF93DF938230910510F482E090E048
:10150000E0916F02F091700220E030E0C0E0D0E0A6
:1015100023C04081518148175907A8F0481759073F
:1015200061F482819381209719F09B838A832EC076
:101530009093700280936F0229C02115310529F024
:101540004217530710F0A90102C0BE01DF0102815A
:101550001381EF019A01F8013097D9F62115310571
:1015600009F1281B390B2430310590F412968D9126
:101570009C9113976115710521F0FB019383828380
:1015800004C09093700280936F02FD01329644C0B4
:10159000FD01E20FF31F81939193225031092D93A6
:1015A0003C933AC020916D0230916E02232B41F49E
:1015B000209102013091030130936E0220936D025D
:1015C00020910001309101012115310541F42DB721
:1015D0003EB74091040150910501241B350BE09169
:1015E0006D02F0916E02E217F307A0F42E1B3F0B81
:1015F0002817390778F0AC014E5F5F4F2417350785
:1016000048F04E0F5F1F50936E0240936D0281931E
:10161000919302C0E0E0F0E0CF01DF91CF911F9104
:101620000F910895EF92FF920F931F93CF93DF9343
:10163000009709F48EC0DC01129713961C921E923B
:101640001297E0906F02F0907002E114F10489F4B7
:101650002D913C911197280F391F80916D02909127
:101660006E028217930789F5B0936E02A0936D0204
:1016700070C0E70120E030E001C0EA01CA17DB07D3
:1016800038F44A815B819E0141155105B1F722C0B2
:10169000AC0142505109FA01D383C2830081118108
:1016A000BC01600F711F6C177D0761F4688179813F
:1016B000600F711F6E5F7F4F718360836A817B81D2
:1016C000738362832115310529F4B0937002A093CE
:1016D0006F023FC0F901B383A283E9014991599197
:1016E000C40FD51FAC17BD0771F4DC019E918E911C
:1016F000840F951F02969183808312968D919C9101
:10170000139793838283A0E0B0E002C0D7017C01ED
:10171000F701828193810097C9F7C7010296208162
:101720003181820F931F20916D0230916E02281734
:10173000390779F4109729F41092700210926F0211
:1017400004C013961C921E921297F0926E02E092C1
:101750006D02CDB7DEB7E6E00C94F10CA0E0B0E08E
:10176000E4EBFBE00C94CF0CEC01009729F4CB01E7
:101770000E94770AEC01B4C0DC01A60FB71FFC0180
:101780003297AE17BF0718F4C0E0D0E0A9C00081BF
:10179000118106171707B0F00530110508F4A0C035
:1017A000C80104978617970708F49AC002501109D8
:1017B000061B170B0D931D9371836083CD010E944F
:1017C000120B8EC06B01C01AD10A7C01E00EF11E13
:1017D000E0916F02F091700220E030E080E090E054
:1017E00048C0EE15FF05D1F580809180540142E09C
:1017F000A40EB11CAC14BD0488F17401EC18FD08F2
:10180000670122E0C20ED11C9E012250310945E041
:10181000C416D10478F04281538113965C934E93A1
:1018200012971196FC92EE92F901718360833A2F20
:101830002B2F09C00E5F1F4F080D191DD9010D93E5
:101840001C9332812381009721F0FC013283238392
:1018500047C030936F022093700242C08081918113
:101860002817390708F49C0152814381CF01E52FE5
:10187000F42F309709F0B5CF80916D0290916E02F0
:101880008E159F05F1F426173707D8F480910001D3
:1018900090910101009741F48DB79EB7209104010A
:1018A00030910501821B930BA817B90708F06CCF84
:1018B000B0936E02A0936D02FE0132977183608334
:1018C0000FC0CB010E94770A7C01009709F45CCF1E
:1018D000A801BE010E94940CCE010E94120BE701E8
:1018E000CE01CDB7DEB7ECE00C94EB0CFC01882701
:1018F0009927E89421912032E9F3293010F02E3015
:10190000C8F32B3241F02D3239F4689404C00E94A0
:10191000C10C820F911D219120532A30C0F31EF477
:10192000909581959F4F0895FB01DC0102C00190C5
:101930000D9241505040D8F70895FB01DC01019011
:101940000D920020E1F70895FB01DC014150504069
:1019500030F08D910190801919F40020B9F7881B9F
:10196000990B0895FB01DC014150504048F0019073
:101970000D920020C9F701C01D9241505040E0F780
:1019800008957AE0979F902D879F802D910D1124C7
:1019900008952F923F924F925F926F927F928F9213
:1019A0009F92AF92BF92CF92DF92EF92FF920F93EE
:1019B0001F93CF93DF93CDB7DEB7CA1BDB0B0FB6F8
:1019C000F894DEBF0FBECDBF09942A8839884888B5
:1019D0005F846E847D848C849B84AA84B984C8844B
:1019E000DF80EE80FD800C811B81AA81B981CE0F42
:1019F000D11D0FB6F894DEBF0FBECDBFED01089527
:101A000010E0CCEBD0E004C0FE010E94730A2296E5
:0A1A1000CE3BD107C9F7F894FFCFD1
:101A1A00000071022000496C6C756D696E61747208
:101A2A0069782067726565747320796F752E004C2A
:101A3A004544202320002C2076616C75653A2000ED
:101A4A002C2073746174653A20004C4544207374E9
:101A5A00617465206368616E676564004368616EDE
:101A6A00676564204C45442023002C2077697468FC
:101A7A00206D6F646520002C20616E642073746190
:101A8A007475732000534554004359434C454F4ED7
:101A9A00004359434C454F464600000000000707E3
:0A1AAA006E05A206D106B506F5068A
:00000001FF
