:100000000C945F000C9487000C9487000C9487007C
:100010000C9487000C9487000C9487000C94870044
:100020000C9487000C9487000C9487000C94870034
:100030000C9487000C9487000C9487000C94870024
:100040000C94720D0C9487000C94170A0C94530AAC
:100050000C9487000C9487000C9487000C94870004
:100060000C9487000C948700000000070002010038
:100070000003040600000000000000000102040864
:100080001020408001020408102001020408102002
:10009000040404040404040402020202020203032E
:1000A0000303030300000000250028002B000000CC
:1000B0000000240027002A0018070E0B4B0711240C
:1000C0001FBECFEFD4E0DEBFCDBF11E0A0E0B1E0B6
:1000D000ECE9F2E202C005900D92AE3FB107D9F70C
:1000E00013E0AEEFB1E001C01D92A035B107E1F71A
:1000F00010E0CCEBD0E004C02297FE010E94420E3B
:10010000C83BD107C9F70E94A80B0C9441110C946D
:1001100000008AE092E00E94B50B87E192E00E9425
:10012000B50B84E292E00E94B50B81E392E00E945D
:10013000B50B8EE392E00E94B50B8BE492E00E9437
:10014000B50B88E592E00E94B50B85E692E00E942F
:10015000B50B8EE892E00E94B50B8EE792E00E940C
:10016000B50B8EE692E00C94B50BFC01828593856D
:10017000861797070CF405C084859585681779075D
:100180001CF497878687089577876687089568E3C4
:1001900071E006960C94260CBF92CF92DF92EF92FC
:1001A000FF920F931F93CF93DF93CDB7DEB72797BF
:1001B0000FB6F894DEBF0FBECDBF0FEF10E0109367
:1001C000600200935F02109362020093610280E379
:1001D00090E0909364028093630210935302009323
:1001E000520210925502109254021092570210922D
:1001F0005602109246021092450210934802009354
:10020000470210924A02109249021092390210924B
:10021000380210923B0210923A0210933D02009372
:100220003C0210932C0200932B0210932E02009399
:100230002D021092300210922F0210931F02009391
:100240001E021092210210922002109323020093AA
:10025000220280E190E090931202809311021092AA
:1002600014021092130210921602109215026AE004
:1002700071E0CE0101960E94260C8CE6E82E82E009
:10028000F82EBB24B394F701B18683E090E091830C
:100290008083109377020093760210927902109275
:1002A000780210927B0210927A02BE016F5F7F4F3C
:1002B0008EE692E00E94430CCE0101960E94B50B9F
:1002C0006EE071E0CE0101960E94260CF701B18E1E
:1002D0009CE7C92E92E0D92E85E090E0F60191834B
:1002E00080831093870200938602109289021092F5
:1002F000880210928B0210928A02BE016F5F7F4FBC
:100300008EE792E00E94430CCE0101960E94B50B4D
:1003100064E171E0CE0101960E94260CF701B1A6BE
:1003200086E090E090938D0280938C021093970268
:1003300000939602109299021092980284EB90E03A
:1003400090939B0280939A02BE016F5F7F4F8EE86D
:1003500092E00E94430CCE0101960E94B50B40E84A
:1003600055E260E070E08CE992E00E948E0A109203
:100370000902B0920802D0920702C092060284E6F7
:1003800090E0909305028093040210920302109271
:10039000020284EF91E09093010280930002109298
:1003A000FF011092FE0169E171E08CE992E00E9488
:1003B0009E0827960FB6F894DEBF0FBECDBFDF9123
:1003C000CF911F910F91FF90EF90DF90CF90BF9052
:1003D00008950F931F93CF93DF9305E712E0C0E0DA
:1003E000D0E062E371E08CE992E00E947F084AE08D
:1003F00050E0BE018CE992E00E94590969E371E086
:100400008CE992E00E947F08FE0124E0EE0FFF1FBE
:100410002A95E1F7E459FD4F668577854AE050E07B
:100420008CE992E00E94590963E471E08CE992E062
:100430000E947F08F80160814AE050E070E08CE99A
:1004400092E00E9461092196005F1F4FC330D105E1
:1004500041F6DF91CF911F910F910895FC018185A5
:10046000882319F06685778502C06485758580814B
:100470000C944D07EF92FF920F931F93CF93DF934E
:10048000CDB7DEB760970FB6F894DEBF0FBECDBF15
:10049000E12CF12C870134E0000F111F3A95E1F7B0
:1004A00004591D4FF80181919191BF019A8389836D
:1004B000CE0103960E945A0CF80181858A878285B5
:1004C00093859C878B87848595859E878D87868578
:1004D0009785988B8F87CE0101960E942E02CE01C0
:1004E00003960E94B50BFFEFEF1AFF0A83E0E816B0
:1004F000F10481F660960FB6F894DEBF0FBECDBF53
:10050000DF91CF911F910F91FF90EF900895CF93BE
:10051000C82F6DE471E08CE992E00E949E0891E0A2
:10052000C11101C090E09093750290938502909361
:100530009502CF9108956F927F928F929F92AF9282
:10054000BF92CF92DF92EF92FF920F931F93CF93C0
:10055000DF93CDB7DEB729970FB6F894DEBF0FBE95
:10056000CDBF7C013B01ADB6BEB6C12CD12C812CD8
:10057000912C00E010E014C00F5F1F4FB601C701BF
:100580000E94010D803249F48FEF881A980A861470
:1005900097041CF0F701C480D580FFEFCF1ADF0A63
:1005A000F70184819581C816D90630F39801680156
:1005B00013C0B601C701288739870E94010D28851D
:1005C0003985803221F4F701C480D58002C00F5FE5
:1005D0001F4FFFEFCF1ADF0AF70184809580C81400
:1005E000D90438F38DB79EB7881999090FB6F894D6
:1005F0009EBF0FBE8DBFCDB6DEB6EFEFCE1ADE0AC0
:10060000A801B701CE0101960E942D0D20E030E037
:10061000A401B601CE0101960E94030DCE01019600
:100620000E94B50BC6010FB6F894BEBE0FBEADBE9C
:1006300029960FB6F894DEBF0FBECDBFDF91CF91E4
:100640001F910F91FF90EF90DF90CF90BF90AF90F0
:100650009F908F907F906F900895CF92DF92EF924E
:10066000FF920F931F93CF93DF93CDB7DEB72797FA
:100670000FB6F894DEBF0FBECDBF8C01BC01CE011A
:1006800001960E945A0C62E070E0CE0101960E9431
:100690009B020E94AF107C01CE0101960E94B50B17
:1006A000B801CE0101960E945A0C61E070E0CE01C3
:1006B00001960E949B020E94AF106C01CE01019630
:1006C0000E94B50BB801CE0101960E945A0C63E05E
:1006D00070E0CE0101960E949B020E94AF108C0137
:1006E000CE0101960E94B50BF60144E0EE0FFF1F0C
:1006F0004A95E1F7E459FD4F101611061CF481E00C
:10070000818701C01186B701CF010E94B5006FE556
:1007100071E08CE992E00E947F084AE050E0B60167
:100720008CE992E00E9459096DE671E08CE992E053
:100730000E947F084AE050E0B7018CE992E00E94F5
:1007400059096AE771E08CE992E00E947F084AE06B
:1007500050E0B8018CE992E00E94610927960FB63B
:10076000F894DEBF0FBECDBFDF91CF911F910F91E7
:10077000FF90EF90DF90CF900895FB0120813181B1
:10078000DC0111963C932E932281338113963C9386
:100790002E9312972481358115963C932E931497AE
:1007A0006A5F7F4F06960C945A0C06960C94B50B14
:1007B00010927902109278021092890210928802A7
:1007C000109299021092980208958F929F92AF9280
:1007D000BF92CF92DF92EF92FF920F931F93CF932E
:1007E000DF93CDB7DEB727970FB6F894DEBF0FBE05
:1007F000CDBF6C01109209020E94D803E12CF12CAC
:1008000099249394870154E0000F111F5A95E1F742
:1008100004591D4F6AE071E0CE0101960E94260C3A
:10082000580182E0A80EB11CBE016F5F7F4FC50169
:100830000E94E10C882ECE0101960E94B50B882003
:1008400031F0F60160817181C8010E94B5006EE04F
:1008500071E0CE0101960E94260CBE016F5F7F4FB2
:10086000C5010E94E10C882ECE0101960E94B50BB5
:10087000882031F0F60162817381C8010E94B500C1
:1008800064E171E0CE0101960E94260CBE016F5F0B
:100890007F4FC5010E94E10CB82ECE0101960E9447
:1008A000B50BBB2031F0F60164817581C8010E944F
:1008B000B500F8019186FFEFEF1AFF0A83E0E81612
:1008C000F10409F09FCF27960FB6F894DEBF0FBE54
:1008D000CDBFDF91CF911F910F91FF90EF90DF90EF
:1008E000CF90BF90AF909F908F90089580E490E05C
:1008F000909379028093780280E690E09093890249
:100900008093880280E190E090939902809398020E
:1009100068E871E08CE992E00C949E081F93CF93F5
:10092000DF93CDB7DEB764970FB6F894DEBF0FBE86
:10093000CDBF67EC71E0CE010E960E94260CBE0181
:10094000625F7F4F8AE092E00E94E10C182FCE0197
:100950000E960E94B50B112319F081E00E948702C8
:100960006FEC71E0CE010E960E94260CBE01625F14
:100970007F4F8AE092E00E94E10C182FCE010E9684
:100980000E94B50B112319F080E00E94870268EAEB
:1009900071E0CE010E960E94260CBE01625F7F4F71
:1009A0008AE092E00E94E10C182FCE010E960E9480
:1009B000B50B112371F06AE072E0CE010E960E9431
:1009C0005A0CCE010E960E942D03CE010E960E9467
:1009D000B50B68ED71E0CE010E960E94260CBE01AB
:1009E000625F7F4F8AE092E00E94E10C182FCE01F7
:1009F0000E960E94B50B112371F06FE572E0CE01E7
:100A000001960E94BD03CE0101960E94E503CE012E
:100A100001960E94D5036AE071E0CE010E960E9415
:100A2000260CBE01625F7F4F8AE092E00E94E10CDB
:100A3000182FCE010E960E94B50B112371F062E5BE
:100A400072E0CE0101960E94BD03CE0101960E9484
:100A5000E503CE0101960E94D5036EE071E0CE0160
:100A60000E960E94260CBE01625F7F4F8AE092E0E4
:100A70000E94E10C182FCE010E960E94B50B112397
:100A800071F065E472E0CE0101960E94BD03CE01D3
:100A900001960E94E503CE0101960E94D50364E110
:100AA00071E0CE010E960E94260CBE01625F7F4F60
:100AB0008AE092E00E94E10C182FCE010E960E946F
:100AC000B50B112371F068E372E0CE0101960E942C
:100AD000BD03CE0101960E94E503CE0101960E945E
:100AE000D5036CEA71E0CE010E960E94260CBE0181
:100AF000625F7F4F8AE092E00E94E10C182FCE01E6
:100B00000E960E94B50B112371F06BE272E0CE01DC
:100B100001960E94BD03CE0101960E94E503CE011D
:100B200001960E94D50363EB71E0CE010E960E9400
:100B3000260CBE01625F7F4F8AE092E00E94E10CCA
:100B4000182FCE010E960E94B50B112371F06EE1A5
:100B500072E0CE0101960E94BD03CE0101960E9473
:100B6000E503CE0101960E94D5036AEB71E0CE0148
:100B70000E960E94260CBE01625F7F4F8AE092E0D3
:100B80000E94E10C182FCE010E960E94B50B112386
:100B900071F061E172E0CE0101960E94BD03CE01C9
:100BA00001960E94E503CE0101960E94D50362ECF6
:100BB00071E0CE010E960E94260CBE01625F7F4F4F
:100BC0008AE092E00E94E10C182FCE010E960E945E
:100BD000B50B112319F081E0809309026AEC71E0F2
:100BE000CE010E960E94260CBE01625F7F4F8AE006
:100BF00092E00E94E10C182FCE010E960E94B50BD8
:100C000011111092090263ED71E0CE010E960E945F
:100C1000260CBE01625F7F4F8AE092E00E94E10CE9
:100C2000182FCE010E960E94B50B11110E9476046A
:100C30006EED71E0CE010E960E94260CBE01625F41
:100C40007F4F8AE092E00E94E10C182FCE010E96B1
:100C50000E94B50B11110E94D8030E94E90164960D
:100C60000FB6F894DEBF0FBECDBFDF91CF911F91BD
:100C700008951F93CF93DF93CDB7DEB727970FB6B5
:100C8000F894DEBF0FBECDBF8CE992E00E947B09D5
:100C90001816190664F58CE992E00E94AA09182F2B
:100CA000682F8AE092E00E94AA0C612F8CE992E002
:100CB0000E9481081D3011F01B33C9F46AE08CE9F1
:100CC00092E00E9481086AE072E0CE0101960E94E3
:100CD0005A0CCE0101960E948E04CE0101960E940C
:100CE000B50B68E371E08AE092E00E94640C2796FD
:100CF0000FB6F894DEBF0FBECDBFDF91CF911F912D
:100D0000089520917A0230917B0240918A0250919D
:100D10008B02240F351F40919A0250919B02240FA1
:100D2000351F4091000250910102421753070CF009
:100D300081E00895CF92DF92EF92FF9280910902B5
:100D4000882309F46AC08091FE019091FF018F3FD2
:100D5000910569F164F11092FF011092FE0123E008
:100D600030E040E050E060E070E0CB010E948A0B90
:100D70006B017C0122E030E040E050E060E070E098
:100D8000CB010E948A0BC60174E0880F991F7A95E7
:100D9000E1F784599D4F909307028093060281E00A
:100DA000611101C080E00E94810680930802809159
:100DB00002029091030220910402309105028217F1
:100DC000930734F40196909303028093020225C0A6
:100DD0008091FE019091FF0101969093FF01809315
:100DE000FE011092030210920202809108028823F1
:100DF00019F021E030E002C02FEF3FEF80910602B2
:100E000090910702FC0166857785620F731FFF9042
:100E1000EF90DF90CF900C94B500FF90EF90DF90B3
:100E2000CF9008950E943A020E9439060C949A06C7
:100E3000CF93DF93CCE6D2E068E371E0CE01029677
:100E40000E94260C609682E0CC39D807A9F78FE57E
:100E500092E00E94C70082E592E00E94C70085E40C
:100E600092E00E94C70088E392E00E94C7008BE2F4
:100E700092E00E94C7008EE192E00E94C70081E1EB
:100E800092E00E94C70068E371E08AE092E0DF919F
:100E9000CF910C94260C0C9489001F93CF93DF9371
:100EA000182FEB0161E00E94D807209711F460E051
:100EB00004C0CF3FD10539F461E0812FDF91CF919C
:100EC0001F910C941008E12FF0E0E859FF4FE491D6
:100ED000E330B9F028F4E13051F0E230B1F50CC064
:100EE000E63019F1E73049F1E43079F514C084B502
:100EF000806884BDC7BD2EC084B5806284BDC8BD76
:100F000029C080918000806880938000D093890000
:100F1000C09388001FC08091800080628093800011
:100F2000D0938B00C0938A0015C08091B000806878
:100F30008093B000C093B3000DC08091B000806278
:100F40008093B000C093B40005C0C038D1050CF048
:100F5000B3CFADCFDF91CF911F910895833069F06A
:100F600028F48130A1F0823011F514C08630B1F040
:100F70008730C1F08430D9F404C0809180008F772D
:100F800003C0809180008F7D80938000089584B598
:100F90008F7702C084B58F7D84BD08958091B000A5
:100FA0008F7703C08091B0008F7D8093B00008954B
:100FB000CF93DF9390E0FC01E458FF4F4491FC0194
:100FC000E057FF4F8491882341F190E0880F991FEB
:100FD000FC01E255FF4F25913491D9018C559F4F6B
:100FE000FC0185919491C82FD92F9FB7F8948C91CB
:100FF000611106C0409584238C938881842308C0A6
:10100000623041F4242F209582238C938881842B95
:10101000888302C0842B8C939FBFDF91CF9108956A
:101020000F931F93CF93DF931F92CDB7DEB7282F77
:1010300030E0F901E859FF4F8491F901E458FF4F7E
:101040001491F901E057FF4F04910023D1F0882358
:1010500021F069830E94AE076981E02FF0E0EE0F76
:10106000FF1FEC55FF4F85919491DC019FB7F894D9
:101070008C91611103C01095812301C0812B8C9349
:101080009FBF0F90DF91CF911F910F910895CF9245
:10109000DF92EF92FF920F931F93CF93DF936C0138
:1010A000EB017A01E60EF71E00E010E00BC069913B
:1010B000D601ED91FC910190F081E02DC6010995DA
:1010C000080F191FCE15DF0591F7C801DF91CF91E9
:1010D0001F910F91FF90EF90DF90CF900895DB016B
:1010E0000D900020E9F7AD0141505109461B570B07
:1010F000DC01ED91FC910280F381E02D09940C94C8
:101100006F08DC01ED91FC910190F081E02D0994D4
:101110000F931F93CF93DF93EC016DE00E94810842
:101120008C016AE0CE010E9481089C01200F311FD2
:10113000C901DF91CF911F910F9108950F931F93D4
:10114000CF93DF93EC010E946F088C01CE010E94C7
:1011500088089801280F391FC901DF91CF911F918D
:101160000F9108954F925F926F927F929F92AF92EC
:10117000BF92CF92DF92EF92FF920F931F93CF9384
:10118000DF93CDB7DEB7A1970FB6F894DEBF0FBEE1
:10119000CDBF5C016A017B01922E19A281E082170A
:1011A00010F08AE0982E8E010F5D1F4F492C512CB4
:1011B000612C712CC701B601A30192010E94F70DA9
:1011C0008C2D929E80191124015011098A3014F43B
:1011D000805D01C0895CF801808369017A01C114D6
:1011E000D104E104F10431F7B801C5010E946F0890
:1011F000A1960FB6F894DEBF0FBECDBFDF91CF91A1
:101200001F910F91FF90EF90DF90CF90BF90AF9024
:101210009F907F906F905F904F900895CF92DF9254
:10122000EF92FF920F931F93CF93DF93EC016A012C
:101230007B012115310579F4E881F9810190F08174
:10124000E02D642FDF91CF911F910F91FF90EF90D0
:10125000DF90CF9009942A30310519F477FD0EC044
:101260002AE0B701A601CE01DF91CF911F910F9126
:10127000FF90EF90DF90CF900C94B2086DE20E9447
:1012800081088C0144275527BA014C195D096E0964
:101290007F092AE0CE010E94B208080F191FC80179
:1012A000DF91CF911F910F91FF90EF90DF90CF9042
:1012B00008959A01AB01662757FD6095762F0C942F
:1012C0000E090F931F93CF93DF93EC019A01AB01AB
:1012D000662757FD6095762F0E940E098C01CE017E
:1012E0000E9488089801280F391FC901DF91CF910A
:1012F0001F910F910895FC0184859585FC01E05CA8
:10130000FF4F20813181FC01EE5BFF4F8081918195
:10131000281B390B2F733327C9010895FC018485DD
:101320009585FC01E05CFF4F40815181FC01EE5B43
:10133000FF4F208131814217530741F00190F08126
:10134000E02DE80FF91F208130E002C02FEF3FEFC2
:10135000C9010895FC0184859585FC01E05CFF4F7F
:1013600040815181FC01EE5BFF4F208131814217AA
:10137000530781F0A081B181A80FB91F8C91208102
:1013800031812F5F3F4F2F73332731832083282FE5
:1013900030E002C02FEF3FEFC9010895FC018685C0
:1013A0009785FC01E05CFF4FDC01AE5BBF4F4081E5
:1013B00051812D913C91119742175307C1F7089520
:1013C000CF93DF93FC0186859785DC01A05CBF4F3E
:1013D0002D913C9111972F5F3F4F2F733327EC01D5
:1013E000CE5BDF4F4881598124173507D9F30D9023
:1013F000BC91A02DA80FB91F6C93A685B785A05CE2
:10140000BF4F11963C932E93A689B7892C9181E00A
:1014100090E0058C02C0880F991F0A94E2F7282BF0
:101420002C9381E090E0DF91CF91089508951F9271
:101430000F920FB60F9211242F933F934F938F93D8
:101440009F93EF93FF934091C60080913F0390914B
:10145000400301968F7399272091410330914203F5
:101460008217930759F0E0913F03F0914003E15058
:10147000FD4F40839093400380933F03FF91EF9192
:101480009F918F914F913F912F910F900FBE0F9091
:101490001F9018958CE992E00E947B09892B11F02E
:1014A0000C94160A08951F920F920FB60F921124F2
:1014B0002F933F938F939F93EF93FF932091FB0282
:1014C0003091FC028091FD029091FE0228173907AD
:1014D00031F48091C1008F7D8093C10014C0E091F0
:1014E000FD02F091FE02E554FD4F20818091FD0246
:1014F0009091FE0201968F7399279093FE0280933C
:10150000FD022093C600FF91EF919F918F913F9133
:101510002F910F900FBE0F901F901895CF92DF92D2
:10152000EF92FF92CF93DF93EC016A017B014115AB
:1015300081EE580761057105F9F0EC89FD8981E0BC
:1015400090E00E8C02C0880F991F0A94E2F7808306
:1015500060E079E08DE390E0A70196010E94F70D2D
:1015600021503109410951095695479537952795DD
:10157000211580E1380798F0EC89FD89108260E838
:1015800074E88EE190E0A70196010E94F70D2150CA
:101590003109410951095695479537952795E889AD
:1015A000F9893083EA89FB892083EE89FF894081AC
:1015B00081E090E09C010A8C02C0220F331F0A9444
:1015C000E2F7422B4083EE89FF8940819C010B8C1E
:1015D00002C0220F331F0A94E2F7422B4083EE89A8
:1015E000FF8940819C010C8C02C0220F331F0A949A
:1015F000E2F7422B4083EE89FF8920810D8C02C0E7
:10160000880F991F0A94E2F7809582238083DF91E7
:10161000CF91FF90EF90DF90CF90089510929F02AE
:1016200010929E0288EE93E0A0E0B0E08093A002CA
:101630009093A102A093A202B093A30281EF91E044
:1016400090939D0280939C028FEF92E09093A90269
:101650008093A8028BEB92E09093AB028093AA0256
:1016600085EC90E09093AD028093AC0284EC90E026
:101670009093AF028093AE0280EC90E09093B10221
:101680008093B00281EC90E09093B3028093B20219
:1016900086EC90E09093B5028093B40284E080934E
:1016A000B60283E08093B70287E08093B80285E0BA
:1016B0008093B90281E08093BA0208950F931F933B
:1016C000CF93DF9300D000D0CDB7DEB79B01AC0144
:1016D000611571058105910579F069833A834B8322
:1016E0005C830E94D90F29813A814B815C810E94E1
:1016F000190E8B019C0103C000E010E09801B801B5
:10170000C9010F900F900F900F90DF91CF911F9113
:101710000F910895CF92DF92EF92FF926B017C01BF
:10172000621773078407950764F4CA01B9016C193D
:101730007D098E099F090E945E0BC60ED71EE81E0A
:10174000F91EB601C701FF90EF90DF90CF9008958A
:101750000E94BC0D0E94CC00CAE4DAE00E9412078D
:101760002097E1F30E944A0AF9CFFC018081918120
:101770000C94ED0ECF93DF93EC0188819981009753
:1017800011F00E94ED0E198218821D821C821B82AC
:101790001A82DF91CF9108950F931F93CF93DF9318
:1017A000EC018B016F5F7F4F888199810E94E70F69
:1017B000009731F0998388831B830A8381E001C0FD
:1017C00080E0DF91CF911F910F910895CF93DF9328
:1017D000EC0188819981892B31F08A819B81861760
:1017E000970708F00CC0CE010E94CC0B882349F06B
:1017F0008C819D81892B19F4E881F981108281E027
:1018000001C080E0DF91CF910895EF92FF920F9396
:101810001F93CF93DF93EC017B018A01BA010E94F1
:10182000E60B811104C0CE010E94BA0B07C01D83D4
:101830000C83B701888199810E94D610CE01DF9177
:10184000CF911F910F91FF90EF900895DC011196B9
:101850001C921E9213961C921E92129715961C9221
:101860001E92149716961C926115710559F0DB01B2
:101870000D900020E9F7AD0141505109461B570B6F
:101880000C94050C0895CF93DF93EC01FB018617B0
:10189000970761F0608171816115710529F04481BC
:1018A00055810E94050C02C00E94BA0BCE01DF9147
:1018B000CF910895FC011182108213821282158249
:1018C000148216820C94430CCF93DF93D82FC92F28
:1018D0006115710561F0DB010D900020E9F7AD01A4
:1018E00041505109461B570B0E94050C02C00E9433
:1018F000BA0B8D2F9C2FDF91CF910895EF92FF921D
:101900000F931F93CF93DF93EC017B010C811D811B
:101910006115710511F480E016C04115510591F073
:10192000040F151FB8010E94E60B8823A1F328813C
:1019300039818C819D81B701820F931F0E94D6103F
:101940001D830C8381E0DF91CF911F910F91FF9058
:10195000EF900895CF93DF9300D0CDB7DEB76983C2
:101960001A8241E050E0BE016F5F7F4F0E947E0C03
:101970000F900F90DF91CF910895FA01DB0114963B
:101980004D915C911597DC0114962D913C91159722
:10199000241B350B2E173F0790F08D919C910097DB
:1019A00071F0DB016D917C916115710541F08E0F35
:1019B0009F1F0E94DD109C0181E0232B09F080E035
:1019C0000895FC0144815581FB0124813581421732
:1019D000530720F040E050E00C94BD0C80E00895E7
:1019E000FC01248135816217730748F4808191815D
:1019F000009729F0FC01E60FF71F8081089580E031
:101A000008950C94F00C0F931F93CF93DF93EB0189
:101A100041155105E9F02097D9F0FC0104811581A9
:101A20002017310708F013C041505109021B130B56
:101A30004017510708F48A01FC0160817181620F2F
:101A4000731FA801CE010E94EB10C00FD11F188296
:101A5000DF91CF911F910F910895BF92CF92DF92A6
:101A6000EF92FF920F931F93CF93DF936C017B0153
:101A7000EA0189012417350720F48D2FE901042F8D
:101A8000182F68E371E0C6010E94260CD701149656
:101A90008D919C9115978C179D07C8F08017910721
:101AA00008F48C01D701ED91FC911197E00FF11F23
:101AB000B08010826D917C916C0F7D1FC6010E94D9
:101AC000640CD701ED91FC91E00FF11FB082C601CB
:101AD000DF91CF911F910F91FF90EF90DF90CF900A
:101AE000BF9008951F920F920FB60F9211242F935B
:101AF0003F938F939F93AF93BF93809143039091B4
:101B00004403A0914503B091460330914B03232F2A
:101B10002D5F2D3720F40196A11DB11D05C0232F87
:101B20002A570296A11DB11D20934B0380934303B6
:101B300090934403A0934503B093460380914703D9
:101B400090914803A0914903B0914A030196A11DC9
:101B5000B11D8093470390934803A0934903B0932A
:101B60004A03BF91AF919F918F913F912F910F9019
:101B70000FBE0F901F901895789484B5826084BD35
:101B800084B5816084BD85B5826085BD85B5816081
:101B900085BDEEE6F0E0808181608083E1E8F0E0E1
:101BA0001082808182608083808181608083E0E810
:101BB000F0E0808181608083E1EBF0E080818460EF
:101BC0008083E0EBF0E0808181608083EAE7F0E0F1
:101BD0008081846080838081826080838081816055
:101BE00080838081806880831092C1000895A1E283
:101BF0001A2EAA1BBB1BFD010DC0AA1FBB1FEE1F87
:101C0000FF1FA217B307E407F50720F0A21BB30BD1
:101C1000E40BF50B661F771F881F991F1A9469F74D
:101C200060957095809590959B01AC01BD01CF01A9
:101C30000895052E97FB16F4009407D057FD0DD09C
:101C40000E94F70D07FC09D07EF490958095709561
:101C500061957F4F8F4F9F4F0895509540953095D8
:101C600021953F4F4F4F5F4F08950E94460EA59F0D
:101C7000900DB49F900DA49F800D911D1124089587
:101C8000EE0FFF1F0590F491E02D0994A29FB00183
:101C9000B39FC001A39F01D0B29F700D811D11247D
:101CA000911D08950F931F93CF93DF938230910579
:101CB00010F482E090E0E0914E03F0914F0320E0B9
:101CC00030E0C0E0D0E023C040815181481759077F
:101CD000A8F04817590761F482819381209719F081
:101CE0009B838A832EC090934F0380934E0329C019
:101CF0002115310529F04217530710F0A90102C040
:101D0000BE01DF0102811381EF019A01F8013097D2
:101D1000D9F62115310509F1281B390B243031057D
:101D200090F412968D919C9113976115710521F095
:101D3000FB019383828304C090934F0380934E03EF
:101D4000FD01329644C0FD01E20FF31F8193919390
:101D5000225031092D933C933AC020914C0330918D
:101D60004D03232B41F42091020130910301309364
:101D70004D0320934C032091000130910101211566
:101D8000310541F42DB73EB7409104015091050152
:101D9000241B350BE0914C03F0914D03E217F30740
:101DA000A0F42E1B3F0B2817390778F0AC014E5FCB
:101DB0005F4F2417350748F04E0F5F1F50934D03B8
:101DC00040934C038193919302C0E0E0F0E0CF0197
:101DD000DF91CF911F910F910895EF92FF920F9392
:101DE0001F93CF93DF93009709F48EC0DC01129705
:101DF00013961C921E921297E0904E03F0904F03A0
:101E0000E114F10489F42D913C911197280F391FA9
:101E100080914C0390914D038217930789F5B093FD
:101E20004D03A0934C0370C0E70120E030E001C0F7
:101E3000EA01CA17DB0738F44A815B819E0141152C
:101E40005105B1F722C0AC0142505109FA01D383C8
:101E5000C28300811181BC01600F711F6C177D0767
:101E600061F468817981600F711F6E5F7F4F7183AC
:101E700060836A817B81738362832115310529F434
:101E8000B0934F03A0934E033FC0F901B383A283E5
:101E9000E90149915991C40FD51FAC17BD0771F4E1
:101EA000DC019E918E91840F951F02969183808311
:101EB00012968D919C91139793838283A0E0B0E05A
:101EC00002C0D7017C01F701828193810097C9F795
:101ED000C701029620813181820F931F20914C030C
:101EE00030914D032817390779F4109729F410928F
:101EF0004F0310924E0304C013961C921E92129729
:101F0000F0924D03E0924C03CDB7DEB7E6E00C94BF
:101F100032118F929F92AF92BF92CF92DF92EF9247
:101F2000FF92CF93DF93EC01688179818A819B8155
:101F3000611571058105910521F464E279ED8BE568
:101F400097E02DE133EF41E050E00E94190E490186
:101F50005A019B01AC01A7EAB1E40E94350E6B0166
:101F60007C01ACEEB4EFA50194010E940511C60EF0
:101F7000D71EE81EF91EF7FE06C081E0C81AD10878
:101F8000E10880E8F80AC882D982EA82FB82E894F4
:101F9000F7F8B601C701DF91CF91FF90EF90DF9086
:101FA000CF90BF90AF909F908F9008950E94890F1F
:101FB000089586E091E00E94890F089560930601DC
:101FC0007093070180930801909309010895A0E0A0
:101FD000B0E0EDEEFFE00C941011EC01009729F455
:101FE000CB010E94520EEC01B4C0DC01A60FB71F5A
:101FF000FC013297AE17BF0718F4C0E0D0E0A9C0CB
:102000000081118106171707B0F00530110508F49B
:10201000A0C0C80104978617970708F49AC0025019
:102020001109061B170B0D931D9371836083CD015E
:102030000E94ED0E8EC06B01C01AD10A7C01E00E29
:10204000F11EE0914E03F0914F0320E030E080E07C
:1020500090E048C0EE15FF05D1F5808091805401D5
:1020600042E0A40EB11CAC14BD0488F17401EC185C
:10207000FD08670122E0C20ED11C9E0122503109E9
:1020800045E0C416D10478F04281538113965C93E5
:102090004E9312971196FC92EE92F9017183608330
:1020A0003A2F2B2F09C00E5F1F4F080D191DD901A4
:1020B0000D931C9332812381009721F0FC01328320
:1020C000238347C030934E0320934F0342C0808147
:1020D00091812817390708F49C0152814381CF016F
:1020E000E52FF42F309709F0B5CF80914C039091F4
:1020F0004D038E159F05F1F426173707D8F480910C
:10210000000190910101009741F48DB79EB7209195
:10211000040130910501821B930BA817B90708F041
:102120006CCFB0934D03A0934C03FE0132977183A3
:1021300060830FC0CB010E94520E7C01009709F40E
:102140005CCFA801BE010E94CD10CE010E94ED0E11
:10215000E701CE01CDB7DEB7ECE00C942C11FC0109
:1021600088279927E89421912032E9F3293010F04B
:102170002E30C8F32B3241F02D3239F4689404C06C
:102180000E94FA10820F911D219120532A30C0F332
:102190001EF4909581959F4F0895FB01DC0102C0CC
:1021A00001900D9241505040D8F70895FB01DC0199
:1021B00001900D920020E1F70895FB01DC014150F0
:1021C000504030F08D910190801919F40020B9F73A
:1021D000881B990B0895FB01DC014150504048F0E9
:1021E00001900D920020C9F701C01D92415050404E
:1021F000E0F708957AE0979F902D879F802D910DAD
:1022000011240895B7FF0C94350E0E94350E821BE1
:10221000930B08952F923F924F925F926F927F920D
:102220008F929F92AF92BF92CF92DF92EF92FF92E6
:102230000F931F93CF93DF93CDB7DEB7CA1BDB0B92
:102240000FB6F894DEBF0FBECDBF09942A88398837
:1022500048885F846E847D848C849B84AA84B9843E
:10226000C884DF80EE80FD800C811B81AA81B9814A
:10227000CE0FD11D0FB6F894DEBF0FBECDBFED015E
:10228000089510E0CCEBD0E004C0FE010E94420EA5
:0C2290002296CE3BD107C9F7F894FFCF8F
:10229C00000050032000010000005245440047524A
:1022AC0045454E00424C554500496C6C756D696E48
:1022BC0061747269782067726565747320796F75C3
:1022CC002E004C4544202320002C2076616C756533
:1022DC003A20002C2073746174653A20004C4544FC
:1022EC00207374617465206368616E676564004374
:1022FC0068616E676564204C45442023002C207770
:10230C00697468206D6F646520002C20616E6420F8
:10231C007374617475732000526967676564206615
:10232C006F722077686974652D62616973656420CA
:10233C006379636C696E67005345540059454C4C86
:10234C004F5700505552504C45005354414E444247
:10235C0059004359434C454F4E004359434C454F4C
:10236C004646004359434C4557484954450052454D
:10237C00534554434F4C4F524D494E5300000000AF
:0E238C0000E00947087B09AA098E09CE090066
:00000001FF
