:100000000C945F000C9487000C9487000C9487007C
:100010000C9487000C9487000C9487000C94870044
:100020000C9487000C9487000C9487000C94870034
:100030000C9487000C9487000C9487000C94870024
:100040000C9428030C9487000C94C4060C940007AD
:100050000C9487000C9487000C9487000C94870004
:100060000C9487000C948700000000070002010038
:100070000003040600000000000000000102040864
:100080001020408001020408102001020408102002
:10009000040404040404040402020202020203032E
:1000A0000303030300000000250028002B000000CC
:1000B0000000240027002A00BD02BB07C302112450
:1000C0001FBECFEFD4E0DEBFCDBF11E0A0E0B1E0B6
:1000D000E4E0F8E102C005900D92A437B107D9F72A
:1000E00012E0A4E7B1E001C01D92AD34B107E1F721
:1000F00010E0CCEBD0E004C02297FE010E949D09E5
:10010000C83BD107C9F70E940B080C94F50B0C945F
:1001100000000F931F93CF93DF93CDE7D1E000E072
:1001200010E066E071E081EA91E00E9404054AE097
:1001300050E0B80181EA91E00E9406066BE071E0B0
:1001400081EA91E00E9404056D817E814AE050E0E1
:1001500081EA91E00E9406066BE071E081EA91E09D
:100160000E94040568814AE050E070E081EA91E075
:100170000E940E060F5F1F4F29960330110589F666
:10018000DF91CF911F910F9108950F931F93CF93FC
:10019000DF93CDB7DEB729970FB6F894DEBF0FBE59
:1001A000CDBF78878987802F222319F068857985CC
:1001B00002C060E070E029960FB6F894DEBF0FBE73
:1001C000CDBFDF91CF911F910F910C94C702FF9289
:1001D0000F931F93CF93DF93C0E0D0E089E0F82E18
:1001E000FC9EF001FD9EF00D1124E558FE4F0081AC
:1001F0001181228133814481558166817781808597
:100200000E94C5002196C330D10551F7DF91CF91EF
:100210001F910F91FF90089561E083E00E942704F1
:1002200061E085E00E94270461E086E00E942704E7
:10023000EBE7F1E041E0428383E090E0918380834B
:100240008FEF90E090937F0180937E011092810167
:100250001092800120E630E03093830120938201E8
:10026000438725E030E0309385012093840190930B
:1002700088018093870110928A011092890128ECED
:1002800030E030938C0120938B01448B26E030E0EA
:1002900030938E0120938D01909391018093900172
:1002A000109293011092920184EB90E0909395014B
:1002B0008093940187E090E090939701809396015A
:1002C00040E855E260E070E081EA91E00E943B077F
:1002D0000E94E7006DE071E081EA91E00C9437053F
:1002E000CF93C82F69E171E081EA91E00E94370560
:1002F00091E0C11101C090E090937D01909386013F
:1003000090938F01CF910895EF92FF920F931F93D7
:10031000CF93DF93EC01BC0181EA91E00E942305B9
:1003200064E070E0CE010E947709E82EFF24E7FC2C
:10033000F09466E070E0CE010E9477099CE18902AA
:100340008001112468E070E0CE010E9477098133BA
:1003500059F489E08E9DF0018F9DF00D1124E55830
:10036000FE4F81E0828309C089E08E9DF0018F9D60
:10037000F00D1124E558FE4F128289E08E9DF001A8
:100380008F9DF00D1124E558FE4F838194818017D5
:1003900091070CF405C085819681081719071CF494
:1003A0009087878302C0108707836BE271E081EA40
:1003B00091E00E94040564E070E0CE010E945309C0
:1003C000FC01608181EA91E00E9406056AE371E028
:1003D00081EA91E00E94040566E070E0CE010E948F
:1003E0005309FC01608181EA91E00E9406056BE4FB
:1003F00071E081EA91E00E94040568E070E0CE01BE
:100400000E945309FC01608181EA91E0DF91CF9164
:100410001F910F91FF90EF900C944B051F93CF937A
:10042000DF93CDB7DEB727970FB6F894DEBF0FBEC8
:10043000CDBF68E571E0CE0101960E948908BE013A
:100440006F5F7F4F84E791E00E944409182FCE012F
:1004500001960E941808112319F081E00E94700192
:100460006BE571E0CE0101960E948908BE016F5FC5
:100470007F4F84E791E00E944409182FCE01019636
:100480000E941808112319F080E00E9470016FE5A6
:1004900071E0CE0101960E948908BE016F5F7F4F17
:1004A00084E791E00E944409182FCE0101960E9432
:1004B0001808112371F064E771E0CE0101960E94E3
:1004C000BD08CE0101960E948401CE0101960E94D2
:1004D00018080E94890027960FB6F894DEBF0FBE59
:1004E000CDBFDF91CF911F9108951F93CF93DF93DD
:1004F000CDB7DEB727970FB6F894DEBF0FBECDBFDE
:1005000081EA91E00E9428061816190614F581EA7E
:1005100091E00E945706182F682F84E791E00E940F
:100520000D091D3011F01B33A1F464E771E0CE0119
:1005300001960E94BD08CE0101960E940E02CE01D6
:1005400001960E9418086CE071E084E791E00E9437
:10055000C70827960FB6F894DEBF0FBECDBFDF9158
:10056000CF911F9108950E94E7000E9475026AEFE3
:1005700070E080E090E00C949C036CE071E084E714
:1005800091E00C94890884E791E00C9418081F937B
:10059000CF93DF93182FEB0161E00E94270420978F
:1005A00011F460E004C0CF3FD10539F461E0812F40
:1005B000DF91CF911F910C945F04E12FF0E0E85997
:1005C000FF4FE491E330B9F028F4E13051F0E2302C
:1005D000B1F50CC0E63019F1E73049F1E43079F5B6
:1005E00014C084B5806884BDC7BD2EC084B5806248
:1005F00084BDC8BD29C08091800080688093800040
:10060000D0938900C09388001FC0809180008062D1
:1006100080938000D0938B00C0938A0015C0809196
:10062000B00080688093B000C093B3000DC080918B
:10063000B00080628093B000C093B40005C0C038A1
:10064000D1050CF0B3CFADCFDF91CF911F910895BD
:100650001F920F920FB60F9211242F933F938F93F7
:100660009F93AF93BF938091980190919901A0912E
:100670009A01B0919B013091A001232F2D5F2D375E
:1006800020F40196A11DB11D05C0232F2A57029603
:10069000A11DB11D2093A001809398019093990111
:1006A000A0939A01B0939B0180919C0190919D0130
:1006B000A0919E01B0919F010196A11DB11D809353
:1006C0009C0190939D01A0939E01B0939F01BF91C7
:1006D000AF919F918F913F912F910F900FBE0F90EF
:1006E0001F9018950F931F939FB7F89400919C014A
:1006F00010919D0120919E0130919F0186B5A89B8C
:1007000006C08F3F21F00F5F1F4F2F4F3F4F9FBFFE
:10071000322F212F102F0027080F111D211D311DF1
:1007200042E0000F111F221F331F4A95D1F7B80175
:10073000C9011F910F910895CF92DF92EF92FF921E
:10074000CF93DF936B017C010E947203EB010EC01B
:100750000E9472036C1B7D0B683E734038F081E091
:10076000C81AD108E108F108C851DC4FC114D104FE
:10077000E104F10469F7DF91CF91FF90EF90DF90F2
:10078000CF900895789484B5826084BD84B58160EB
:1007900084BD85B5826085BD85B5816085BDEEE689
:1007A000F0E0808181608083E1E8F0E01082808168
:1007B00082608083808181608083E0E8F0E08081D6
:1007C00081608083E1EBF0E0808184608083E0EBF6
:1007D000F0E0808181608083EAE7F0E080818460DE
:1007E000808380818260808380818160808380813A
:1007F000806880831092C1000895833069F028F4E6
:100800008130A1F0823011F514C08630B1F087300C
:10081000C1F08430D9F404C0809180008F7703C088
:10082000809180008F7D80938000089584B58F77BC
:1008300002C084B58F7D84BD08958091B0008F770C
:1008400003C08091B0008F7D8093B0000895CF9356
:10085000DF9390E0FC01E458FF4F4491FC01E05726
:10086000FF4F8491882341F190E0880F991FFC018C
:10087000E255FF4F25913491D9018C559F4FFC01D2
:1008800085919491C82FD92F9FB7F8948C916111BD
:1008900006C0409584238C938881842308C06230ED
:1008A00041F4242F209582238C938881842B888384
:1008B00002C0842B8C939FBFDF91CF9108950F933B
:1008C0001F93CF93DF931F92CDB7DEB7282F30E071
:1008D000F901E859FF4F8491F901E458FF4F149151
:1008E000F901E057FF4F04910023D1F0882321F054
:1008F00069830E94FD036981E02FF0E0EE0FFF1F86
:10090000EC55FF4F85919491DC019FB7F8948C9141
:10091000611103C01095812301C0812B8C939FBF6F
:100920000F90DF91CF911F910F910895CF92DF9299
:10093000EF92FF920F931F93CF93DF936C01EB0124
:100940007A01E60EF71E00E010E00BC06991D601B7
:10095000ED91FC910190F081E02DC6010995080F01
:10096000191FCE15DF0591F7C801DF91CF911F91B7
:100970000F91FF90EF90DF90CF900895DB010D90E5
:100980000020E9F7AD0141505109461B570BDC012E
:10099000ED91FC910280F381E02D0994AF92BF921A
:1009A000CF92DF92EF92FF920F931F93CF93DF933B
:1009B0007C016B0100E010E0C0E0D0E011C0D70185
:1009C000ED91FC91A080B180B801C6010E9466093A
:1009D000682FC701F5010995C80FD91F0F5F1F4F79
:1009E000D60114968D919C9115970817190738F325
:1009F000CE01DF91CF911F910F91FF90EF90DF908B
:100A0000CF90BF90AF9008950C94BE04DC01ED919F
:100A1000FC910190F081E02D09940F931F93CF93E7
:100A2000DF93EC016DE00E9406058C016AE0CE01C7
:100A30000E9406059C01200F311FC901DF91CF9153
:100A40001F910F9108950F931F93CF93DF93EC01A4
:100A50000E94CE048C01CE010E940D059C01200F46
:100A6000311FC901DF91CF911F910F9108950F930D
:100A70001F93CF93DF93EC010E94BE048C01CE0143
:100A80000E940D059801280F391FC901DF91CF91F0
:100A90001F910F9108950F931F93CF93DF93EC0154
:100AA0000E9406058C01CE010E940D059C01200FBD
:100AB000311FC901DF91CF911F910F9108954F927E
:100AC0005F926F927F929F92AF92BF92CF92DF928E
:100AD000EF92FF920F931F93CF93DF93CDB7DEB7C3
:100AE000A1970FB6F894DEBF0FBECDBF5C016A01BF
:100AF0007B01922E19A281E0821710F08AE0982ED5
:100B00008E010F5D1F4F492C512C612C712CC70198
:100B1000B601A30192010E9479098C2D929E801941
:100B20001124015011098A3014F4805D01C0895CE0
:100B3000F801808369017A01C114D104E104F10450
:100B400031F7B801C5010E94BE04A1960FB6F89412
:100B5000DEBF0FBECDBFDF91CF911F910F91FF90F0
:100B6000EF90DF90CF90BF90AF909F907F906F906D
:100B70005F904F900895CF92DF92EF92FF920F9384
:100B80001F93CF93DF93EC016A017B01211531059F
:100B900079F4E881F9810190F081E02D642FDF91F3
:100BA000CF911F910F91FF90EF90DF90CF9009941C
:100BB0002A30310519F477FD0EC02AE0B701A601ED
:100BC000CE01DF91CF911F910F91FF90EF90DF90B9
:100BD000CF900C945F056DE20E9406058C014427BE
:100BE0005527BA014C195D096E097F092AE0CE012B
:100BF0000E945F05080F191FC801DF91CF911F9157
:100C00000F91FF90EF90DF90CF9008959A01AB0184
:100C1000662757FD6095762F0C94BB050F931F93A5
:100C2000CF93DF93EC019A01AB01662757FD6095E6
:100C3000762F0E94BB058C01CE010E940D05980104
:100C4000280F391FC901DF91CF911F910F9108958E
:100C5000FC0184859585FC01E05CFF4F208131819A
:100C6000FC01EE5BFF4F80819181281B390B2F73B4
:100C70003327C9010895FC0184859585FC01E05C5A
:100C8000FF4F40815181FC01EE5BFF4F208131819C
:100C90004217530741F00190F081E02DE80FF91F52
:100CA000208130E002C02FEF3FEFC9010895FC0121
:100CB00084859585FC01E05CFF4F40815181FC01FA
:100CC000EE5BFF4F208131814217530781F0A081F5
:100CD000B181A80FB91F8C91208131812F5F3F4FC7
:100CE0002F73332731832083282F30E002C02FEF6A
:100CF0003FEFC9010895FC0186859785FC01E05C02
:100D0000FF4FDC01AE5BBF4F408151812D913C9183
:100D1000119742175307C1F70895CF93DF93FC0152
:100D200086859785DC01A05CBF4F2D913C91119782
:100D30002F5F3F4F2F733327EC01CE5BDF4F48818E
:100D4000598124173507D9F30D90BC91A02DA80F18
:100D5000B91F6C93A685B785A05CBF4F11963C93D5
:100D60002E93A689B7892C9181E090E0058C02C072
:100D7000880F991F0A94E2F7282B2C9381E090E0CA
:100D8000DF91CF91089508951F920F920FB60F92A1
:100D900011242F933F934F938F939F93EF93FF9340
:100DA0004091C600809144029091450201968F7354
:100DB000992720914602309147028217930759F0F4
:100DC000E0914402F0914502EC5FFD4F4083909327
:100DD000450280934402FF91EF919F918F914F9133
:100DE0003F912F910F900FBE0F901F90189581EAA1
:100DF00091E00E942806892B11F00C94C3060895F7
:100E00001F920F920FB60F9211242F933F938F933F
:100E10009F93EF93FF932091000230910102809104
:100E20000202909103022817390731F48091C10022
:100E30008F7D8093C10014C0E0910202F091030203
:100E4000E054FE4F208180910202909103020196AE
:100E50008F73992790930302809302022093C60018
:100E6000FF91EF919F918F913F912F910F900FBE26
:100E70000F901F901895CF92DF92EF92FF92CF9331
:100E8000DF93EC016A017B01411581EE5807610592
:100E90007105F9F0EC89FD8981E090E00E8C02C0CB
:100EA000880F991F0A94E2F7808360E079E08DE370
:100EB00090E0A70196010E9479092150310941096A
:100EC00051095695479537952795211580E13807A3
:100ED00098F0EC89FD89108260E874E88EE190E07A
:100EE000A70196010E947909215031094109510950
:100EF0005695479537952795E889F9893083EA898A
:100F0000FB892083EE89FF89408181E090E09C018C
:100F10000A8C02C0220F331F0A94E2F7422B40834F
:100F2000EE89FF8940819C010B8C02C0220F331F88
:100F30000A94E2F7422B4083EE89FF8940819C01AD
:100F40000C8C02C0220F331F0A94E2F7422B40831D
:100F5000EE89FF8920810D8C02C0880F991F0A94A9
:100F6000E2F7809582238083DF91CF91FF90EF900D
:100F7000DF90CF9008951092A4011092A30188EE03
:100F800093E0A0E0B0E08093A5019093A601A09328
:100F9000A701B093A80187E691E09093A201809306
:100FA000A10184E092E09093AE018093AD0180ECCA
:100FB00091E09093B0018093AF0185EC90E0909325
:100FC000B2018093B10184EC90E09093B4018093DE
:100FD000B30180EC90E09093B6018093B50181EC71
:100FE00090E09093B8018093B70186EC90E09093E5
:100FF000BA018093B90184E08093BB0183E08093C0
:10100000BC0187E08093BD0185E08093BE0181E053
:101010008093BF0108950E94C2030E940C01C7EF94
:10102000D6E00E94B3022097E1F30E94F706F9CFC1
:10103000FC01808191810C943C0ACF93DF93EC01F9
:1010400088819981009711F00E943C0A19821882C8
:101050001D821C821B821A82DF91CF9108950F930B
:101060001F93CF93DF93EC018B016F5F7F4F8881DC
:1010700099810E94D80A009731F0998388831B8355
:101080000A8381E001C080E0DF91CF911F910F9131
:101090000895CF93DF93EC0188819981892B31F0FA
:1010A0008A819B818617970708F00CC0CE010E94A9
:1010B0002F08882349F08C819D81892B19F4E881C0
:1010C000F981108281E001C080E0DF91CF91089525
:1010D000EF92FF920F931F93CF93DF93EC017B016D
:1010E0008A01BA010E944908811104C0CE010E9400
:1010F0001D0807C01D830C83B701888199810E9458
:10110000A90BCE01DF91CF911F910F91FF90EF902E
:101110000895DC0111961C921E9213961C921E9249
:10112000129715961C921E92149716961C92611592
:10113000710559F0DB010D900020E9F7AD01415038
:101140005109461B570B0C9468080895CF93DF9301
:10115000EC01FB018617970761F0608171816115D1
:10116000710529F0448155810E94680802C00E94DF
:101170001D08CE01DF91CF910895FC0111821082EC
:10118000138212821582148216820C94A608CF93C1
:10119000DF93D82FC92F6115710561F0DB010D9028
:1011A0000020E9F7AD0141505109461B570B0E9441
:1011B000680802C00E941D088D2F9C2FDF91CF91DF
:1011C0000895EF92FF920F931F93CF93DF93EC015B
:1011D0007B010C811D816115710511F480E016C041
:1011E0004115510591F0040F151FB8010E944908DF
:1011F0008823A1F3288139818C819D81B701820FD9
:10120000931F0E94A90B1D830C8381E0DF91CF9176
:101210001F910F91FF90EF900895CF93DF9300D02F
:10122000CDB7DEB769831A8241E050E0BE016F5F3F
:101230007F4F0E94E1080F900F90DF91CF910895AA
:10124000FA01DB0114964D915C911597DC0114961F
:101250002D913C911597241B350B2E173F0790F0CD
:101260008D919C91009771F0DB016D917C916115DE
:10127000710541F08E0F9F1F0E94B00B9C0181E011
:10128000232B09F080E00895FC0144815581FB0186
:10129000248135814217530720F040E050E00C9440
:1012A000200980E00895FC012481358162177307CD
:1012B00020F480819181009729F41092480268E41B
:1012C00072E002C0680F791FCB010895FC012481F0
:1012D00035816217730748F480819181009729F066
:1012E000FC01E60FF71F8081089580E008950C94BB
:1012F0006609A1E21A2EAA1BBB1BFD010DC0AA1F85
:10130000BB1FEE1FFF1FA217B307E407F50720F06E
:10131000A21BB30BE40BF50B661F771F881F991FE9
:101320001A9469F760957095809590959B01AC0132
:10133000BD01CF010895EE0FFF1F0590F491E02D40
:1013400009940F931F93CF93DF938230910510F48C
:1013500082E090E0E0914B02F0914C0220E030E01E
:10136000C0E0D0E023C04081518148175907A8F060
:101370004817590761F482819381209719F09B8364
:101380008A832EC090934C0280934B0229C0211572
:10139000310529F04217530710F0A90102C0BE0120
:1013A000DF0102811381EF019A01F8013097D9F62C
:1013B0002115310509F1281B390B2430310590F432
:1013C00012968D919C9113976115710521F0FB0187
:1013D0009383828304C090934C0280934B02FD015F
:1013E000329644C0FD01E20FF31F81939193225086
:1013F00031092D933C933AC02091490230914A0221
:10140000232B41F4209102013091030130934A02D1
:1014100020934902209100013091010121153105ED
:1014200041F42DB73EB74091040150910501241BB2
:10143000350BE0914902F0914A02E217F307A0F45C
:101440002E1B3F0B2817390778F0AC014E5F5F4F1A
:101450002417350748F04E0F5F1F50934A02409300
:1014600049028193919302C0E0E0F0E0CF01DF9167
:10147000CF911F910F910895EF92FF920F931F93B9
:10148000CF93DF93009709F48EC0DC011297139677
:101490001C921E921297E0904B02F0904C02E114C5
:1014A000F10489F42D913C911197280F391F8091F7
:1014B000490290914A028217930789F5B0934A0234
:1014C000A093490270C0E70120E030E001C0EA01CA
:1014D000CA17DB0738F44A815B819E01411551052B
:1014E000B1F722C0AC0142505109FA01D383C28343
:1014F00000811181BC01600F711F6C177D0761F4C1
:1015000068817981600F711F6E5F7F4F7183608387
:101510006A817B81738362832115310529F4B0933D
:101520004C02A0934B023FC0F901B383A283E901AF
:1015300049915991C40FD51FAC17BD0771F4DC0157
:101540009E918E91840F951F0296918380831296AF
:101550008D919C91139793838283A0E0B0E002C0A9
:10156000D7017C01F701828193810097C9F7C701F8
:10157000029620813181820F931F20914902309180
:101580004A022817390779F4109729F410924C026F
:1015900010924B0204C013961C921E921297F09266
:1015A0004A02E0924902CDB7DEB7E6E00C94E60BC2
:1015B000A0E0B0E0EEEDFAE00C94C40BEC01009773
:1015C00029F4CB010E94A109EC01B4C0DC01A60FF3
:1015D000B71FFC013297AE17BF0718F4C0E0D0E088
:1015E000A9C00081118106171707B0F00530110559
:1015F00008F4A0C0C80104978617970708F49AC09A
:1016000002501109061B170B0D931D937183608304
:10161000CD010E943C0A8EC06B01C01AD10A7C0128
:10162000E00EF11EE0914B02F0914C0220E030E020
:1016300080E090E048C0EE15FF05D1F580809180F4
:10164000540142E0A40EB11CAC14BD0488F1740135
:10165000EC18FD08670122E0C20ED11C9E01225049
:10166000310945E0C416D10478F0428153811396C4
:101670005C934E9312971196FC92EE92F90171834E
:1016800060833A2F2B2F09C00E5F1F4F080D191DC5
:10169000D9010D931C9332812381009721F0FC0125
:1016A0003283238347C030934B0220934C0242C0C5
:1016B000808191812817390708F49C015281438168
:1016C000CF01E52FF42F309709F0B5CF8091490273
:1016D00090914A028E159F05F1F426173707D8F42A
:1016E0008091000190910101009741F48DB79EB760
:1016F0002091040130910501821B930BA817B907B3
:1017000008F06CCFB0934A02A0934902FE013297D1
:10171000718360830FC0CB010E94A1097C010097F7
:1017200009F45CCFA801BE010E94A00BCE010E946B
:101730003C0AE701CE01CDB7DEB7ECE00C94E00B3C
:10174000FB01DC0102C001900D9241505040D8F7DE
:101750000895FB01DC0101900D920020E1F708954E
:10176000FB01DC014150504030F08D910190801917
:1017700019F40020B9F7881B990B08952F923F9216
:101780004F925F926F927F928F929F92AF92BF9291
:10179000CF92DF92EF92FF920F931F93CF93DF933D
:1017A000CDB7DEB7CA1BDB0B0FB6F894DEBF0FBE9A
:1017B000CDBF09942A88398848885F846E847D84E7
:1017C0008C849B84AA84B984C884DF80EE80FD80E9
:1017D0000C811B81AA81B981CE0FD11D0FB6F8945F
:1017E000DEBF0FBECDBFED01089510E0CCEBD0E021
:1017F00004C0FE010E949D092296CE3BD107C9F785
:04180000F894FFCF8A
:1018040000004D0220004C45442023200048656C14
:101814006C6F20776F726C64004C45442073746164
:101824007465206368616E676564004368616E6710
:10183400696E67204C45442023002C207769746826
:10184400206D6F64696669657220002C20616E6486
:1018540020737461746520004F4E004F4646005358
:10186400455400000000008D069604280657063BE8
:04187400067B0600E9
:00000001FF
