:100000000C945F000C9487000C9487000C9487007C
:100010000C9487000C9487000C9487000C94870044
:100020000C9487000C9487000C9487000C94870034
:100030000C9487000C9487000C9487000C94870024
:100040000C9442060C9487000C9480090C94BC0913
:100050000C9487000C9487000C9487000C94870004
:100060000C9487000C948700000000070002010038
:100070000003040600000000000000000102040864
:100080001020408001020408102001020408102002
:10009000040404040404040402020202020203032E
:1000A0000303030300000000250028002B000000CC
:1000B0000000240027002A00B405770ADF05112478
:1000C0001FBECFEFD4E0DEBFCDBF11E0A0E0B1E0B6
:1000D000EEE9FEE102C005900D92A83BB107D9F709
:1000E00012E0A8EBB1E001C01D92A53EB107E1F717
:1000F00010E0CCEBD0E004C02297FE010E94B50CCA
:10010000C83BD107C9F70E94C70A0C94420F0C9450
:10011000000089EB91E00E94D40A86EC91E00E94F5
:10012000D40A83ED91E00E94D40A80EE91E00E940F
:10013000D40A8DEE91E00E94D40A8AEF91E00E94E9
:10014000D40A83E292E00E94D40A83E192E00E9402
:10015000D40A83E092E00C94D40AFC018285938552
:10016000861797070CF405C084859585681779076D
:100170001CF497878687089577876687089564E3D8
:1001800071E006960C94450BDF92EF92FF920F936D
:100190001F93CF93DF93CDB7DEB727970FB6F894B1
:1001A000DEBF0FBECDBF0FEF10E01093F50100933F
:1001B000F4011093F7010093F60180E490E090932E
:1001C000F9018093F8011093E8010093E701109280
:1001D000EA011092E9011092EC011092EB011092E9
:1001E000DB011092DA011093DD010093DC01109223
:1001F000DF011092DE011092CE011092CD0110921B
:10020000D0011092CF011093D2010093D10180E16F
:1002100090E09093C1018093C0011092C3011092AD
:10022000C2011092C5011092C40166E071E0CE01D6
:1002300001960E94450B81E0E82E82E0F82EDD2435
:10024000D394F701D18683E090E09183808310936B
:100250000C0200930B0210920E0210920D0280E627
:1002600090E09093100280930F02BE016F5F7F4F6A
:1002700083E092E00E94620BCE0101960E94D40AB4
:100280006AE071E0CE0101960E94450BF701D18E24
:1002900085E090E0909312028093110210931C026B
:1002A00000931B0210921E0210921D0288EC90E037
:1002B0009093200280931F02BE016F5F7F4F83E106
:1002C00092E00E94620BCE0101960E94D40A60E186
:1002D00071E0CE0101960E94450BF701D1A686E0A0
:1002E00090E0909322028093210210932C020093BD
:1002F0002B0210922E0210922D0284EB90E090932C
:10030000300280932F02BE016F5F7F4F83E292E045
:100310000E94620BCE0101960E94D40A40E855E289
:1003200060E070E08AE392E00E94F7091092B80161
:1003300065E171E08AE392E00E94070827960FB614
:10034000F894DEBF0FBECDBFDF91CF911F910F910B
:10035000FF90EF90DF9008950F931F93CF93DF935B
:100360000AE012E0C0E0D0E06EE271E08AE392E0E1
:100370000E94E8074AE050E0BE018AE392E00E9452
:10038000C20865E371E08AE392E00E94E807FE019B
:1003900094E0EE0FFF1F9A95E1F7EF5FFD4F668542
:1003A00077854AE050E08AE392E00E94C2086FE35A
:1003B00071E08AE392E00E94E807F80160814AE078
:1003C00050E070E08AE392E00E94CA082196005F44
:1003D0001F4FC330D10541F6DF91CF911F910F918F
:1003E0000895FC018185882319F06685778502C010
:1003F0006485758580810C94E105EF92FF920F93DF
:100400001F93CF93DF93CDB7DEB760970FB6F89405
:10041000DEBF0FBECDBFE12CF12C870124E0000F21
:10042000111F2A95E1F70F5F1D4FF80181919191FE
:10043000BF019A838983CE0103960E94790BF8014C
:1004400081858A87828593859C878B87848595851E
:100450009E878D8786859785988B8F87CE0101969D
:100460000E94F101CE0103960E94D40AFFEFEF1A19
:10047000FF0A83E0E816F10481F660960FB6F8945F
:10048000DEBF0FBECDBFDF91CF911F910F91FF90C7
:10049000EF900895CF93C82F69E471E08AE392E06A
:1004A0000E94070891E0C11101C090E090930A02F8
:1004B00090931A0290932A02CF9108956F927F929F
:1004C0008F929F92AF92BF92CF92DF92EF92FF9264
:1004D0000F931F93CF93DF93CDB7DEB729970FB656
:1004E000F894DEBF0FBECDBF7C013B01ADB6BEB6FA
:1004F000C12CD12C812C912C00E010E014C00F5F96
:100500001F4FB601C7010E94200C803249F48FEFC3
:10051000881A980A861497041CF0F701C480D580C5
:10052000FFEFCF1ADF0AF70184819581C816D9063B
:1005300030F39801680113C0B601C70128873987D5
:100540000E94200C28853985803221F4F701C4806F
:10055000D58002C00F5F1F4FFFEFCF1ADF0AF701F0
:1005600084809580C814D90438F38DB79EB7881954
:1005700099090FB6F8949EBF0FBE8DBFCDB6DEB6FB
:10058000EFEFCE1ADE0AA801B701CE0101960E9454
:100590004C0C20E030E0A401B601CE0101960E948F
:1005A000220CCE0101960E94D40AC6010FB6F8941F
:1005B000BEBE0FBEADBE29960FB6F894DEBF0FBE0D
:1005C000CDBFDF91CF911F910F91FF90EF90DF9002
:1005D000CF90BF90AF909F908F907F906F90089535
:1005E000CF92DF92EF92FF920F931F93CF93DF93FF
:1005F000CDB7DEB727970FB6F894DEBF0FBECDBFDD
:100600008C01BC01CE0101960E94790B62E070E082
:10061000CE0101960E945E020E94B80E7C01CE01BE
:1006200001960E94D40AB801CE0101960E94790B6E
:1006300061E070E0CE0101960E945E020E94B80E59
:100640006C01CE0101960E94D40AB801CE01019638
:100650000E94790B63E070E0CE0101960E945E0279
:100660000E94B80E8C01CE0101960E94D40AF601B8
:1006700034E0EE0FFF1F3A95E1F7EF5FFD4F1016E4
:1006800011061CF481E0818701C01186B701CF01FA
:100690000E94AD006BE571E08AE392E00E94E807FA
:1006A0004AE050E0B6018AE392E00E94C20869E69F
:1006B00071E08AE392E00E94E8074AE050E0B70167
:1006C0008AE392E00E94C20866E771E08AE392E062
:1006D0000E94E8074AE050E0B8018AE392E00E94F5
:1006E000CA0827960FB6F894DEBF0FBECDBFDF91C4
:1006F000CF911F910F91FF90EF90DF90CF900895D1
:100700008F929F92AF92BF92CF92DF92EF92FF9221
:100710000F931F93CF93DF93CDB7DEB727970FB615
:10072000F894DEBF0FBECDBF6C01E12CF12C9924F3
:100730009394870144E0000F111F4A95E1F70F5F82
:100740001D4F66E071E0CE0101960E94450B5801F5
:1007500082E0A80EB11CBE016F5F7F4FC5010E94F1
:10076000000C882ECE0101960E94D40A882031F018
:10077000F60160817181C8010E94AD006AE071E0FC
:10078000CE0101960E94450BBE016F5F7F4FC501F0
:100790000E94000C882ECE0101960E94D40A882067
:1007A00031F0F60162817381C8010E94AD0060E101
:1007B00071E0CE0101960E94450BBE016F5F7F4F35
:1007C000C5010E94000CB82ECE0101960E94D40AE9
:1007D000BB2031F0F60164817581C8010E94AD0033
:1007E000F8019186FFEFEF1AFF0A83E0E816F104A3
:1007F00009F09FCF27960FB6F894DEBF0FBECDBF8E
:10080000DF91CF911F910F91FF90EF90DF90CF90EC
:10081000BF90AF909F908F900895FB012081318110
:10082000DC0111963C932E932281338113963C93E5
:100830002E9312972481358115963C932E9314970D
:100840006A5F7F4F06960C94790B1F93CF93DF93CB
:10085000CDB7DEB764970FB6F894DEBF0FBECDBF3D
:100860006BE971E0CE010E960E94450BBE01625FFE
:100870007F4F89EB91E00E94000C182FCE010E965D
:100880000E94D40A112319F081E00E944A0263EA0F
:1008900071E0CE010E960E94450BBE01625F7F4F54
:1008A00089EB91E00E94000C182FCE010E960E9459
:1008B000D40A112319F080E00E944A0264E871E032
:1008C000CE010E960E94450BBE01625F7F4F89EB01
:1008D00091E00E94000C182FCE010E960E94D40ABF
:1008E000112371F069EB71E0CE010E960E94790B35
:1008F000CE010E960E94F002CE010E960E94D40AFE
:1009000068E871E0CE010E960E94450BBE01625F61
:100910007F4F89EB91E00E94000C182FCE010E96BC
:100920000E94D40A112371F064EF71E0CE010196A8
:100930000E940D04CE0101960E948003CE0107960D
:100940000E94D40A66E071E0CE010E960E94450B2B
:10095000BE01625F7F4F89EB91E00E94000C182F6F
:10096000CE010E960E94D40A112371F067EE71E059
:10097000CE0101960E940D04CE0101960E948003D3
:10098000CE0107960E94D40A6AE071E0CE010E966D
:100990000E94450BBE01625F7F4F89EB91E00E9490
:1009A000000C182FCE010E960E94D40A112371F06C
:1009B0006AED71E0CE0101960E940D04CE01019610
:1009C0000E948003CE0107960E94D40A60E171E084
:1009D000CE010E960E94450BBE01625F7F4F89EBF0
:1009E00091E00E94000C182FCE010E960E94D40AAE
:1009F000112371F06DEC71E0CE0101960E940D049F
:100A0000CE0101960E948003CE0107960E94D40A6F
:100A10006EE871E0CE010E960E94450BBE01625F4A
:100A20007F4F89EB91E00E94000C182FCE010E96AB
:100A30000E94D40A112371F060EC71E0CE0101969E
:100A40000E940D04CE0101960E948003CE010796FC
:100A50000E94D40A66E971E0CE010E960E94450B11
:100A6000BE01625F7F4F89EB91E00E94000C182F5E
:100A7000CE010E960E94D40A112319F081E08093D2
:100A8000B8016EE971E0CE010E960E94450BBE01E1
:100A9000625F7F4F89EB91E00E94000C182FCE011E
:100AA0000E960E94D40A11111092B8010E94AC0156
:100AB00064960FB6F894DEBF0FBECDBFDF91CF9125
:100AC0001F9108951F93CF93DF93CDB7DEB727977C
:100AD0000FB6F894DEBF0FBECDBF8AE392E00E944E
:100AE000E4081816190664F58AE392E00E941309D7
:100AF000182F682F89EB91E00E94C90B612F8AE3C0
:100B000092E00E94EA071D3011F01B33C9F46AE03D
:100B10008AE392E00E94EA0769EB71E0CE01019658
:100B20000E94790BCE0101960E942504CE01019608
:100B30000E94D40A64E371E089EB91E00E94830B88
:100B400027960FB6F894DEBF0FBECDBFDF91CF91D1
:100B50001F9108950E94FD010E9462056AE070E005
:100B600080E090E00C94B606CF93DF93C1E0D2E032
:100B700064E371E0CE0102960E94450B609682E02C
:100B8000C133D807A9F784EF91E00E94BF0087EE38
:100B900091E00E94BF008AED91E00E94BF008DECC1
:100BA00091E00E94BF0080EC91E00E94BF0064E3EE
:100BB00071E089EB91E0DF91CF910C94450B0C949F
:100BC00089001F93CF93DF93182FEB0161E00E9400
:100BD0004107209711F460E004C0CF3FD10539F4FC
:100BE00061E0812FDF91CF911F910C947907E12F64
:100BF000F0E0E859FF4FE491E330B9F028F4E13038
:100C000051F0E230B1F50CC0E63019F1E73049F1AE
:100C1000E43079F514C084B5806884BDC7BD2EC0AA
:100C200084B5806284BDC8BD29C080918000806881
:100C300080938000D0938900C09388001FC080916A
:100C40008000806280938000D0938B00C0938A00E4
:100C500015C08091B00080688093B000C093B3004D
:100C60000DC08091B00080628093B000C093B4004A
:100C700005C0C038D1050CF0B3CFADCFDF91CF9117
:100C80001F9108951F920F920FB60F9211242F9368
:100C90003F938F939F93AF93BF9380913102909135
:100CA0003202A0913302B091340230913902232FE5
:100CB0002D5F2D3720F40196A11DB11D05C0232FF6
:100CC0002A570296A11DB11D20933902809331024B
:100CD00090933202A0933302B09334028091350294
:100CE00090913602A0913702B09138020196A11D71
:100CF000B11D8093350290933602A0933702B093D2
:100D00003802BF91AF919F918F913F912F910F909A
:100D10000FBE0F901F9018950F931F939FB7F894D5
:100D2000009135021091360220913702309138023D
:100D300086B5A89B06C08F3F21F00F5F1F4F2F4F36
:100D40003F4F9FBF322F212F102F0027080F111D5B
:100D5000211D311D42E0000F111F221F331F4A9534
:100D6000D1F7B801C9011F910F910895CF92DF9279
:100D7000EF92FF92CF93DF936B017C010E948C0670
:100D8000EB010EC00E948C066C1B7D0B683E73400D
:100D900038F081E0C81AD108E108F108C851DC4FE9
:100DA000C114D104E104F10469F7DF91CF91FF9000
:100DB000EF90DF90CF900895789484B5826084BDE1
:100DC00084B5816084BD85B5826085BD85B581604F
:100DD00085BDEEE6F0E0808181608083E1E8F0E0AF
:100DE0001082808182608083808181608083E0E8DE
:100DF000F0E0808181608083E1EBF0E080818460BD
:100E00008083E0EBF0E0808181608083EAE7F0E0BE
:100E10008081846080838081826080838081816022
:100E200080838081806880831092C1000895833020
:100E300069F028F48130A1F0823011F514C08630B9
:100E4000B1F08730C1F08430D9F404C080918000C3
:100E50008F7703C0809180008F7D809380000895FC
:100E600084B58F7702C084B58F7D84BD089580914D
:100E7000B0008F7703C08091B0008F7D8093B00069
:100E80000895CF93DF9390E0FC01E458FF4F449125
:100E9000FC01E057FF4F8491882341F190E0880FD7
:100EA000991FFC01E255FF4F25913491D9018C55D2
:100EB0009F4FFC0185919491C82FD92F9FB7F8942B
:100EC0008C91611106C0409584238C938881842382
:100ED00008C0623041F4242F209582238C938881AE
:100EE000842B888302C0842B8C939FBFDF91CF918A
:100EF00008950F931F93CF93DF931F92CDB7DEB763
:100F0000282F30E0F901E859FF4F8491F901E458A6
:100F1000FF4F1491F901E057FF4F04910023D1F0E6
:100F2000882321F069830E9417076981E02FF0E090
:100F3000EE0FFF1FEC55FF4F85919491DC019FB799
:100F4000F8948C91611103C01095812301C0812B0D
:100F50008C939FBF0F90DF91CF911F910F910895B8
:100F6000CF92DF92EF92FF920F931F93CF93DF9375
:100F70006C01EB017A01E60EF71E00E010E00BC0F9
:100F80006991D601ED91FC910190F081E02DC601AF
:100F90000995080F191FCE15DF0591F7C801DF91DC
:100FA000CF911F910F91FF90EF90DF90CF90089518
:100FB000DB010D900020E9F7AD0141505109461BBE
:100FC000570BDC01ED91FC910280F381E02D099437
:100FD0000C94D807DC01ED91FC910190F081E02D9B
:100FE00009940F931F93CF93DF93EC016DE00E9460
:100FF000EA078C016AE0CE010E94EA079C01200FFB
:10100000311FC901DF91CF911F910F9108950F9367
:101010001F93CF93DF93EC010E94D8078C01CE0180
:101020000E94F1079801280F391FC901DF91CF9164
:101030001F910F9108954F925F926F927F929F92AE
:10104000AF92BF92CF92DF92EF92FF920F931F93D6
:10105000CF93DF93CDB7DEB7A1970FB6F894DEBF7D
:101060000FBECDBF5C016A017B01922E19A281E007
:10107000821710F08AE0982E8E010F5D1F4F492CC9
:10108000512C612C712CC701B601A30192010E9461
:10109000910C8C2D929E80191124015011098A30D7
:1010A00014F4805D01C0895CF801808369017A01D4
:1010B000C114D104E104F10431F7B801C5010E9463
:1010C000D807A1960FB6F894DEBF0FBECDBFDF9153
:1010D000CF911F910F91FF90EF90DF90CF90BF9035
:1010E000AF909F907F906F905F904F900895CF92B8
:1010F000DF92EF92FF920F931F93CF93DF93EC0158
:101100006A017B012115310579F4E881F9810190AB
:10111000F081E02D642FDF91CF911F910F91FF900F
:10112000EF90DF90CF9009942A30310519F477FDC4
:101130000EC02AE0B701A601CE01DF91CF911F9129
:101140000F91FF90EF90DF90CF900C941B086DE211
:101150000E94EA078C0144275527BA014C195D0902
:101160006E097F092AE0CE010E941B08080F191F93
:10117000C801DF91CF911F910F91FF90EF90DF9009
:10118000CF9008959A01AB01662757FD6095762FA1
:101190000C9477080F931F93CF93DF93EC019A0180
:1011A000AB01662757FD6095762F0E9477088C016A
:1011B000CE010E94F1079801280F391FC901DF9164
:1011C000CF911F910F910895FC0184859585FC01B5
:1011D000E05CFF4F20813181FC01EE5BFF4F80819D
:1011E0009181281B390B2F733327C9010895FC0106
:1011F00084859585FC01E05CFF4F40815181FC01B5
:10120000EE5BFF4F208131814217530741F001907F
:10121000F081E02DE80FF91F208130E002C02FEFB0
:101220003FEFC9010895FC0184859585FC01E05CD0
:10123000FF4F40815181FC01EE5BFF4F20813181E6
:101240004217530781F0A081B181A80FB91F8C917B
:10125000208131812F5F3F4F2F73332731832083CC
:10126000282F30E002C02FEF3FEFC9010895FC01A5
:1012700086859785FC01E05CFF4FDC01AE5BBF4FCC
:10128000408151812D913C91119742175307C1F72D
:101290000895CF93DF93FC0186859785DC01A05CE0
:1012A000BF4F2D913C9111972F5F3F4F2F733327E5
:1012B000EC01CE5BDF4F4881598124173507D9F304
:1012C0000D90BC91A02DA80FB91F6C93A685B78572
:1012D000A05CBF4F11963C932E93A689B7892C91A1
:1012E00081E090E0058C02C0880F991F0A94E2F714
:1012F000282B2C9381E090E0DF91CF910895089501
:101300001F920F920FB60F9211242F933F934F937A
:101310008F939F93EF93FF934091C6008091DD02DE
:101320009091DE0201968F7399272091DF02309110
:10133000E0028217930759F0E091DD02F091DE029E
:10134000E356FD4F40839093DE028093DD02FF91D0
:10135000EF919F918F914F913F912F910F900FBEE1
:101360000F901F9018958AE392E00E94E408892B61
:1013700011F00C947F0908951F920F920FB60F92EF
:1013800011242F933F938F939F93EF93FF9320917B
:10139000990230919A0280919B0290919C022817A9
:1013A000390731F48091C1008F7D8093C10014C052
:1013B000E0919B02F0919C02E75AFD4F20818091C1
:1013C0009B0290919C0201968F73992790939C02A7
:1013D00080939B022093C600FF91EF919F918F9184
:1013E0003F912F910F900FBE0F901F901895CF92A5
:1013F000DF92EF92FF92CF93DF93EC016A017B01C2
:10140000411581EE580761057105F9F0EC89FD89F8
:1014100081E090E00E8C02C0880F991F0A94E2F7D9
:10142000808360E079E08DE390E0A70196010E945F
:10143000910C21503109410951095695479537952D
:101440002795211580E1380798F0EC89FD891082F5
:1014500060E874E88EE190E0A70196010E94910C8B
:1014600021503109410951095695479537952795DE
:10147000E889F9893083EA89FB892083EE89FF892D
:10148000408181E090E09C010A8C02C0220F331F52
:101490000A94E2F7422B4083EE89FF8940819C0148
:1014A0000B8C02C0220F331F0A94E2F7422B4083B9
:1014B000EE89FF8940819C010C8C02C0220F331FF2
:1014C0000A94E2F7422B4083EE89FF8920810D8C3C
:1014D00002C0880F991F0A94E2F7809582238083C7
:1014E000DF91CF91FF90EF90DF90CF900895109211
:1014F0003D0210923C0288EE93E0A0E0B0E08093C1
:101500003E0290933F02A0934002B09341028BEAC7
:1015100091E090933B0280933A028DE992E09093A0
:1015200047028093460289E592E0909349028093B6
:10153000480285EC90E090934B0280934A0284EC41
:1015400090E090934D0280934C0280EC90E0909359
:101550004F0280934E0281EC90E090935102809371
:10156000500286EC90E0909353028093520284E004
:101570008093540283E08093550287E08093560263
:1015800085E08093570281E08093580208950E947D
:10159000DC060E94C400C3EBD9E00E94AA05209794
:1015A000E1F30E94B309F9CFFC01808191810C9491
:1015B000540DCF93DF93EC0188819981009711F04E
:1015C0000E94540D198218821D821C821B821A826D
:1015D000DF91CF9108950F931F93CF93DF93EC0189
:1015E0008B016F5F7F4F888199810E94F00D00977A
:1015F00031F0998388831B830A8381E001C080E0F6
:10160000DF91CF911F910F910895CF93DF93EC015C
:1016100088819981892B31F08A819B818617970770
:1016200008F00CC0CE010E94EB0A882349F08C819F
:101630009D81892B19F4E881F981108281E001C034
:1016400080E0DF91CF910895EF92FF920F931F9367
:10165000CF93DF93EC017B018A01BA010E94050B55
:10166000811104C0CE010E94D90A07C01D830C83DA
:10167000B701888199810E94DF0ECE01DF91CF9161
:101680001F910F91FF90EF900895DC0111961C922D
:101690001E9213961C921E92129715961C921E92E1
:1016A000149716961C926115710559F0DB010D9087
:1016B0000020E9F7AD0141505109461B570B0C942E
:1016C000240B0895CF93DF93EC01FB018617970756
:1016D00061F0608171816115710529F04481558146
:1016E0000E94240B02C00E94D90ACE01DF91CF9143
:1016F0000895FC01118210821382128215821482D5
:1017000016820C94620BCF93DF93D82FC92F6115EB
:10171000710561F0DB010D900020E9F7AD0141504A
:101720005109461B570B0E94240B02C00E94D90A84
:101730008D2F9C2FDF91CF910895EF92FF920F9301
:101740001F93CF93DF93EC017B010C811D81611509
:10175000710511F480E016C04115510591F0040F98
:10176000151FB8010E94050B8823A1F32881398138
:101770008C819D81B701820F931F0E94DF0E1D8314
:101780000C8381E0DF91CF911F910F91FF90EF903B
:101790000895CF93DF9300D0CDB7DEB769831A8267
:1017A00041E050E0BE016F5F7F4F0E949D0B0F90A4
:1017B0000F90DF91CF910895FA01DB0114964D91BE
:1017C0005C911597DC0114962D913C911597241B83
:1017D000350B2E173F0790F08D919C91009771F07B
:1017E000DB016D917C916115710541F08E0F9F1F9A
:1017F0000E94E60E9C0181E0232B09F080E0089511
:10180000FC0144815581FB01248135814217530736
:1018100020F040E050E00C94DC0B80E00895FC01E7
:10182000248135816217730748F480819181009784
:1018300029F0FC01E60FF71F8081089580E00895EC
:101840000C940F0C0F931F93CF93DF93EB01411573
:101850005105E9F02097D9F0FC010481158120178A
:10186000310708F013C041505109021B130B4017F8
:10187000510708F48A01FC0160817181620F731FB6
:10188000A801CE010E94F40EC00FD11F1882DF9173
:10189000CF911F910F910895BF92CF92DF92EF9257
:1018A000FF920F931F93CF93DF936C017B01EA01AB
:1018B00089012417350720F48D2FE901042F182FF3
:1018C00064E371E0C6010E94450BD70114968D9127
:1018D0009C9115978C179D07C8F08017910708F405
:1018E0008C01D701ED91FC911197E00FF11FB080B1
:1018F00010826D917C916C0F7D1FC6010E94830B3D
:10190000D701ED91FC91E00FF11FB082C601DF918C
:10191000CF911F910F91FF90EF90DF90CF90BF90EC
:101920000895A1E21A2EAA1BBB1BFD010DC0AA1F20
:10193000BB1FEE1FFF1FA217B307E407F50720F038
:10194000A21BB30BE40BF50B661F771F881F991FB3
:101950001A9469F760957095809590959B01AC01FC
:10196000BD01CF010895EE0FFF1F0590F491E02D0A
:1019700009940F931F93CF93DF938230910510F456
:1019800082E090E0E091E302F091E40220E030E0B8
:10199000C0E0D0E023C04081518148175907A8F02A
:1019A0004817590761F482819381209719F09B832E
:1019B0008A832EC09093E4028093E30229C021150C
:1019C000310529F04217530710F0A90102C0BE01EA
:1019D000DF0102811381EF019A01F8013097D9F6F6
:1019E0002115310509F1281B390B2430310590F4FC
:1019F00012968D919C9113976115710521F0FB0151
:101A00009383828304C09093E4028093E302FD01F8
:101A1000329644C0FD01E20FF31F8193919322504F
:101A200031092D933C933AC02091E1023091E202BA
:101A3000232B41F420910201309103013093E20203
:101A40002093E1022091000130910101211531051F
:101A500041F42DB73EB74091040150910501241B7C
:101A6000350BE091E102F091E202E217F307A0F4F6
:101A70002E1B3F0B2817390778F0AC014E5F5F4FE4
:101A80002417350748F04E0F5F1F5093E202409332
:101A9000E1028193919302C0E0E0F0E0CF01DF9199
:101AA000CF911F910F910895EF92FF920F931F9383
:101AB000CF93DF93009709F48EC0DC011297139641
:101AC0001C921E921297E090E302F090E402E1145F
:101AD000F10489F42D913C911197280F391F8091C1
:101AE000E1029091E2028217930789F5B093E20236
:101AF000A093E10270C0E70120E030E001C0EA01FC
:101B0000CA17DB0738F44A815B819E0141155105F4
:101B1000B1F722C0AC0142505109FA01D383C2830C
:101B200000811181BC01600F711F6C177D0761F48A
:101B300068817981600F711F6E5F7F4F7183608351
:101B40006A817B81738362832115310529F4B09307
:101B5000E402A093E3023FC0F901B383A283E90149
:101B600049915991C40FD51FAC17BD0771F4DC0121
:101B70009E918E91840F951F029691838083129679
:101B80008D919C91139793838283A0E0B0E002C073
:101B9000D7017C01F701828193810097C9F7C701C2
:101BA000029620813181820F931F2091E1023091B2
:101BB000E2022817390779F4109729F41092E40209
:101BC0001092E30204C013961C921E921297F09298
:101BD000E202E092E102CDB7DEB7E6E00C94330F0B
:101BE000A0E0B0E0E6EFFDE00C94110FEC010097EF
:101BF00029F4CB010E94B90CEC01B4C0DC01A60FA2
:101C0000B71FFC013297AE17BF0718F4C0E0D0E051
:101C1000A9C00081118106171707B0F00530110522
:101C200008F4A0C0C80104978617970708F49AC063
:101C300002501109061B170B0D931D9371836083CE
:101C4000CD010E94540D8EC06B01C01AD10A7C01D7
:101C5000E00EF11EE091E302F091E40220E030E0BA
:101C600080E090E048C0EE15FF05D1F580809180BE
:101C7000540142E0A40EB11CAC14BD0488F17401FF
:101C8000EC18FD08670122E0C20ED11C9E01225013
:101C9000310945E0C416D10478F04281538113968E
:101CA0005C934E9312971196FC92EE92F901718318
:101CB00060833A2F2B2F09C00E5F1F4F080D191D8F
:101CC000D9010D931C9332812381009721F0FC01EF
:101CD0003283238347C03093E3022093E40242C05F
:101CE000808191812817390708F49C015281438132
:101CF000CF01E52FF42F309709F0B5CF8091E102A5
:101D00009091E2028E159F05F1F426173707D8F45B
:101D10008091000190910101009741F48DB79EB729
:101D20002091040130910501821B930BA817B9077C
:101D300008F06CCFB093E202A093E102FE0132976B
:101D4000718360830FC0CB010E94B90C7C010097A6
:101D500009F45CCFA801BE010E94D60ECE010E94FC
:101D6000540DE701CE01CDB7DEB7ECE00C942D0F9A
:101D7000FC0188279927E89421912032E9F3293042
:101D800010F02E30C8F32B3241F02D3239F4689424
:101D900004C00E94030F820F911D219120532A300D
:101DA000C0F31EF4909581959F4F0895FB01DC01CF
:101DB00002C001900D9241505040D8F70895FB01A8
:101DC000DC0101900D920020E1F70895FB01DC0198
:101DD0004150504030F08D910190801919F400204D
:101DE000B9F7881B990B0895FB01DC014150504065
:101DF00048F001900D920020C9F701C01D9241509A
:101E00005040E0F708957AE0979F902D879F802DAE
:101E1000910D112408952F923F924F925F926F92ED
:101E20007F928F929F92AF92BF92CF92DF92EF926A
:101E3000FF920F931F93CF93DF93CDB7DEB7CA1BEB
:101E4000DB0B0FB6F894DEBF0FBECDBF09942A8816
:101E5000398848885F846E847D848C849B84AA84BE
:101E6000B984C884DF80EE80FD800C811B81AA814B
:101E7000B981CE0FD11D0FB6F894DEBF0FBECDBF16
:101E8000ED01089510E0CCEBD0E004C0FE010E940B
:0E1E9000B50C2296CE3BD107C9F7F894FFCFD0
:101E9E000000E502200052454400475245454E00E1
:101EAE00424C554500496C6C756D696E6174726972
:101EBE00782067726565747320796F752E004C45B6
:101ECE0044202320002C2076616C75653A20002C6E
:101EDE002073746174653A20004C4544207374611C
:101EEE007465206368616E676564004368616E6740
:101EFE006564204C45442023002C207769746820AB
:101F0E006D6F646520002C20616E642073746174A3
:101F1E007573200053455400574849544500535497
:101F2E00414E444259004359434C454F4E0043598C
:101F3E00434C454F464600000000004909B007E4F7
:081F4E00081309F70837090028
:00000001FF
