:100000000C945F000C9487000C9487000C9487007C
:100010000C9487000C9487000C9487000C94870044
:100020000C9487000C9487000C9487000C94870034
:100030000C9487000C9487000C9487000C94870024
:100040000C94D50E0C9487000C947A0B0C94B60B80
:100050000C9487000C9487000C9487000C94870004
:100060000C9487000C948700000000070002010038
:100070000003040600000000000000000102040864
:100080001020408001020408102001020408102002
:10009000040404040404040402020202020203032E
:1000A0000303030300000000250028002B000000CC
:1000B0000000240027002A007308710CAE081124E8
:1000C0001FBECFEFD4E0DEBFCDBF11E0A0E0B1E0B6
:1000D000E2E6F5E202C005900D92A83EB107D9F71D
:1000E00013E0A8EEB1E001C01D92AE36B107E1F712
:1000F00010E0CCEBD0E004C02297FE010E94A50FD7
:10010000C83BD107C9F70E940B0D0C94A4120C94A4
:10011000000086EF91E00E94180D83E092E00E94BB
:10012000180D80E192E00E94180D8DE192E00E948E
:10013000180D8AE292E00E94180D87E392E00E9477
:10014000180D84E492E00E94180D81E592E00E946F
:10015000180D8EE592E00E94180D8BE692E00E9449
:10016000180D84EA92E00E94180D8CE892E00E943B
:10017000180D84E792E00C94180DFC018485958598
:10018000681779070CF405C0828593858617970751
:100190001CF4918B808B0895718B608B089560E1C6
:1001A00071E006960C94890DDF92EF92FF920F9307
:1001B0001F93CF93DF93E12CF12C88E1D82EDE9CA6
:1001C000E001DF9CD00D1124CE58DD4F89858823B6
:1001D000B1F10E851F85888999890817190741F1A2
:1001E0002C893D894A895B8924173507ECF01D8AE3
:1001F0001C8A0817190754F42E893F898A859B8524
:10020000020F131F801791079CF40CC080179107F1
:100210007CF42E893F898C859D85021B130B081762
:10022000190734F48C0104C02F5F3F4F3D8B2C8B9A
:10023000B80188810E94B0081F870E8705C060E062
:1002400070E088810E94B0088FEFE81AF80A83E016
:10025000E816F10409F0B3CFDF91CF911F910F9110
:10026000FF90EF90DF90089584E690E09093F10185
:100270008093F00184EF91E09093ED018093EC0185
:100280001092F50110927F0210927E028FEF90E0A3
:1002900090937D0280937C02E2E7F2E021E02187E7
:1002A0001092970210929602909395028093940276
:1002B00021A31092AF021092AE029093AD028093F0
:1002C000AC0221AF0895FF920F931F93CF93DF935A
:1002D0000BE712E0C0E0D0E098E1F92E6AE071E0AF
:1002E0008AEB92E00E94E2094AE050E0BE018AEB0C
:1002F00092E00E94BC0A61E171E08AEB92E00E9408
:10030000E209FC9EF001FD9EF00D1124EE58FD4F18
:10031000668577854AE050E08AEB92E00E94BC0A4D
:100320006BE171E08AEB92E00E94E209F8016081E2
:100330004AE050E070E08AEB92E00E94C40A219605
:10034000085E1F4FC330D10549F6DF91CF911F9151
:100350000F91FF900895CF93C82F65E271E08AEB6B
:1003600092E00E94010A91E0C11101C090E09093D7
:100370007B02909393029093AB02C11105C010923F
:10038000F501CF910C943401CF9108956F927F9233
:100390008F929F92AF92BF92CF92DF92EF92FF9295
:1003A0000F931F93CF93DF93CDB7DEB729970FB687
:1003B000F894DEBF0FBECDBF7C013B01ADB6BEB62B
:1003C000C12CD12C812C912C00E010E014C00F5FC7
:1003D0001F4FB601C7010E94640E803249F48FEFAF
:1003E000881A980A861497041CF0F701C480D580F7
:1003F000FFEFCF1ADF0AF70184819581C816D9066D
:1004000030F39801680113C0B601C7012887398706
:100410000E94640E28853985803221F4F701C4805A
:10042000D58002C00F5F1F4FFFEFCF1ADF0AF70121
:1004300084809580C814D90438F38DB79EB7881985
:1004400099090FB6F8949EBF0FBE8DBFCDB6DEB62C
:10045000EFEFCE1ADE0AA801B701CE0101960E9485
:10046000900E20E030E0A401B601CE0101960E947A
:10047000660ECE0101960E94180DC6010FB6F894C3
:10048000BEBE0FBEADBE29960FB6F894DEBF0FBE3E
:10049000CDBFDF91CF911F910F91FF90EF90DF9033
:1004A000CF90BF90AF909F908F907F906F90089566
:1004B000CF92DF92EF92FF920F931F93CF93DF9330
:1004C000CDB7DEB727970FB6F894DEBF0FBECDBF0E
:1004D0007C01BC01CE0101960E94BD0D62E070E07E
:1004E000CE0101960E94C6010E9412128C01CE011B
:1004F00001960E94180DB701CE0101960E94BD0D14
:1005000061E070E0CE0101960E94C6010E941212C5
:100510006C01CE0101960E94180DB701CE01019623
:100520000E94BD0D63E070E0CE0101960E94C601FD
:100530000E9412127C01CE0101960E94180D88E1E2
:100540008C9DF0018D9DF00D1124EE58FD4F1E1471
:100550001F041CF481E0818701C011868285938588
:10056000801791070CF405C0848595850817190735
:100570001CF49787868702C017870687868597852C
:10058000918B808B67E371E08AEB92E00E94E20935
:100590004AE050E0B6018AEB92E00E94BC0A65E4B2
:1005A00071E08AEB92E00E94E2094AE050E0B80173
:1005B0008AEB92E00E94BC0A62E571E08AEB92E06D
:1005C0000E94E2094AE050E0B7018AEB92E00E9403
:1005D000C40A27960FB6F894DEBF0FBECDBFDF91D9
:1005E000CF911F910F91FF90EF90DF90CF900895E2
:1005F0007F928F929F92AF92BF92CF92DF92EF92B3
:10060000FF920F931F93CF93DF93CDB7DEB727975A
:100610000FB6F894DEBF0FBECDBF6C010E9434014F
:10062000E12CF12C28E1822E992493948E9C800158
:100630008F9C100D11240E581D4F65EA71E0CE01FC
:1006400001960E94890D580182E0A80EB11CBE01DE
:100650006F5F7F4FC5010E94440E782ECE01019638
:100660000E94180D772031F0F60160817181C80178
:100670000E94BD006EEA71E0CE0101960E94890DD4
:10068000BE016F5F7F4FC5010E94440E782ECE01E0
:1006900001960E94180D772031F0F6016281738176
:1006A000C8010E94BD0069EB71E0CE0101960E9475
:1006B000890DBE016F5F7F4FC5010E94440EB82EA9
:1006C000CE0101960E94180DBB2031F0F601648125
:1006D0007581C8010E94BD00F8019186FFEFEF1AF5
:1006E000FF0A83E0E816F10409F0A0CF27960FB6C1
:1006F000F894DEBF0FBECDBFDF91CF911F910F9158
:10070000FF90EF90DF90CF90BF90AF909F908F9031
:100710007F9008950E94340181E08093F5010C944C
:10072000AB01FB0120813181DC0111963C932E93BA
:100730002281338113963C932E9312972481358125
:1007400015963C932E9314976A5F7F4F06960C94F0
:10075000BD0D06960C94180D0E94340180E890E0BF
:1007600090937F0280937E029093970280939602EB
:1007700080E690E09093AF028093AE0281E0809398
:10078000F5010895CF93DF93EC010E94340180E6D8
:1007900090E09093ED018093EC0120E030E068E17F
:1007A0004FEF50E0629FF001639FF00D1124EE586F
:1007B000FD4F2C173D0729F495878487538742877F
:1007C00001C011862F5F3F4F2330310559F781E07B
:1007D0008093F501DF91CF9108951F93CF93DF931D
:1007E000CDB7DEB764970FB6F894DEBF0FBECDBFAE
:1007F00069E871E0CE010E960E94890DBE01625F2C
:100800007F4F86EF91E00E94440E182FCE010E9686
:100810000E94180D112371F06EE372E0CE01019673
:100820000E949103CE0101960E94F802CE0101962A
:100830000E94A90361E971E0CE010E960E94890D24
:10084000BE01625F7F4F86EF91E00E94440E182F39
:10085000CE010E960E94180D112371F06AE072E02D
:10086000CE0101960E949103CE0101960E94F802EA
:10087000CE0101960E94A90360E671E0CE010E96BA
:100880000E94890DBE01625F7F4F86EF91E00E945A
:10089000440E182FCE010E960E94180D112371F0F0
:1008A00066EF71E0CE010E960E94BD0DCE010E9650
:1008B0000E945802CE010E960E94180D6AE971E05E
:1008C000CE010E960E94890DBE01625F7F4F86EFBA
:1008D00091E00E94440E182FCE010E960E94180D32
:1008E000112371F065E672E0CE0101960E9491033A
:1008F000CE0101960E94F802CE0101960E94A90342
:1009000065EA71E0CE010E960E94890DBE01625F1C
:100910007F4F86EF91E00E94440E182FCE010E9675
:100920000E94180D112371F068E572E0CE01019666
:100930000E949103CE0101960E94F802CE01019619
:100940000E94A9036EEA71E0CE010E960E94890D05
:10095000BE01625F7F4F86EF91E00E94440E182F28
:10096000CE010E960E94180D112371F06BE472E017
:10097000CE0101960E949103CE0101960E94F802D9
:10098000CE0101960E94A90369EB71E0CE010E969B
:100990000E94890DBE01625F7F4F86EF91E00E9449
:1009A000440E182FCE010E960E94180D112371F0DF
:1009B0006EE372E0CE0101960E949103CE01019692
:1009C0000E94F802CE0101960E94A90364E671E03C
:1009D000CE010E960E94890DBE01625F7F4F86EFA9
:1009E00091E00E94440E182FCE010E960E94180D21
:1009F000112371F061E372E0CE0101960E94910330
:100A0000CE0101960E94F802CE0101960E94A90330
:100A10006EE671E0CE010E960E94890DBE01625F06
:100A20007F4F86EF91E00E94440E182FCE010E9664
:100A30000E94180D112371F064E272E0CE0101965C
:100A40000E949103CE0101960E94F802CE01019608
:100A50000E94A90365E771E0CE010E960E94890D00
:100A6000BE01625F7F4F86EF91E00E94440E182F17
:100A7000CE010E960E94180D112371F067E172E00D
:100A8000CE0101960E949103CE0101960E94F802C8
:100A9000CE0101960E94A9036CE771E0CE010E968B
:100AA0000E94890DBE01625F7F4F86EF91E00E9438
:100AB000440E182FCE010E960E94180D112371F0CE
:100AC0006DEF71E0CE0101960E949103CE01019677
:100AD0000E94F802CE0101960E94A90364E871E029
:100AE000CE010E960E94890DBE01625F7F4F86EF98
:100AF00091E00E94440E182FCE010E960E94180D10
:100B000011110E948A036CE871E0CE010E960E94DA
:100B1000890DBE01625F7F4F86EF91E00E94440E17
:100B2000182FCE010E960E94180D11111092F5018A
:100B300065E971E0CE010E960E94890DBE01625FEB
:100B40007F4F86EF91E00E94440E182FCE010E9643
:100B50000E94180D11110E94AC0360EA71E0CE01F1
:100B60000E960E94890DBE01625F7F4F86EF91E075
:100B70000E94440E182FCE010E960E94180D1123CC
:100B800021F080E090E00E94C20369EA71E0CE01AA
:100B90000E960E94890DBE01625F7F4F86EF91E045
:100BA0000E94440E182FCE010E960E94180D11239C
:100BB00021F081E090E00E94C20364EB71E0CE017D
:100BC0000E960E94890DBE01625F7F4F86EF91E015
:100BD0000E94440E182FCE010E960E94180D11236C
:100BE00021F082E090E00E94C2030E9463016496BB
:100BF0000FB6F894DEBF0FBECDBFDF91CF911F912E
:100C000008957F928F929F92AF92BF92CF92DF9280
:100C1000EF92FF920F931F93CF93DF93CDB7DEB781
:100C200027970FB6F894DEBF0FBECDBF0FEF10E0D1
:100C300010936602009365021093680200936702A6
:100C400080E390E090936A028093690210935902C6
:100C50000093580210925B0210925A0210925D02A9
:100C600010925C0210924C0210924B0210934E02B2
:100C700000934D021092500210924F0210923F02C8
:100C800010923E02109241021092400210934302D1
:100C900000934202109232021092310286EA90E0F2
:100CA00090933402809333021093360200933502FE
:100CB000109325020093240210932702009326022A
:100CC0001092290210922802109318020093170222
:100CD00010921A021092190210931C0200931B0228
:100CE00010920B0210920A0210920D0210920C0246
:100CF00010920F0210920E0280E190E09093FE019C
:100D00008093FD01109200021092FF0110920202E6
:100D10001092010265EA71E0CE0101960E94890DF0
:100D200032E7E32E32E0F32E77247394F7017186D5
:100D300083E090E09183808310937D0200937C0296
:100D400010927F0210927E02109283021092820211
:100D5000BE016F5F7F4F84E792E00E94A60D4EE1D7
:100D6000A42EB12CB0928502A09284021092870228
:100D700010928602CC24C394D12CD0928902C092C6
:100D80008802CE0101960E94180D6EEA71E0CE0134
:100D900001960E94890DF70171A26AE8862E62E031
:100DA000962E85E090E0F401918380831093950264
:100DB00000939402109297021092960210929B0256
:100DC00010929A02BE016F5F7F4F8CE892E00E9402
:100DD000A60DB0929D02A0929C0210929F021092CA
:100DE0009E02D092A102C092A002CE0101960E9462
:100DF000180D69EB71E0CE0101960E94890DF70193
:100E000071AE86E090E09093A3028093A2021093CB
:100E1000AD020093AC021092AF021092AE0210929B
:100E2000B3021092B202BE016F5F7F4F84EA92E07C
:100E30000E94A60DB092B502A092B4021092B70221
:100E40001092B602D092B902C092B802CE010196B9
:100E50000E94180D40E855E260E070E08AEB92E0F5
:100E60000E94F10B0E9434017092F4019092F30100
:100E70008092F2011092EF011092EE011092EB01BC
:100E80001092EA0180E690E09093E9018093E801F6
:100E90006EEB71E08AEB92E00E94010A82E090E042
:100EA0000E94C20327960FB6F894DEBF0FBECDBFD7
:100EB000DF91CF911F910F91FF90EF90DF90CF9036
:100EC000BF90AF909F908F907F9008951F93CF9386
:100ED000DF93CDB7DEB727970FB6F894DEBF0FBE0E
:100EE000CDBF8AEB92E00E94DE0A1816190664F55F
:100EF0008AEB92E00E940D0B182F682F86EF91E08D
:100F00000E940D0E612F8AEB92E00E94E4091D30D1
:100F100011F01B33C9F46AE08AEB92E00E94E40905
:100F200066EF71E0CE0101960E94BD0DCE010196E3
:100F30000E94ED03CE0101960E94180D60E171E060
:100F400086EF91E00E94C70D27960FB6F894DEBF9A
:100F50000FBECDBFDF91CF911F91089520918002E8
:100F6000309181024091980250919902240F351FCF
:100F70004091B0025091B102240F351F4091EC0115
:100F80005091ED01421753070CF081E008951F9333
:100F9000CF93DF9323E030E040E050E060E070E08A
:100FA000CB010E94ED0CCCE0D0E018E10BC0219702
:100FB00099F023E030E040E050E060E070E0CB01E9
:100FC0000E94ED0C169FF001179FF00D1124EE58B2
:100FD000FD4F8185882359F3CB01DF91CF911F917C
:100FE0000895CF93DF938091F501882309F472C0AF
:100FF0002091EA013091EB018091E8019091E901A3
:101000008217930724F51092EB011092EA010E94D7
:10101000C707EC0122E030E040E050E060E070E023
:10102000CB010E94ED0C88E18C9F90018D9F300DCB
:1010300011242E583D4F3093F3012093F20181E0AB
:10104000611101C080E00E94AE078093F40180919D
:10105000EE019091EF012091F0013091F1018217A2
:10106000930734F401969093EF018093EE0132C020
:101070008091EA019091EB0101969093EB018093AE
:10108000EA011092EF011092EE018091F4018823A1
:1010900019F021E030E002C02FEF3FEFE091F201C4
:1010A000F091F30186859785820F931F2285338502
:1010B000281739070CF405C0248535858217930756
:1010C0001CF43787268702C0978786878685978591
:1010D000918B808BDF91CF9108950E94D4000E9464
:1010E00066070C94F107CF93DF93C2E7D2E060E18B
:1010F00071E0CE0102960E94890D689682E0CA3B9B
:10110000D807A9F785E692E00E94CF0088E592E033
:101110000E94CF008BE492E00E94CF008EE392E029
:101120000E94CF0081E392E00E94CF0084E292E02F
:101130000E94CF0087E192E00E94CF008AE092E017
:101140000E94CF008DEF91E00E94CF0060E171E03E
:1011500086EF91E0DF91CF910C94890D0C9489007A
:101160001F93CF93DF93182FEB0161E00E943B099F
:10117000209711F460E004C0CF3FD10539F461E05D
:10118000812FDF91CF911F910C947309E12FF0E033
:10119000E859FF4FE491E330B9F028F4E13051F021
:1011A000E230B1F50CC0E63019F1E73049F1E43036
:1011B00079F514C084B5806884BDC7BD2EC084B5E0
:1011C000806284BDC8BD29C0809180008068809302
:1011D0008000D0938900C09388001FC08091800058
:1011E000806280938000D0938B00C0938A0015C0EA
:1011F0008091B00080688093B000C093B3000DC0B0
:101200008091B00080628093B000C093B40005C0AC
:10121000C038D1050CF0B3CFADCFDF91CF911F9186
:101220000895833069F028F48130A1F0823011F5FF
:1012300014C08630B1F08730C1F08430D9F404C0D6
:10124000809180008F7703C0809180008F7D809394
:101250008000089584B58F7702C084B58F7D84BDEA
:1012600008958091B0008F7703C08091B0008F7D8A
:101270008093B0000895CF93DF9390E0FC01E45891
:10128000FF4F4491FC01E057FF4F8491882341F1C7
:1012900090E0880F991FFC01E255FF4F2591349192
:1012A000D9018C559F4FFC0185919491C82FD92F5E
:1012B0009FB7F8948C91611106C0409584238C935C
:1012C0008881842308C0623041F4242F2095822332
:1012D0008C938881842B888302C0842B8C939FBF3E
:1012E000DF91CF9108950F931F93CF93DF931F92B8
:1012F000CDB7DEB7282F30E0F901E859FF4F8491D0
:10130000F901E458FF4F1491F901E057FF4F0491A0
:101310000023D1F0882321F069830E94110969819B
:10132000E02FF0E0EE0FFF1FEC55FF4F85919491F9
:10133000DC019FB7F8948C91611103C01095812353
:1013400001C0812B8C939FBF0F90DF91CF911F9194
:101350000F910895CF92DF92EF92FF920F931F9318
:10136000CF93DF936C01EB017A01E60EF71E00E0EC
:1013700010E00BC06991D601ED91FC910190F081D4
:10138000E02DC6010995080F191FCE15DF0591F74D
:10139000C801DF91CF911F910F91FF90EF90DF90E7
:1013A000CF900895DB010D900020E9F7AD01415089
:1013B0005109461B570BDC01ED91FC910280F38132
:1013C000E02D09940C94D209DC01ED91FC9101907F
:1013D000F081E02D09940F931F93CF93DF93EC01DD
:1013E0006DE00E94E4098C016AE0CE010E94E409EC
:1013F0009C01200F311FC901DF91CF911F910F91E7
:1014000008950F931F93CF93DF93EC010E94D209AD
:101410008C01CE010E94EB099801280F391FC901E8
:10142000DF91CF911F910F9108954F925F926F922C
:101430007F929F92AF92BF92CF92DF92EF92FF92F4
:101440000F931F93CF93DF93CDB7DEB7A1970FB65E
:10145000F894DEBF0FBECDBF5C016A017B01922E06
:1014600019A281E0821710F08AE0982E8E010F5D9C
:101470001F4F492C512C612C712CC701B601A301BF
:1014800092010E945A0F8C2D929E801911240150B6
:1014900011098A3014F4805D01C0895CF8018083F1
:1014A00069017A01C114D104E104F10431F7B801F2
:1014B000C5010E94D209A1960FB6F894DEBF0FBEF7
:1014C000CDBFDF91CF911F910F91FF90EF90DF90F3
:1014D000CF90BF90AF909F907F906F905F904F9014
:1014E0000895CF92DF92EF92FF920F931F93CF93C5
:1014F000DF93EC016A017B012115310579F4E88164
:10150000F9810190F081E02D642FDF91CF911F913F
:101510000F91FF90EF90DF90CF9009942A30310522
:1015200019F477FD0EC02AE0B701A601CE01DF91C4
:10153000CF911F910F91FF90EF90DF90CF900C947F
:10154000150A6DE20E94E4098C0144275527BA016F
:101550004C195D096E097F092AE0CE010E94150A27
:10156000080F191FC801DF91CF911F910F91FF90B4
:10157000EF90DF90CF9008959A01AB01662757FD59
:101580006095762F0C94710A0F931F93CF93DF937E
:10159000EC019A01AB01662757FD6095762F0E94FA
:1015A000710A8C01CE010E94EB099801280F391FA6
:1015B000C901DF91CF911F910F910895FC0184859E
:1015C0009585FC01E05CFF4F20813181FC01EE5BE1
:1015D000FF4F80819181281B390B2F733327C9015D
:1015E0000895FC0184859585FC01E05CFF4F4081F6
:1015F0005181FC01EE5BFF4F20813181421753077F
:1016000041F00190F081E02DE80FF91F208130E0DA
:1016100002C02FEF3FEFC9010895FC018485958535
:10162000FC01E05CFF4F40815181FC01EE5BFF4F0C
:10163000208131814217530781F0A081B181A80F29
:10164000B91F8C91208131812F5F3F4F2F7333273A
:1016500031832083282F30E002C02FEF3FEFC901F4
:101660000895FC0186859785FC01E05CFF4FDC0155
:10167000AE5BBF4F408151812D913C911197421734
:101680005307C1F70895CF93DF93FC0186859785B3
:10169000DC01A05CBF4F2D913C9111972F5F3F4F14
:1016A0002F733327EC01CE5BDF4F4881598124171C
:1016B0003507D9F30D90BC91A02DA80FB91F6C93DD
:1016C000A685B785A05CBF4F11963C932E93A68943
:1016D000B7892C9181E090E0058C02C0880F991F9A
:1016E0000A94E2F7282B2C9381E090E0DF91CF91D0
:1016F000089508951F920F920FB60F9211242F9301
:101700003F934F938F939F93EF93FF934091C60026
:1017100080915D0390915E0301968F7399272091CC
:101720005F03309160038217930759F0E0915D03E6
:10173000F0915E03E35EFC4F408390935E038093E1
:101740005D03FF91EF919F918F914F913F912F9169
:101750000F900FBE0F901F9018958AEB92E00E9499
:10176000DE0A892B11F00C94790B08951F920F92C9
:101770000FB60F9211242F933F938F939F93EF9364
:10178000FF932091190330911A0380911B039091CC
:101790001C032817390731F48091C1008F7D809395
:1017A000C10014C0E0911B03F0911C03E752FD4FF0
:1017B000208180911B0390911C0301968F739927C0
:1017C00090931C0380931B032093C600FF91EF911D
:1017D0009F918F913F912F910F900FBE0F901F906F
:1017E0001895CF92DF92EF92FF92CF93DF93EC01A7
:1017F0006A017B01411581EE580761057105F9F019
:10180000EC89FD8981E090E00E8C02C0880F991F61
:101810000A94E2F7808360E079E08DE390E0A7012D
:1018200096010E945A0F21503109410951095695DC
:10183000479537952795211580E1380798F0EC8971
:10184000FD89108260E874E88EE190E0A7019601BE
:101850000E945A0F21503109410951095695479567
:1018600037952795E889F9893083EA89FB892083B0
:10187000EE89FF89408181E090E09C010A8C02C0E2
:10188000220F331F0A94E2F7422B4083EE89FF892F
:1018900040819C010B8C02C0220F331F0A94E2F797
:1018A000422B4083EE89FF8940819C010C8C02C051
:1018B000220F331F0A94E2F7422B4083EE89FF89FF
:1018C00020810D8C02C0880F991F0A94E2F7809541
:1018D00082238083DF91CF91FF90EF90DF90CF90B4
:1018E00008951092BD021092BC0288EE93E0A0E031
:1018F000B0E08093BE029093BF02A093C002B09369
:10190000C1028BED91E09093BB028093BA028DE10E
:1019100093E09093C7028093C60289ED92E0909382
:10192000C9028093C80285EC90E09093CB0280932B
:10193000CA0284EC90E09093CD028093CC0280ECBC
:1019400090E09093CF028093CE0281EC90E0909350
:10195000D1028093D00286EC90E09093D3028093E2
:10196000D20284E08093D40283E08093D50287E0A2
:101970008093D60285E08093D70281E08093D802DD
:1019800008950F931F93CF93DF9300D000D0CDB76E
:10199000DEB79B01AC01611571058105910579F0F8
:1019A00069833A834B835C830E943C1129813A818D
:1019B0004B815C810E947C0F8B019C0103C000E085
:1019C00010E09801B801C9010F900F900F900F908F
:1019D000DF91CF911F910F910895CF92DF92EF92F7
:1019E000FF926B017C01621773078407950764F40B
:1019F000CA01B9016C197D098E099F090E94C10CA9
:101A0000C60ED71EE81EF91EB601C701FF90EF9063
:101A1000DF90CF9008950E941F0F0E940106CDEA2B
:101A2000DBE00E946D082097E1F30E94AD0BF9CF37
:101A3000FC01808191810C945010CF93DF93EC01D5
:101A400088819981009711F00E94501019821882A4
:101A50001D821C821B821A82DF91CF9108950F9301
:101A60001F93CF93DF93EC018B016F5F7F4F8881D2
:101A700099810E944A11009731F0998388831B83D2
:101A80000A8381E001C080E0DF91CF911F910F9127
:101A90000895CF93DF93EC0188819981892B31F0F0
:101AA0008A819B818617970708F00CC0CE010E949F
:101AB0002F0D882349F08C819D81892B19F4E881B1
:101AC000F981108281E001C080E0DF91CF9108951B
:101AD000EF92FF920F931F93CF93DF93EC017B0163
:101AE0008A01BA010E94490D811104C0CE010E94F1
:101AF0001D0D07C01D830C83B701888199810E9449
:101B00003912CE01DF91CF911F910F91FF90EF908D
:101B10000895DC0111961C921E9213961C921E923F
:101B2000129715961C921E92149716961C92611588
:101B3000710559F0DB010D900020E9F7AD0141502E
:101B40005109461B570B0C94680D0895CF93DF93F2
:101B5000EC01FB018617970761F0608171816115C7
:101B6000710529F0448155810E94680D02C00E94D0
:101B70001D0DCE01DF91CF910895FC0111821082DD
:101B8000138212821582148216820C94A60DCF93B2
:101B9000DF93D82FC92F6115710561F0DB010D901E
:101BA0000020E9F7AD0141505109461B570B0E9437
:101BB000680D02C00E941D0D8D2F9C2FDF91CF91CB
:101BC0000895EF92FF920F931F93CF93DF93EC0151
:101BD0007B010C811D816115710511F480E016C037
:101BE0004115510591F0040F151FB8010E94490DD0
:101BF0008823A1F3288139818C819D81B701820FCF
:101C0000931F0E9439121D830C8381E0DF91CF91D5
:101C10001F910F91FF90EF900895CF93DF9300D025
:101C2000CDB7DEB769831A8241E050E0BE016F5F35
:101C30007F4F0E94E10D0F900F90DF91CF9108959B
:101C4000FA01DB0114964D915C911597DC01149615
:101C50002D913C911597241B350B2E173F0790F0C3
:101C60008D919C91009771F0DB016D917C916115D4
:101C7000710541F08E0F9F1F0E9440129C0181E070
:101C8000232B09F080E00895FC0144815581FB017C
:101C9000248135814217530720F040E050E00C9436
:101CA000200E80E00895FC012481358162177307BE
:101CB00048F480819181009729F0FC01E60FF71F1D
:101CC0008081089580E008950C94530E0F931F9324
:101CD000CF93DF93EB0141155105E9F02097D9F03F
:101CE000FC01048115812017310708F013C0415011
:101CF0005109021B130B4017510708F48A01FC011C
:101D000060817181620F731FA801CE010E944E1283
:101D1000C00FD11F1882DF91CF911F910F910895AD
:101D2000BF92CF92DF92EF92FF920F931F93CF93C8
:101D3000DF936C017B01EA0189012417350720F448
:101D40008D2FE901042F182F60E171E0C6010E9478
:101D5000890DD70114968D919C9115978C179D072D
:101D6000C8F08017910708F48C01D701ED91FC9120
:101D70001197E00FF11FB08010826D917C916C0F74
:101D80007D1FC6010E94C70DD701ED91FC91E00FA8
:101D9000F11FB082C601DF91CF911F910F91FF908B
:101DA000EF90DF90CF90BF9008951F920F920FB6E3
:101DB0000F9211242F933F938F939F93AF93BF93D1
:101DC0008091610390916203A0916303B0916403D9
:101DD00030916903232F2D5F2D3720F40196A11D2B
:101DE000B11D05C0232F2A570296A11DB11D2093B6
:101DF00069038093610390936203A0936303B0939C
:101E000064038091650390916603A0916703B0918C
:101E100068030196A11DB11D80936503909366032D
:101E2000A0936703B0936803BF91AF919F918F9187
:101E30003F912F910F900FBE0F901F90189578949F
:101E400084B5826084BD84B5816084BD85B58260BF
:101E500085BD85B5816085BDEEE6F0E0808181605D
:101E60008083E1E8F0E0108280818260808380815D
:101E700081608083E0E8F0E0808181608083E1EB35
:101E8000F0E0808184608083E0EBF0E0808181601D
:101E90008083EAE7F0E080818460808380818260D3
:101EA00080838081816080838081806880831092BC
:101EB000C1000895A1E21A2EAA1BBB1BFD010DC093
:101EC000AA1FBB1FEE1FFF1FA217B307E407F507EA
:101ED00020F0A21BB30BE40BF50B661F771F881FC6
:101EE000991F1A9469F760957095809590959B015C
:101EF000AC01BD01CF010895052E97FB16F40094A7
:101F000007D057FD0DD00E945A0F07FC09D07EF470
:101F100090958095709561957F4F8F4F9F4F089555
:101F200050954095309521953F4F4F4F5F4F089505
:101F30000E94A90FA59F900DB49F900DA49F800DA6
:101F4000911D11240895EE0FFF1F0590F491E02DCF
:101F50000994A29FB001B39FC001A39F01D0B29F7B
:101F6000700D811D1124911D08950F931F93CF9320
:101F7000DF938230910510F482E090E0E0916C03F1
:101F8000F0916D0320E030E0C0E0D0E023C040815C
:101F9000518148175907A8F04817590761F4828101
:101FA0009381209719F09B838A832EC090936D03B1
:101FB00080936C0329C02115310529F0421753077E
:101FC00010F0A90102C0BE01DF0102811381EF01FF
:101FD0009A01F8013097D9F62115310509F1281B2E
:101FE000390B2430310590F412968D919C91139702
:101FF0006115710521F0FB019383828304C09093E6
:102000006D0380936C03FD01329644C0FD01E20F25
:10201000F31F81939193225031092D933C933AC041
:1020200020916A0330916B03232B41F4209102012C
:102030003091030130936B0320936A0320910001D8
:10204000309101012115310541F42DB73EB7409182
:10205000040150910501241B350BE0916A03F091B6
:102060006B03E217F307A0F42E1B3F0B2817390769
:1020700078F0AC014E5F5F4F2417350748F04E0FE4
:102080005F1F50936B0340936A038193919302C047
:10209000E0E0F0E0CF01DF91CF911F910F91089523
:1020A000EF92FF920F931F93CF93DF93009709F462
:1020B0008EC0DC01129713961C921E921297E0902C
:1020C0006C03F0906D03E114F10489F42D913C91BF
:1020D0001197280F391F80916A0390916B03821723
:1020E000930789F5B0936B03A0936A0370C0E7016F
:1020F00020E030E001C0EA01CA17DB0738F44A816A
:102100005B819E0141155105B1F722C0AC014250DF
:102110005109FA01D383C28300811181BC01600F90
:10212000711F6C177D0761F468817981600F711FE1
:102130006E5F7F4F718360836A817B81738362836B
:102140002115310529F4B0936D03A0936C033FC0B2
:10215000F901B383A283E90149915991C40FD51FB5
:10216000AC17BD0771F4DC019E918E91840F951F11
:1021700002969183808312968D919C9113979383FD
:102180008283A0E0B0E002C0D7017C01F701828128
:1021900093810097C9F7C701029620813181820F90
:1021A000931F20916A0330916B032817390779F444
:1021B000109729F410926D0310926C0304C01396CB
:1021C0001C921E921297F0926B03E0926A03CDB7B5
:1021D000DEB7E6E00C9495128F929F92AF92BF9279
:1021E000CF92DF92EF92FF92CF93DF93EC01688161
:1021F00079818A819B81611571058105910521F4A1
:1022000064E279ED8BE597E02DE133EF41E050E0BA
:102210000E947C0F49015A019B01AC01A7EAB1E47D
:102220000E94980F6B017C01ACEEB4EFA501940104
:102230000E946812C60ED71EE81EF91EF7FE06C0E1
:1022400081E0C81AD108E10880E8F80AC882D9827A
:10225000EA82FB82E894F7F8B601C701DF91CF91DB
:10226000FF90EF90DF90CF90BF90AF909F908F90B6
:1022700008950E94EC10089586E091E00E94EC1011
:10228000089560930601709307018093080190936D
:1022900009010895A0E0B0E0E0E5F1E10C947312CB
:1022A000EC01009729F4CB010E94B50FEC01B4C0FA
:1022B000DC01A60FB71FFC013297AE17BF0718F459
:1022C000C0E0D0E0A9C00081118106171707B0F067
:1022D0000530110508F4A0C0C801049786179707B8
:1022E00008F49AC002501109061B170B0D931D9399
:1022F00071836083CD010E9450108EC06B01C01AA3
:10230000D10A7C01E00EF11EE0916C03F0916D03A7
:1023100020E030E080E090E048C0EE15FF05D1F508
:1023200080809180540142E0A40EB11CAC14BD0425
:1023300088F17401EC18FD08670122E0C20ED11C7F
:102340009E012250310945E0C416D10478F0428143
:10235000538113965C934E9312971196FC92EE92D2
:10236000F901718360833A2F2B2F09C00E5F1F4F35
:10237000080D191DD9010D931C93328123810097FB
:1023800021F0FC013283238347C030936C032093F8
:102390006D0342C0808191812817390708F49C01A0
:1023A00052814381CF01E52FF42F309709F0B5CF4B
:1023B00080916A0390916B038E159F05F1F42617A7
:1023C0003707D8F48091000190910101009741F402
:1023D0008DB79EB72091040130910501821B930BAC
:1023E000A817B90708F06CCFB0936B03A0936A03EA
:1023F000FE013297718360830FC0CB010E94B50F3D
:102400007C01009709F45CCFA801BE010E94301244
:10241000CE010E945010E701CE01CDB7DEB7ECE04F
:102420000C948F12FC0188279927E894219120327F
:10243000E9F3293010F02E30C8F32B3241F02D3261
:1024400039F4689404C00E945D12820F911D21919D
:1024500020532A30C0F31EF4909581959F4F089524
:10246000FB01DC0102C001900D9241505040D8F7B1
:102470000895FB01DC0101900D920020E1F7089521
:10248000FB01DC014150504030F08D9101908019EA
:1024900019F40020B9F7881B990B0895FB01DC01A2
:1024A0004150504048F001900D920020C9F701C002
:1024B0001D9241505040E0F708957AE0979F902D8B
:1024C000879F802D910D11240895B7FF0C94980FCC
:1024D0000E94980F821B930B08952F923F924F9268
:1024E0005F926F927F928F929F92AF92BF92CF92A4
:1024F000DF92EF92FF920F931F93CF93DF93CDB7AD
:10250000DEB7CA1BDB0B0FB6F894DEBF0FBECDBF24
:1025100009942A88398848885F846E847D848C84F5
:102520009B84AA84B984C884DF80EE80FD800C81FE
:102530001B81AA81B981CE0FD11D0FB6F894DEBFE1
:102540000FBECDBFED01089510E0CCEBD0E004C08C
:10255000FE010E94A50F2296CE3BD107C9F7F89441
:02256000FFCFAB
:1025620000006E032000010000004C45442023209F
:10257200002C2076616C75653A20002C2073746102
:1025820074653A20004C454420737461746520637D
:1025920068616E676564004368616E676564204CBC
:1025A20045442023002C2077697468206D6F646590
:1025B20020002C20616E6420737461747573200096
:1025C200534554004C49474854424C5545005945DF
:1025D2004C4C4F5700505552504C45005354414EAD
:1025E200444259004359434C454F4E004359434CD2
:1025F200454F4646004359434C45574849544500C8
:102602004359434C45524544004359434C45475274
:1026120045454E004359434C45424C554500496C93
:102622006C756D696E617472697820677265657424
:102632007320796F752E0000000000430BAA09DE9B
:082642000A0D0BF10A310B0037
:00000001FF
